:100000000C9425010C944D010C944D010C944D0160
:100010000C944D010C944D010C944D010C944D0128
:100020000C944D010C9497150C944D010C944D01BA
:100030000C944D010C944D010C944D010C944D0108
:100040000C94A92C0C944D010C94AA310C94F83109
:100050000C944D010C944D010C944D010C944D01E8
:100060000C94D9280C944D01084AD73B3BCE016E25
:1000700084BCBFFDC12F3D6C74319ABD56833DDAFF
:100080003D00C77F11BED9E4BB4C3E916BAAAABE0E
:10009000000000803F05A84CCDB2D44EB93836A937
:1000A000020C50B9918688083CA6AAAA2ABE000074
:1000B00000803F00000000240027002A000000000C
:1000C00000250028002B0000000000230026002946
:1000D00000040404040404040402020202020203F1
:1000E00003030303030102040810204080010204FB
:1000F000081020010204081020000000070002017F
:1001000000000304060000000000000000494E4605
:10011000494E4954594E414ECDCCCC3D0AD7233C93
:1001200017B7D13877CC2B329595E6241FB14F0AFB
:10013000000020410000C84200401C4620BCBE4CCC
:10014000CA1B0E5AAEC59D7400407A10F35A00A027
:10015000724E18090010A5D4E80000E87648170090
:1001600000E40B54020000CA9A3B000000E1F505D0
:10017000000080969800000040420F000000A0861A
:1001800001000000102700000000E803000000004C
:100190006400000000000A000000000001000000F0
:1001A00000002C76D888DC674F0823DFC1DFAE590A
:1001B000E1B1B796E5E3E453C63AE651997696E89D
:1001C000E6C28426EB898C9B62ED407C6FFCEFBC21
:1001D0009C9F40F2BAA56FA5F490055A2AF75C934C
:1001E0006B6CF9676DC11BFCE0E40D47FEF520E682
:1001F000B500D0ED902E0300943577050080841E65
:10020000080000204E0A000000C80C333333330FBF
:10021000986E12831141EF8D2114893BE65516CF5C
:10022000FEE6DB18D1844B381BF77C1D901DA4BB68
:10023000E424203284725E228100C9F124ECA1E51D
:100240003D27480671276433410611241FBECFEFB6
:10025000D8E0DEBFCDBF12E0A0E0B1E0E2EDFFE606
:1002600002C005900D92AC35B107D9F715E0ACE5A9
:10027000B2E001C01D92A332B107E1F712E0C8E479
:10028000D2E004C02297FE010E94CD37C234D107CC
:10029000C9F70E945B2E0C94DC370C940000EF929F
:1002A000FF920F931F93F22FF02E47FD02C0E4E060
:1002B00001C0E4E1242F332727FD309537FF03C029
:1002C000309521953F4F4F2D512F0F2FEE2E0E942D
:1002D000D3018F2D912F1F910F91FF90EF900895D3
:1002E000662777270C9435034CE552E00E94A10164
:1002F0000895FB01DC0102C001900D924150504075
:10030000D8F70895FB01DC018D910190801901104F
:10031000D9F3990B0895FB01DC0101900D920020A7
:10032000E1F70895FB01DC014150504048F0019095
:100330000D920020C9F701C01D9241505040E0F7D6
:100340000895009731F4DA018D919C91009709F49A
:100350000EC0DC01FB013D912191222319F03217DF
:10036000C9F3FACF332331F4DA011D921C928827A6
:10037000992708951197AF93BF93FB013D91219168
:10038000321771F4332321F488279927119702C07B
:100390001E921196FA01A193B0839F918F910895B7
:1003A000222369F7EACFA9E0B0E0E9EDF1E00C948F
:1003B00098376A01122FA02EBE2C2BE3201718F4B9
:1003C0002CE3922E02C0902E9394AE014F5F5F4FAC
:1003D00027E0092D0E949504BC018981E82EFF24A5
:1003E000C70189709070019711F4ADE209C0B1FEA8
:1003F00002C0ABE205C0B0FC02C0A0E001C0A0E2B8
:10040000E3FE3BC0AA2311F423E001C024E021173E
:1004100010F020E002C0121B212FEB2CB4FE02C012
:10042000322F0AC0F601322F80E202C08193315090
:100430003323E1F7C20ED11CAA2319F0F601A193D0
:100440006F01F6013196E2FE05C09EE4D6019C9351
:1004500081E404C09EE6D6019C9381E611968C93BC
:1004600091833296DF01832F90E202C09D938150E9
:100470008823E1F7E30FF11D40C0E2FE42C0AA234A
:1004800011F423E001C024E0211710F020E002C0A5
:10049000121B212FEB2CB4FE02C0922F0AC0F601D2
:1004A000922F80E202C0819391509923E1F7C20E0E
:1004B000D11CAA2319F0F601A1936F01F601319620
:1004C000E2FE08C089E4D6018C938EE411968C93E9
:1004D00086E407C089E6D6018C938EE611968C934C
:1004E00086E681833296DF01892F20E202C02D93B8
:1004F00081508823E1F7E90FF11D10822EEF3FEFC5
:10050000AFC0161617061CF041E050E003C0AB0167
:100510004F5F5F4FAA2019F480E090E003C08A2D5E
:1005200090E0019620E030E0AA2311F021E030E0D5
:10053000240F351F280F391F812F90E02817390706
:1005400014F020E002C0121B212F4B2D50E0CA01F5
:1005500080719070B4FC0DC0B3FC0BC0F601322F5B
:1005600040E202C0419331503323E1F7C20ED11C67
:1005700001C0322FAA2319F0F601A1936F01892B34
:1005800011F0132F0AC0F601132F80E302C08193EC
:1005900011501123E1F7C30ED11C092D060FBA80AB
:1005A00090E1892E912C8E209F20E4FE04C0F1E37F
:1005B000BF1609F40150101614F001E003C0093011
:1005C00008F008E09B0177FF02C020E030E0CB019B
:1005D0000196821B930BFE013196E80FF91F8EE204
:1005E000F82E3B01601A71088A2D90E044275527A8
:1005F000481B590B8FEF2F3F380719F4D601FD9296
:100600006D01621773072CF06216730614F4808173
:1006100001C080E32150304031962417350724F083
:10062000D6018D936D01E6CF2617370749F4B5E360
:10063000BB1528F0BB1621F48114910409F481E361
:10064000F6018193D601812F90E202C09C938150E4
:1006500011968823D9F7E10FF11D108220E030E0D8
:10066000C9012996EEE00C94B437A0E0B0E0EBE3CA
:10067000F3E00C949A37EC015B016115710519F0F8
:10068000FB0191838083F9908F2D90E00E94D137F8
:10069000892BC9F7FDE2FF1621F4F990EE24E394CB
:1006A00005C02BE2F21609F4F990EE248E010150F8
:1006B0001040C8016DE071E043E050E00E946D051C
:1006C000892B01F58E010E5F1F4FC80160E171E0BB
:1006D00045E050E00E946D05892B19F48E01095FF9
:1006E0001F4FA114B10419F0F50111830083E0FC40
:1006F00004C070E090E080E814C070E090E080E812
:100700006FEF08C1C80165E171E043E050E00E946D
:100710006D05892B69F4A114B10429F470E090E00F
:1007200080EC6FE7F7C02296F501D183C083F6CF46
:100730008824992440E050E060E070E0EF2DE05321
:10074000EA30A0F5F2E0EF2A8E2D90E09C012870AF
:100750003070E2FE06C0232B79F50894811C911CB1
:100760002BC0232B19F0089481089108DB01CA01E2
:1007700012E0880F991FAA1FBB1F1A95D1F7480FC7
:10078000591F6A1F7B1F440F551F661F771F4E0F8F
:10079000511D611D711D483929E9520729E9620778
:1007A00029E1720748F084E0E82A06C0EE3F31F400
:1007B000E3FC39C098E0E92AF990C0CFE53311F0A5
:1007C000E53189F529912D3219F4E0E1EE2A05C0D1
:1007D0002B3219F081E090E003C0299182E090E093
:1007E000E22FE053EA3018F0C81BD90B1CC020E000
:1007F00030E0FCE020383F075CF4C901880F991F06
:10080000880F991F280F391F220F331F2E0F311DFC
:10081000E991E053EA3068F3E4FE03C03095219596
:100820003F4F820E931ECE2CDD24E1FE07C0A114A3
:10083000B10421F02197F501D183C083CB01BA0126
:100840000E9422357B018C01F3E0CF22DD2423E0DE
:10085000C216D10421F417FB109517F91095570112
:100860006801C801B70120E030E040E050E00E949C
:100870008234882309F44AC097FE0DC02CE2E22E90
:1008800021E0F22E9094819491089394C0E2D0E0FC
:1008900000E010E012C094E4E92E91E0F92EF6CFCA
:1008A000F7012591359145915491C601B5010E94FA
:1008B00057365B016C018C1A9D0A8C169D0684F7D5
:1008C000D595C7950F5F1F4F0630110529F08CEFA6
:1008D0009FEFE80EF91EF1CFC501D6017C018D0115
:1008E0008C2D880F8D2D881F8F3F51F0C601B501CB
:1008F00020E030E040E050E00E948234882331F470
:1009000082E290E090932205809321057E2D9F2D19
:10091000802F612F272F392F482F562FB901CA0159
:10092000CDB7DEB7ECE00C94B637283008F027E0FE
:100930003327DA01990F311D87FD9160009661051B
:10094000710539F432602E5F3D9330E32A95E1F76B
:1009500008959F3F30F080387105610509F03C5FD4
:100960003C5F3D93913008F08068911DDF93CF93F9
:100970001F930F93FF92EF92192F987F9695E92F6F
:1009800096959695E90FFF27EE55FE4F9927332749
:10099000EE24FF24A701E70105900894079428F4AA
:1009A000360FE71EF81E491F511D660F771F881F5F
:1009B000991F0694A1F70590079428F4E70EF81EF6
:1009C000491F561FC11D770F881F991F661F069468
:1009D000A1F70590079428F4F80E491F561FC71F6A
:1009E000D11D880F991F661F771F0694A1F70590E8
:1009F000079420F4490F561FC71FD81F990F661F71
:100A0000771F881F0694A9F784911095177041F0FD
:100A1000D695C79557954795F794E7941A95C1F7DA
:100A2000E8E4F1E068941590159135916591959100
:100A300005907FE27395E118F10A430B560BC90B41
:100A4000D009C0F7E10CF11E431F561FC91FD01D6E
:100A50007EF4703311F48A95E6CFE894015030F0BB
:100A6000080F0AF40027021708F4202F2395022FFD
:100A70007A3328F079E37D932A95E9F710C07D93C6
:100A80002A9589F606949795679537951795179443
:100A9000E118F10A430B560BC90BD00998F02395C6
:100AA0007E9173957A3308F070E37C932013B8F746
:100AB0007E9170617D9330F0839571E37D9370E357
:100AC0002A95E1F71124EF90FF900F911F91CF919C
:100AD000DF91992787FD90950895FB01DC01415036
:100AE000504088F08D9181341CF08B350CF4805E81
:100AF000659161341CF06B350CF4605E861B6111EE
:100B000071F3990B0895881BFCCF81E080935E02FE
:100B100080915F02909160020196909360028093B1
:100B20005F0280915F029091600264E170E00E9438
:100B30005F379093600280935F020895EF92FF9277
:100B40000F931F93DF93CF9300D000D0CDB7DEB7C4
:100B5000FC0149835A836B837C83638142812081BA
:100B600031816417E0F4862F90E0880F991F880F79
:100B7000991F280F391FE980FA800B811C81D90148
:100B8000ED92FD920D931C9313976F5F63838481A5
:100B90008F5F90E070E00E944B37848318C084819F
:100BA0008F5F90E0642F70E00E944B37848390E069
:100BB000880F991F880F991F280F391F89819A81E3
:100BC000AB81BC81F90180839183A283B3830F90B1
:100BD0000F900F900F90CF91DF911F910F91FF9089
:100BE000EF9008956091AB027091AC028091AD02DC
:100BF0009091AE022EEA3BEB49E75DE30E94573647
:100C000021EE3EE245E652EC0E945736AB01BC01B4
:100C100084EF92E00E949E0508958130910539F598
:100C20006F5F7F4F69F580EC92E060E071E00E94B9
:100C3000402F87EC92E09093DC028093DB0225E06A
:100C40002093DD021092DE021092DF0280EE92E02D
:100C50009093F5028093F4022093F6021092F7022B
:100C60001092F80289EF92E00E9473260895892B72
:100C700039F46F5F7F4F21F480EC92E00E94732F74
:100C8000089580E090E06FEF7FEF0E940D060895D9
:100C900081E090E06FEF7FEF0E940D0608952F92A4
:100CA0003F924F925F926F927F928F929F92AF92FC
:100CB000BF92CF92DF92EF92FF920F931F93DF9339
:100CC000CF93CDB7DEB72C970FB6F894DEBF0FBE2B
:100CD000CDBFE0908F02F0909002009191021091B0
:100CE000920217FB109517F91095C801B7010E94E1
:100CF00086346D837E838F839887C801B7010E94F5
:100D0000BA361B012C01E0908B02F0908C0200910E
:100D10008D0210918E02C801B7010E9486345B01DA
:100D20006C01C801B7010E94BA3669837A838B834C
:100D30009C836090B3027090B4028090B502909052
:100D4000B6028091B7029091B802A091B902B09119
:100D5000BA0289879A87AB87BC87C401B3012D810A
:100D60003E814F8158850E9457367B018C016985F1
:100D70007A858B859C85A20191010E9457369B0143
:100D8000AC01C801B7010E94BB337B018C0117FB8A
:100D9000109517F91095C601B5012091AF02309159
:100DA000B0024091B1025091B2020E9457365B01ED
:100DB0006C01C401B301A20191010E94573629813F
:100DC0003A814B815C810E9457369B01AC01C60180
:100DD000B5010E94BC335B016C0169857A858B8506
:100DE0009C852D813E814F8158850E9457362981EF
:100DF0003A814B815C810E9457369B01AC01C60150
:100E0000B5010E94BC339B01AC015058C801B70129
:100E10000E942F3460939302709394028093950202
:100E2000909396022C960FB6F894DEBF0FBECDBFFE
:100E3000CF91DF911F910F91FF90EF90DF90CF90B6
:100E4000BF90AF909F908F907F906F905F904F90EA
:100E50003F902F900895AF92BF92CF92DF92EF9282
:100E6000FF920F931F93DF93CF93CDB7DEB7C0569A
:100E7000D0400FB6F894DEBF0FBECDBF198E188ECE
:100E800087E392E09F8B8E8BB0E2AB2EB12CAC0E41
:100E9000BD1EBB8EAA8E81E490E09F8F8E8FA6E14F
:100EA000CA2ED12CCC0EDD1EC6010E94C115C60172
:100EB0006CE071E00E94AD3060918B0270918C0209
:100EC00080918D0290918E0221EE3EE245E652E441
:100ED0000E94573643E021E07E010894E11CF11C9A
:100EE00087010E944F01C601B7010E94AD30C601C3
:100EF00066E171E00E94AD3060918F0270919002C6
:100F0000809191029091920221EE3EE245E652E4F8
:100F10000E945736F8E0EF2EF12CEC0EFD1E43E058
:100F200021E087010E944F01C601B7010E94AD3048
:100F3000C60161E271E00E94AD3060919302709150
:100F40009402809195029091960221EE3EE245E650
:100F500052E40E945736EFE0EE2EF12CEC0EFD1E0F
:100F600043E021E087010E944F01C601B7010E94C2
:100F7000AD30C6016CE271E00E94AD30D5010D903C
:100F80000020E9F7AA19BB09129700E010E021E060
:100F900030E0A5010BC0FA01E20FF31F8081992711
:100FA00087FD9095082719272F5F3F4F2A173B078A
:100FB00090F3003111052CF4CE01469660E30E94B7
:100FC000A32FCE014696B80140E150E00E949A302E
:100FD0008DEF94E0BE01605E7F4F0E949731C05A52
:100FE000DF4F0FB6F894DEBF0FBECDBFCF91DF91BC
:100FF0001F910F91FF90EF90DF90CF90BF90AF9037
:101000000895DF92EF92FF920F931F93DF93CF9398
:10101000CDB7DEB7AE970FB6F894DEBF0FBECDBF2B
:101020001F861E8687E392E09D878C87CE014696B9
:10103000998B888B89E190E09D8B8C8B8E01045F6E
:101040001F4FC8010E94C115C80164E371E00E94EE
:10105000AD3080E090E0A0E0B0E089839A83AB837C
:10106000BC83D090F602E090F402F090F50210E01C
:1010700011C069817A818B819C81F7012191319125
:10108000419151917F010E94BC3369837A838B83A4
:101090009C831F5F1D1568F3E980FA800B811C811A
:1010A0006D2D70E0882777FD8095982F0E9424355C
:1010B0009B01AC01C801B7010E94893469837A831E
:1010C0008B839C8389819A81AB81BC8115E0E12E61
:1010D000F12CEC0EFD1EBC01CD0143E021E08701A7
:1010E0000E944F018E01045F1F4FC801B7010E948B
:1010F000AD30C8016CE371E00E94AD30FE01769620
:10110000DF010D900020E9F7AE1BBF0B129700E046
:1011100010E021E030E0AF010BC0FA01E20FF31F55
:101120008081992787FD9095082719272F5F3F4FCA
:101130002A173B0790F3003111052CF4CE010C96D1
:1011400060E30E94A32FCE010C96B80140E150E06D
:101150000E949A308DEF94E0BE016A5E7F4F0E943C
:101160009731AE960FB6F894DEBF0FBECDBFCF91CC
:10117000DF911F910F91FF90EF90DF9008956F9294
:101180007F928F929F92AF92BF92CF92DF92EF9217
:10119000FF920F931F93DF93CF93CDB7DEB7C5595F
:1011A000D0400FB6F894DEBF0FBECDBF3B014C015F
:1011B0001A8A198A87E392E0988B8F872DE2E22EB4
:1011C000F12CEC0EFD1EFC8AEB8A89E190E0988FF1
:1011D0008F8B8E01015F1F4FC8010E94C115C8018E
:1011E00060E471E00E94AD30C401B3010E94F134AB
:1011F0009B01AC01C801B9014AE050E00E949A305D
:10120000C80168E471E00E94AD30D7010D90002064
:10121000E9F7AE19BF09129700E010E021E030E0D5
:10122000A7010BC0FA01E20FF31F8081992787FD08
:101230009095082719272F5F3F4F2A173B0790F3F8
:10124000003111052CF4CE010F9660E30E94A32F0C
:10125000CE010F96B80140E150E00E949A308DEF28
:1012600094E0BE01635D7F4F0E9497316091BB02A5
:101270007091BC028091BD029091BE0220E030E0EE
:1012800040E050E00E948234882309F427C11C8E7C
:101290001B8E87E392E09A8F898F99E6A92EB12C55
:1012A000AC0EBD1EBE8EAD8E8DE290E09AA389A3DA
:1012B00089E1C82ED12CCC0EDD1EC6010E94C115BD
:1012C000C6016EE471E00E94AD30C401B30120910B
:1012D000BB023091BC024091BD025091BE020E94FF
:1012E000BB3343E021E07E010894E11CF11C87013F
:1012F0000E944F01C601B7010E94AD30C60166E5EC
:1013000071E00E94AD30D5010D900020E9F7AA19D7
:10131000BB09129700E010E021E030E00BC0F501BE
:10132000E20FF31F8081992787FD909508271927E1
:101330002F5F3F4F2A173B0790F3003111052CF424
:10134000CE01499660E30E94A32FCE014996B801D1
:1013500040E150E00E949A308DEF94E0BE01675961
:101360007F4F0E949731A090BB02B090BC02C0900A
:10137000BD02D090BE02C601B50120E030E040E0E1
:1013800050E00E944C36181624F0D7FAD094D7F8C3
:10139000D09408E0E02EF12CEC0EFD1EC601B50144
:1013A00043E021E087010E944F011EA21DA287E3B6
:1013B00092E09CA38BA3CE018A5B9F4F98A78FA33B
:1013C00083E290E09CA78BA78E010D5D1F4FC801A3
:1013D0000E94C115C8016AE571E00E94AD30C801E4
:1013E000B401A30122E030E00E949431C80162E61A
:1013F00071E00E94AD30C801B7010E94AD3060912C
:10140000BB027091BC028091BD029091BE0220E0AF
:1014100030E040E050E00E948234882324F4C80188
:1014200064E671E003C0C80168E671E00E94AD3077
:101430008E010D5D1F4FC801BE01685F7F4F0E9486
:10144000AD306091BB027091BC028091BD02909161
:10145000BE0220E030E040E050E00E948234882369
:10146000ACF4C8016CE671E00E94AD30FE01EA5BAD
:10147000FF4FDF010D900020E9F7AE1BBF0B129765
:1014800000E010E021E030E0AF010FC0C80160E7EC
:1014900071E0EACFFA01E20FF31F8081992787FDFF
:1014A0009095082719272F5F3F4F2A173B0790F386
:1014B000003111052CF4CE01499660E30E94A32F60
:1014C000CE018396B80140E150E00E949A308DEF42
:1014D00094E0BE016A5B7F4F0E949731CB56DF4F8D
:1014E0000FB6F894DEBF0FBECDBFCF91DF911F9135
:1014F0000F91FF90EF90DF90CF90BF90AF909F90B3
:101500008F907F906F900895EF92FF920F931F93AB
:101510007B018C0180912C02882309F46EC08DEF31
:1015200094E064E771E00E94AD308DEF94E067E8ED
:1015300071E00E94AD308DEF94E0B801A70122E088
:1015400030E00E9494318DEF94E06CE871E00E94ED
:10155000AD306091870270918802809189029091EC
:101560008A0221EE3EE245E652E40E945736AB0184
:10157000BC018DEF94E022E030E00E9494318DEFC9
:1015800094E062E971E00E94AD3060918B0270914D
:101590008C0280918D0290918E0221EE3EE245E612
:1015A00052E40E945736AB01BC018DEF94E022E07B
:1015B00030E00E9494318DEF94E068E971E00E9480
:1015C000AD3060918F027091900280919102909164
:1015D000920221EE3EE245E652E40E945736AB010C
:1015E000BC018DEF94E022E030E00E9494318DEF59
:1015F00094E062E671E00E9497311F910F91FF9095
:10160000EF9008954F925F926F927F928F929F9288
:10161000AF92BF92CF92DF92EF92FF920F931F9300
:10162000DF93CF9300D000D00F92CDB7DEB74DB689
:101630005EB662E671E00E9474016C014E0108948E
:10164000811C911CEBC1D6018C914CEFA42E4FEF65
:10165000B42EA00EB11E833209F0A4C07DB66EB6C2
:10166000C401B60144E050E00E9492011D823BEFAC
:10167000E32E3FEFF32EE00EF11EEDB7FEB7EA19B1
:10168000FB090FB6F894FEBF0FBEEDBF0DB71EB736
:101690000F5F1F4F96012B5F3F4FC801B901A70194
:1016A0000E9479010E0D1F1DD8011C92C4016EE924
:1016B00071E00E948201009719F481E08093BF02DB
:1016C000C40163EA71E00E948201009711F4109254
:1016D000BF02C40168EA71E00E948201009719F418
:1016E00081E080932C02C4016DEA71E00E948201C6
:1016F000009711F410922C02C40162EB71E00E9479
:101700008201009719F481E080932B02C40167EBFA
:1017100071E00E948201009711F410922B02C40123
:101720006CEB71E00E948201009739F038C08DEFB8
:1017300094E061EC71E00E94AD308DEF94E00E9486
:10174000BA328497A4F38DE993E06AE070E049E14E
:101750000E94C2140BE010E08DEF94E00E94EB3287
:10176000482F8DE993E0B8010E94C2140F5F1F4F0C
:101770000F32110589F78DE061E00E94072E68EEB7
:1017800073E080E090E00E94602D8DE060E00E94B8
:10179000072E8DEF94E063EC71E00E949731872D66
:1017A000962D30C1EDB67EB6C401B60143E050E0DF
:1017B0000E9492011C8203501040EDB7FEB7E01B5F
:1017C000F10B0FB6F894FEBF0FBEEDBF0DB71EB7FD
:1017D0000F5F1F4F96012C5F3F4FC801B901A50154
:1017E0000E947901A00EB11ED5011C92C4016FEDBB
:1017F00071E00E948201009759F4C8010E947001B3
:101800006093BB027093BC028093BD029093BE02B2
:10181000C40163EE71E00E948201009709F0F0C0FC
:101820008DEF94E067EE71E00E94AD3060912D0382
:1018300070912E038DEF94E04AE050E00E949A30C0
:101840008DEF94E062E671E00E94AD3060912F036D
:10185000709130038DEF94E04AE050E00E949A309E
:101860008DEF94E062E671E00E94AD30609131034B
:10187000709132038DEF94E04AE050E00E949A307C
:101880008DEF94E064EF71E00E94AD308DEF94E055
:1018900066EF71E00E94AD306091330370913403C4
:1018A0008DEF94E04AE050E00E949A308DEF94E092
:1018B00062E671E00E94AD306091350370913603AD
:1018C0008DEF94E04AE050E00E949A308DEF94E072
:1018D00062E671E00E94AD30609137037091380389
:1018E0008DEF94E04AE050E00E949A308DEF94E052
:1018F00064EF71E00E94AD308DEF94E064E072E03F
:101900000E94AD304091390350913A0360913B03FE
:1019100070913C038DEF94E022E030E00E9494311E
:101920008DEF94E062E671E00E94AD3040913D039E
:1019300050913E0360913F03709140038DEF94E01E
:1019400022E030E00E9494318DEF94E062E671E095
:101950000E94AD3040914103509142036091430396
:10196000709144038DEF94E022E030E00E949431C6
:101970008DEF94E064EF71E00E94AD308DEF94E064
:1019800060E172E00E94AD30409145035091460302
:1019900060914703709148038DEF94E022E030E0BE
:1019A0000E9494318DEF94E062E671E00E94AD30C8
:1019B0004091490350914A0360914B0370914C034D
:1019C0008DEF94E022E030E00E9494318DEF94E0BE
:1019D00062E671E00E94AD3040914D0350914E039C
:1019E00060914F03709150038DEF94E022E030E05E
:1019F0000E9494318DEF94E064EF71E00E94AD306D
:101A00008E2D972D0FB6F8949EBF0FBE8DBF80E030
:101A100090E062E671E00E9474016C01C114D1048F
:101A200069F0D6010D900020E9F78D0101501040BA
:101A30000C191D090430110508F005CE0FB6F894F5
:101A40005EBE0FBE4DBE0F900F900F900F900F9087
:101A5000CF91DF911F910F91FF90EF90DF90CF908A
:101A6000BF90AF909F908F907F906F905F904F90BE
:101A700008954F925F926F927F928F929F92AF9252
:101A8000BF92CF92DF92EF92FF920F931F93F1E1FB
:101A90008F2EF3E09F2EE1E7AE2EE2E0BE2E72E045
:101AA000672E712C6A0C7B1C64E0462E512C4A0C6C
:101AB0005B1C85010A5F1F4FF5013896D5011A9608
:101AC000C401B501A30192017F016D010E94BE1303
:101AD0000DEF14E06091710270917202C8014AE04A
:101AE00050E00E949A3052E6E52E51E0F52EC801F2
:101AF000B7010E94AD306091730270917402C80109
:101B00004AE050E00E949A30C801B7010E94AD300F
:101B10006091750270917602C8014AE050E00E941F
:101B20009A30C801B7010E94AD30C4014897B50191
:101B3000A30192010E9421106091710270917202C2
:101B4000C8014AE050E00E949A30C801B7010E94E3
:101B5000AD306091730270917402C8014AE050E0A8
:101B60000E949A30C801B7010E94AD3060917502A1
:101B700070917602C8014AE050E00E949A30C80194
:101B80000E94AB2F1F910F91FF90EF90DF90CF90AD
:101B9000BF90AF909F908F907F906F905F904F908D
:101BA0000895DF92EF92FF920F931F93DF93CF93ED
:101BB00000D000D0CDB7DEB78091BF02882319F0E6
:101BC0000E94390DA1C080915E02882309F49CC057
:101BD00089EF92E061E672E00E94F72180915F0256
:101BE0009091600280FD1CC089EF92E067E972E08D
:101BF0000E949D2089EF92E067E872E00E94302306
:101C00000E944F060E94F205409193025091940267
:101C100060919502709196028BED92E00E949E0574
:101C200080915F029091600265E070E00E945F37F2
:101C3000892B09F069C080E090E0A0E0B0E08983E2
:101C40009A83AB83BC83D090DD02E090DB02F090FE
:101C5000DC0210E011C069817A818B819C81F701DF
:101C600021913191419151917F010E94BC3369834F
:101C70007A838B839C831F5F1D1568F3E980FA804C
:101C80000B811C816D2D70E0882777FD8095982F42
:101C90000E9424359B01AC01C801B7010E94893420
:101CA00069837A838B839C8329813A814B815C8110
:101CB000B901CA0121EE3EE245E652E40E945736E0
:101CC0007B018C0120E030E040E050E00E94823453
:101CD000882354F4C801B70120E030E044EB53E41A
:101CE0000E94BC337B018C01C801B7010E94840AA9
:101CF00080912B02882341F0C801B7010E94BF08E0
:101D00000E9401080E942B0710925E020F900F9014
:101D10000F900F90CF91DF911F910F91FF90EF9057
:101D2000DF900895CF92DF92EF92FF920F931F936F
:101D3000DF93CF93CDB7DEB7CDB6DEB63AC08DEF29
:101D400094E00E94EB32182F80EC92E0612F0E9409
:101D5000FA2E1A3071F5FDB6EEB64091C4025091DC
:101D6000C5024F5F5F4F8DB79EB7841B950B0FB6B3
:101D7000F8949EBF0FBE8DBF0DB71EB70F5F1F4FEC
:101D800080EC92E0B80120E030E00E946A2EC801A9
:101D90006CE20E94020B80EC92E060E071E00E9435
:101DA0005A2F2F2D3E2DC9010FB6F8949EBF0FBE9E
:101DB0008DBF8DEF94E00E94BA32892B09F0BFCF1E
:101DC0000FB6F894DEBE0FBECDBECF91DF911F914E
:101DD0000F91FF90EF90DF90CF90089580EC92E00C
:101DE00068E270E00E94B12E8DEF94E040E056E989
:101DF00060E070E00E94333282EF93E00E94152889
:101E000089EF92E061E00E946D2664E670E080E078
:101E100090E045E855E00E9436150E9442158DE09D
:101E200061E00E94C82D1092DE021092DF026091E4
:101E3000DB027091DC0290E020E030E040E050E016
:101E40000DC0E92FF0E0EE0FFF1FEE0FFF1FE60FB2
:101E5000F71F20833183428353839F5F8091DD028C
:101E6000981778F30895FC0180E090E0A0E8BFE3C4
:101E700080839183A283B38384839583A683B7836E
:101E800080879187A287B3870895CF92DF92EF92E0
:101E9000FF921F93CF93DF93EB016A01790182EFE9
:101EA00093E06EE170E00E94372782EF93E063E0F9
:101EB0000E94B92782EF93E00E94FC2782EF93E013
:101EC0006EE170E00E94372782EF93E06EE170E0F0
:101ED00046E050E00E940D2882EF93E00E944127E7
:101EE000069779F582EF93E00E944A27182F82EF38
:101EF00093E00E944A27312F20E0282B392B398389
:101F0000288382EF93E00E944A27182F82EF93E004
:101F10000E944A27312F20E0282B392BF7013183EB
:101F2000208382EF93E00E944A27182F82EF93E0EC
:101F30000E944A27312F20E0282B392BF6013183CC
:101F4000208382EF93E00E94FC27DF91CF911F91C5
:101F5000FF90EF90DF90CF900895AF92BF92CF9215
:101F6000DF92EF92FF920F931F93DF93CF9300D0F6
:101F700000D000D0CDB7DEB78C017B016A015901DA
:101F8000BE016F5F7F4FAE014D5F5F4F9E012B5FC4
:101F90003F4F0E94450F69817A81882777FD8095A0
:101FA000982F0E942435F80120813181428153818C
:101FB0000E948934F70160837183828393836B81EC
:101FC0007C81882777FD8095982F0E942435F80121
:101FD00024813581468157810E948934F6016083CE
:101FE0007183828393836D817E81882777FD8095BD
:101FF000982F0E942435F80120853185428553852C
:102000000E948934F50160837183828393832696CD
:102010000FB6F894DEBF0FBECDBFCF91DF911F91F9
:102020000F91FF90EF90DF90CF90BF90AF90089509
:10203000AB019B01285F3F4F4C5F5F4F0E94AD0F8C
:102040000895CF92DF92EF92FF920F931F93DF9349
:10205000CF93CDB7DEB72C970FB6F894DEBF0FBE87
:10206000CDBF8B017A016901BE016F5F7F4FAE0169
:102070004B5F5F4F9E01275F3F4F0E94AD0F69810D
:102080007A818B819C8120E030E040E05FE30E9418
:10209000BC330E94F134F801718360836D817E81CD
:1020A0008F81988520E030E040E05FE30E94BC3300
:1020B0000E94F134F7017183608369857A858B858D
:1020C0009C8520E030E040E05FE30E94BC330E944A
:1020D000F134F601718360832C960FB6F894DEBF5D
:1020E0000FBECDBFCF91DF911F910F91FF90EF9069
:1020F000DF90CF900895EF92FF920F931F93162FCA
:10210000042F82EFE82E83E0F82EC7016EE170E025
:102110000E943727C701612F0E94B927C701602F8E
:102120000E94B927C7010E94FC271F910F91FF90C1
:10213000EF900895462F683030F44295440F407E6A
:1021400061E00E947B100895462F673028F4440F09
:10215000440F60E00E947B100895462F633048F4DE
:1021600062E00E947B1064E670E080E090E00E94F4
:10217000602D08952F923F924F925F926F927F92BF
:102180008F929F92AF92BF92CF92DF92EF92FF9287
:102190000F931F93DF93CF93CDB7DEB768970FB63A
:1021A000F894DEBF0FBECDBF9E878D87162F80E0CF
:1021B00090E0A0E8BFE3ED85FE8580839183A28354
:1021C000B38384839583A683B78380879187A2870F
:1021D000B387CF0160E041E10E947B108D859E8531
:1021E000612F0E949A101F8A188EEE24FF241B8AEA
:1021F0001C8A1D8A1E8A1F86188A198A1A8A00E07C
:1022000010E08D859E8561E00E94AD108D859E85D4
:10221000BE016F5F7F4FAE014B5F5F4F9E01275F37
:102220003F4F0E94AD0F29803A804B805C80C201F5
:10223000B1012F89388DA7010E944C3618162CF059
:102240008F89988DD7011C012D016D807E808F8034
:102250009884C401B3012B893C894D895E890E9411
:102260004C36181634F08B899C89AD89BE893C01A7
:102270004D01A984BA84CB84DC84C601B5012F85C5
:10228000388949895A890E944C36181634F08F854E
:102290009889A989BA895C016D010F5F1F4F0A30C7
:1022A000110591F0D201C1012F8A988F7D01D401CF
:1022B000C3016B8A9C8BAD8BBE8BD601C501AF86EB
:1022C000988BA98BBA8B9DCFC201B10120E030E081
:1022D00040E050E00E944C3618161CF48201710157
:1022E0000AC00F2EF0E0EF2EF0E0FF2EF0E00F2FEF
:1022F000F0E01F2FF02DC401B301A80197010E9447
:102300004C36181614F484017301C601B501A801F6
:1023100097010E944C36181614F486017501ED855C
:10232000FE852486358646865786608A718A828A2B
:10233000938AA48AB58AC68AD78AC801B701A2013E
:1023400091010E948934ED85FE85608371838283CB
:102350009383C801B701A40193010E948934ED85DC
:10236000FE856483758386839783C801B701A601C0
:1023700095010E948934ED85FE856087718782878B
:102380009387CF0160E040E10E947B1068960FB612
:10239000F894DEBF0FBECDBFCF91DF911F910F919B
:1023A000FF90EF90DF90CF90BF90AF909F908F9075
:1023B0007F906F905F904F903F902F9008951F9364
:1023C000CF93DF93EC01162F65E070E080E090E0A2
:1023D0000E94602D112321F0CE0160E00E94AD101B
:1023E000CE0160E040E70E947B10CE0161E040EA50
:1023F0000E947B10CE0162E040E00E947B10DF91E2
:10240000CF911F910895DF92EF92FF920F931F9348
:10241000CF93DF93F62EE42ED22E8823C9F482EFD9
:1024200093E00E942D2782EF93E06E2D0E94B92742
:10243000E80110E006C082EF93E069910E94B9279D
:102440001F5F1D15C0F382EF93E00E94FC271AC0A6
:10245000862F60E00E94072EEEBC0DB407FEFDCF74
:102460008EB5F80190E008C080818EBD0DB407FEE6
:10247000FDCF8EB59F5F31969D15B0F38F2D61E036
:102480000E94072E81E0DF91CF911F910F91FF9065
:10249000EF90DF9008950F931F93DF93CF930F92E8
:1024A000CDB7DEB7298321E08E010F5F1F4F0E9459
:1024B00003120F90CF91DF911F910F9108955F92BA
:1024C0006F927F928F929F92AF92BF92CF92DF9244
:1024D000EF92FF920F931F93CF93DF93962ED42EFC
:1024E000522EC02E5701882309F05EC082EF93E080
:1024F0000E942D2782EF93E06D2D0E94B92782EF75
:1025000093E00E94FC2782EF93E0692D0E942D2723
:1025100082EF93E0692D452D0E9411280E94F12C35
:102520003B014C01802F912F9C01E90100E010E05C
:10253000CE018C19D82E82EF93E00E944127892B7F
:1025400009F462C0A114B10459F00E94F12C66197B
:102550007709880999096E157F058007910730F47E
:1025600082EF93E00E944A278993E2CF0E94F12CE8
:102570006619770988099909950140E050E06217CA
:1025800073078407950758F02D2D332727FD3095C5
:10259000852D90E02817390714F4DD24DA9482EFB2
:1025A00093E00E94FC271FC0862F60E00E94072E48
:1025B00090E8D92ADEBC0DB407FEFDCF8EB58C2D78
:1025C000912F9C01F90106C01EBC0DB407FEFDCF82
:1025D0008EB581938E2F8C198515B0F3D52C892D4E
:1025E00061E00E94072E8D2DDF91CF911F910F91F9
:1025F000FF90EF90DF90CF90BF90AF909F908F9023
:102600007F906F905F900895A114B10441F2AECF16
:10261000EF92FF920F931F93F901780121E08F0150
:102620000E945F121F910F91FF90EF900895AF925B
:10263000BF92CF92DF92EF92FF920F931F93DF939F
:10264000CF930F92CDB7DEB7C82EB62EA42EF22EA2
:10265000D02E00912D0210912E029E012F5F3F4F30
:102660000E9408138823B9F16F2D70E02D2D30E002
:102670004E2D50E088E090E0821B930B02C0440F87
:10268000551F8A95E2F750E087E090E0861B970B94
:1026900002C0559547958A95E2F7261B370B295FAF
:1026A0003F4F8FEF90E0FC0102C0F595E7952A952A
:1026B000E2F79F016F5F7F4F02C0880F991F6A95F5
:1026C000E2F7282B89812823242B29838C2D6B2D3D
:1026D0004A2D0E944B120F90CF91DF911F910F91C5
:1026E000FF90EF90DF90CF90BF90AF900895BF9292
:1026F000CF92DF92EF92FF920F931F93DF93CF93CE
:102700000F92CDB7DEB7D82EC62EB42EE22EF02E05
:1027100000912D0210912E029E012F5F3F4F0E94CB
:1027200008133981FF2051F081E090E002C0880F4A
:10273000991FEA94E2F7232F282B0AC081E090E04A
:1027400002C0880F991FEA94E2F7282F20952323CF
:1027500029838D2D6C2D4B2D0E944B120F90CF9104
:10276000DF911F910F91FF90EF90DF90CF90BF907E
:1027700008950895FC016083418308952F923F924C
:102780004F925F926F927F928F929F92AF92BF9281
:10279000CF92DF92EF92FF920F931F93CF93DF932D
:1027A0005C014B013A0129011801E7018C010E5F20
:1027B0001F4FE0902D02F0902E02FC01808161817C
:1027C0004BE32EE00E945F12F501928180E02381AD
:1027D00030E0822B932BF40191838083F501948167
:1027E00080E0258130E0822B932BF301918380835D
:1027F000F501968180E0278130E0822B932BF20156
:1028000091838083F501928580E0238530E0822BDF
:10281000932BF10191838083F501948580E02585D8
:1028200030E0822B932B99838883968580E02785DF
:1028300030E0822B932BF60191838083DF91CF913F
:102840001F910F91FF90EF90DF90CF90BF90AF90CE
:102850009F908F907F906F905F904F903F902F90C0
:1028600008950F93FC01062F808161814BE626E0DD
:102870000E9477130F9108950F93FC01808161816D
:102880004BE627E001E00E9477130F9108950F9324
:10289000FC01062F808161814AE624E00E947713C3
:1028A0000F910895EF920F93FC01E62E80816181D4
:1028B0004BE622E003E00E9417130F91EF9008957A
:1028C000EF920F93FC01E62E808161814CE124E0C0
:1028D00002E00E9417130F91EF900895EF920F936B
:1028E000FC01E62E808161814BE124E002E00E9440
:1028F00017130F91EF900895CF93DF93EC010E948F
:10290000992A81E00E94882A6AE070E080E090E0E5
:102910000E94602D88818823D9F0898161E00E941E
:10292000C82D898161E00E94072ECE010E943C14CF
:1029300064E670E080E090E00E94602DCE0161E0EE
:102940000E94471461E070E080E090E00E94602DFA
:10295000CE0161E00E945214CE0160E00E946E142C
:10296000CE0160E00E946014CE0160E00E9431144C
:10297000DF91CF910895F999FECF72BD61BDF89AAC
:1029800080B50895F999FECF1FBA72BD61BD40BDF3
:102990000FB6F894FA9AF99A0FBE0895CF92DF9283
:1029A000EF92FF920F931F936B017C018091700057
:1029B0008E7F809370008091B0008C7F8093B000F8
:1029C0008091B100877F8093B1008091B6008F7DA8
:1029D0008093B600809170008D7F8093700080910D
:1029E000B10084608093B1008091B1008C7F8093AE
:1029F000B100CA01B90120E034E244E75BE40E947F
:102A0000573620E030E040E85CE30E9457360E94F1
:102A1000F13420E031E0261B370B3093AA032093DA
:102A2000A903C114D104E104F10469F481E090E048
:102A3000A0E0B0E080939E0390939F03A093A00337
:102A4000B093A10308C0C0929E03D0929F03E0926E
:102A5000A003F092A1031093A3030093A2031F917C
:102A60000F91FF90EF90DF90CF9008950F931F93F9
:102A70008A012FE632E143E85AE30E94CE141F9107
:102A80000F9108951092A4031092A5031092A6032B
:102A90001092A7031092A8038091A9039091AA0312
:102AA0008093B200E0E7F0E0808181608083089548
:102AB0008091A4039091A503A091A603B091A703D0
:102AC0000196A11DB11D8093A4039093A503A0932B
:102AD000A603B093A7032091A4033091A5034091CE
:102AE000A6035091A70380919E0390919F03A0910C
:102AF000A003B091A103281739074A075B07B0F07C
:102B00008091A803882391F481E08093A803109218
:102B1000A4031092A5031092A6031092A703E091BC
:102B2000A203F091A30309951092A80308951F92A0
:102B30000F920FB60F9211242F933F934F935F93F1
:102B40006F937F938F939F93AF93BF93EF93FF9375
:102B50008091A9039091AA038093B2000E94581516
:102B6000FF91EF91BF91AF919F918F917F916F9165
:102B70005F914F913F912F910F900FBE0F901F903B
:102B80001895FC01A481B581B783A68380859185C2
:102B9000892B09F01C920895FC01A681B781AD0133
:102BA0004F5F5F4F8481958120853185820F931F10
:102BB0004817590728F46C935783468311961C9243
:102BC00081E090E008956F927F928F929F92AF92F2
:102BD000BF92CF92DF92EF92FF920F931F93DF93FA
:102BE000CF93CDB7DEB760970FB6F894DEBF0FBEB8
:102BF000CDBF7B018C0180E090E0A0ECBFE38D872E
:102C00009E87AF87B88BC801B70120E030E040E075
:102C10005FE30E9457366D837E838F839887E986B2
:102C2000FA860B871C8789859A85AB85BC85898345
:102C30009A83AB83BC8329813A814B815C81559512
:102C400047953795279586E89AE5A7E3BFE5821B68
:102C5000930BA40BB50B89839A83AB83BC838981C7
:102C60009A81AB81BC8189879A87AB87BC8769844D
:102C70007A848B849C84AD84BE84CF84D8886D8113
:102C80007E818F81988529853A854B855C85E9848D
:102C9000FA840B851C850E945736A80197010E9473
:102CA00057369B01AC01C601B5010E94BB339B01A5
:102CB000AC01C401B3010E94573669877A878B87BC
:102CC0009C8789859A85AB85BC85BC01CD016096C2
:102CD0000FB6F894DEBF0FBECDBFCF91DF911F912D
:102CE0000F91FF90EF90DF90CF90BF90AF909F90AB
:102CF0008F907F906F9008952F923F924F925F92A6
:102D00006F927F928F929F92AF92BF92CF92DF92FB
:102D1000EF92FF920F931F93DF93CF93CDB7DEB760
:102D2000CE5BD0400FB6F894DEBF0FBECDBFA796E6
:102D30009FAF8EAFA797AB964CAF5DAF6EAF7FAF37
:102D4000AB97AF960CAF1DAF2EAF3FAFAF97E396EB
:102D5000CCAEDDAEEEAEFFAEE397E7968CAE9DAEA9
:102D6000AEAEBFAEE7978C0104581F4FD8018D91CE
:102D70009D910D90BC91A02DA5968CAF9DAFAEAF4F
:102D8000BFAFA597D8018D919D910D90BC91A02DBD
:102D9000A1968CAF9DAFAEAFBFAFA197F801608198
:102DA000718182819381A796EEACFFACA79720E852
:102DB00030E0E20EF31ED7012D913D914D915C91D3
:102DC0000E94573669A77AA78BA79CA7F801608154
:102DD000718182819381A796CEACDFACA79724E85E
:102DE00030E0C20ED31ED6012D913D914D915C91E4
:102DF0000E9457366DA37EA38FA398A7D8018D910B
:102E00009D910D90BC91A02D6D968CAF9DAFAEAFF6
:102E1000BFAF6D97A7960EAD1FADA79708571F4F71
:102E2000F8012080318042805380D7018D919D919F
:102E30000D90BC91A02D69968CAF9DAFAEAFBFAF8A
:102E40006997D7018D919D910D90BC91A02D6596AC
:102E50008CAF9DAFAEAFBFAF6597D7018D919D9100
:102E60000D90BC91A02D61968CAF9DAFAEAFBFAF62
:102E70006197F60180809180A280B380D7016D9127
:102E80007D918D919C91F801208131814281538106
:102E90000E94573669A37AA38BA39CA3D6018D9178
:102EA0009D910D90BC91A02D2D968CAF9DAFAEAF96
:102EB000BFAF2D97D6018D919D910D90BC91A02D06
:102EC00029968CAF9DAFAEAFBFAF2997F601608159
:102ED000718182819381D8012D913D914D915C91B9
:102EE0000E9457366D8F7E8F8F8F98A3F801608177
:102EF00071818281938120813181428153810E943D
:102F00005736698F7A8F8B8F9C8FC552DF4F6881C0
:102F100079818A819B81CB5DD04020E030E040E028
:102F200050E00E948234882309F425C3C152DF4F48
:102F3000688179818A819B81CF5DD04020E030E03B
:102F400040E050E00E948234882309F414C3CD513C
:102F5000DF4F688179818A819B81C35ED04020E008
:102F600030E040E050E00E948234882309F403C33B
:102F70006D966CAD7DAD8EAD9FAD6D97A20191014B
:102F80000E9457361B012C0161966CAD7DAD8EAD54
:102F90009FAD6197A50194010E9457363B014C01FA
:102FA0002D966CAD7DAD8EAD9FAD2D9729962CAD38
:102FB0003DAD4EAD5FAD29970E945736EB966CAF95
:102FC0007DAF8EAF9FAFEB97C552DF4F68817981A0
:102FD0008A819B81CB5DD0409B01AC010E9457361A
:102FE0007B018C01C152DF4F688179818A819B818D
:102FF000CF5DD0409B01AC010E9457369B01AC01D4
:10300000C801B7010E94BC337B018C01CD51DF4F59
:10301000688179818A819B81C35ED0409B01AC012C
:103020000E9457369B01AC01C801B7010E94BC3316
:103030000E94E3157B018C01C552DF4F68817981C5
:103040008A819B81CB5DD040A80197010E945736B1
:10305000EF966CAF7DAF8EAF9FAFEF97C152DF4F52
:10306000688179818A819B81CF5DD040A8019701D9
:103070000E945736C158DF4F688379838A839B83C8
:10308000CF57D040CD51DF4F688179818A819B81B4
:10309000C35ED040A80197010E945736CD57DF4F3D
:1030A000688379838A839B83C358D04060E070E053
:1030B00080E09FE3EB962CAD3DAD4EAD5FADEB9761
:1030C0000E94BB33298D3A8D4B8D5C8D0E94BB33A2
:1030D000C957DF4F688379838A839B83C758D04061
:1030E000C401B301A20191010E94BB33C557DF4F58
:1030F000688379838A839B83CB58D04069A17AA166
:103100008BA19CA12DA13EA14FA158A50E94BC332B
:10311000C157DF4F688379838A839B83CF58D04020
:10312000EF966CAD7DAD8EAD9FADEF97C957DF4F7C
:10313000288139814A815B81C758D0400E94573627
:103140007B018C01C158DF4F688179818A819B8125
:10315000CF57D040C557DF4F288139814A815B81E5
:10316000CB58D0400E9457369B01AC01C801B70133
:103170000E94BC337B018C01CD57DF4F6881798180
:103180008A819B81C358D040C157DF4F2881398144
:103190004A815B81CF58D0400E9457369B01AC01D9
:1031A000C801B7010E94BC339B01AC010E94BC3333
:1031B0005B016C0169966CAD7DAD8EAD9FAD69977D
:1031C00065962CAD3DAD4EAD5FAD65970E9457360F
:1031D0009B01AC0160E070E080E09FE30E94BB33A4
:1031E000CD56DF4F688379838A839B83C359D04050
:1031F000C401B301A20191010E94BC339B01AC0147
:10320000EF966CAD7DAD8EAD9FADEF970E945736BA
:103210007B018C01CD56DF4F688179818A819B814A
:10322000C359D040298D3A8D4B8D5C8D0E94BB33A4
:103230009B01AC01C158DF4F688179818A819B81F4
:10324000CF57D0400E9457369B01AC01C801B7014F
:103250000E94BC337B018C016D8D7E8D8F8D98A17A
:1032600029A53AA54BA55CA50E94BB339B01AC01E7
:10327000CD57DF4F688179818A819B81C358D040C7
:103280000E9457369B01AC01C801B7010E94BC33B4
:103290009B01AC010E94BC337B018C01C601B501CE
:1032A000A60195010E9457365B016C01C801B70168
:1032B000A80197010E9457369B01AC01C601B501D8
:1032C0000E94BC330E94C4363B014C0169A17AA123
:1032D0008BA19CA12DA13EA14FA158A50E94BB335B
:1032E0001B012C016D8D7E8D8F8D98A129A53AA58E
:1032F0004BA55CA50E94BC33C956DF4F6883798318
:103300008A839B83C759D040CD56DF4F688179812E
:103310008A819B81C359D040EB962CAD3DAD4EAD1B
:103320005FADEB970E94BB33C556DF4F688379834F
:103330008A839B83CB59D040EF966CAD7DAD8EAD2B
:103340009FADEF97A20191010E9457367B018C013E
:10335000C158DF4F688179818A819B81CF57D040E6
:10336000C956DF4F288139814A815B81C759D040D6
:103370000E9457369B01AC01C801B7010E94BC33C3
:103380007B018C01CD57DF4F688179818A819B81D8
:10339000C358D040C556DF4F288139814A815B81AF
:1033A000CB59D0400E9457369B01AC01C801B701F0
:1033B0000E94BC339B01AC010E94BC335B016C01D9
:1033C000C401B301C957DF4F288139814A815B812C
:1033D000C758D0400E9457367B018C01C601B50109
:1033E000A20191010E9457369B01AC01C801B701AF
:1033F0000E94BC33C156DF4F688379838A839B83E5
:10340000CF59D040C401B301C557DF4F288139815E
:103410004A815B81CB58D0400E9457367B018C019A
:10342000C601B501C956DF4F288139814A815B81C8
:10343000C759D0400E9457369B01AC01C801B70163
:103440000E94BC331B012C01C401B301C157DF4FE3
:10345000288139814A815B81CF58D0400E945736FC
:103460007B018C01C601B501C556DF4F288139812A
:103470004A815B81CB59D0400E9457369B01AC01F9
:10348000C801B7010E94BC335B016C01C158DF4F1A
:10349000688179818A819B81CF57D040A6019501AF
:1034A0000E9457367B018C01CD57DF4F68817981AF
:1034B0008A819B81C358D040A20191010E94573656
:1034C0009B01AC01C801B7010E94BB336D8B7E8BA1
:1034D0008F8B988FCD57DF4F688179818A819B814F
:1034E000C358D040C156DF4F288139814A815B8162
:1034F000CF59D0400E9457367B018C01EF966CADBE
:103500007DAD8EAD9FADEF97A60195010E94573618
:103510009B01AC01C801B7010E94BB33698B7A8B58
:103520008B8B9C8BEF966CAD7DAD8EAD9FADEF9789
:10353000A20191010E9457367B018C01C158DF4FD7
:10354000688179818A819B81CF57D040C156DF4FF6
:10355000288139814A815B81CF59D0400E945736FA
:103560009B01AC01C801B7010E94BB336D877E8708
:103570008F87988B16C00F2EF0E0EF2EF0E0FF2E15
:10358000F0E00F2FF0E01F2FF02DED8AFE8A0F8B59
:10359000188FE98AFA8A0B8B1C8BED86FE860F87C3
:1035A000188BE7966CAD7DAD8EAD9FADE79720E0B3
:1035B00030E040E050E00E948234882309F44AC1A0
:1035C000CD52DF4F688179818A819B81C35DD04074
:1035D00020E030E040E050E00E948234882309F48B
:1035E00039C1C952DF4F688179818A819B81C75D6A
:1035F000D04020E030E040E050E00E948234882358
:1036000009F428C1E7966CAD7DAD8EAD9FADE7970F
:103610009B01AC010E9457367B018C01CD52DF4FDC
:10362000688179818A819B81C35DD0409B01AC0117
:103630000E9457369B01AC01C801B7010E94BC3300
:103640007B018C01C952DF4F688179818A819B811E
:10365000C75DD0409B01AC010E9457369B01AC0175
:10366000C801B7010E94BC330E94E3157B018C01A5
:10367000E7966CAD7DAD8EAD9FADE797A801970144
:103680000E945736CD55DF4F688379838A839B83A9
:10369000C35AD040CD52DF4F688179818A819B81A6
:1036A000C35DD040A80197010E945736C955DF4F2E
:1036B000688379838A839B83C75AD040C952DF4F7E
:1036C000688179818A819B81C75DD040A80197017B
:1036D0000E9457363B014C0169A17AA18BA19CA1A4
:1036E0002DA13EA14FA158A50E94BB33C555DF4F68
:1036F000688379838A839B83CB5AD04069A57AA556
:103700008BA59CA52D8D3E8D4F8D58A10E94BC335D
:103710001B012C01A5966CAD7DAD8EAD9FADA5971F
:10372000A1962CAD3DAD4EAD5FADA1970E94573631
:1037300020E030E040E05FE30E94BB33298D3A8D0A
:103740004B8D5C8D0E94BC335B016C01C955DF4F12
:10375000688179818A819B81C75AD040A6019501F1
:103760000E9457367B018C01C401B301A201910173
:103770000E9457369B01AC01C801B7010E94BB33C0
:103780009B01AC016D897E898F89988D0E94BC3325
:103790006D8B7E8B8F8B988FC401B301C555DF4F26
:1037A000288139814A815B81CB5AD0400E945736AB
:1037B0007B018C01CD55DF4F688179818A819B81A6
:1037C000C35AD040A60195010E9457369B01AC0117
:1037D000C801B7010E94BB339B01AC0169897A899A
:1037E0008B899C890E94BC33698B7A8B8B8B9C8BD9
:1037F000CD55DF4F688179818A819B81C35AD04042
:10380000A20191010E9457367B018C01C955DF4FFF
:10381000688179818A819B81C75AD040C555DF4F25
:10382000288139814A815B81CB5AD0400E9457362A
:103830009B01AC01C801B7010E94BB339B01AC01E5
:103840006D857E858F8598890E94BC336D877E87C4
:103850008F87988B6D897E898F89988D20E030E0E5
:1038600040E050E00E948234882309F491C16989C4
:103870007A898B899C8920E030E040E050E00E940A
:103880008234882309F484C16D857E858F8598896B
:1038900020E030E040E050E00E948234882309F4C8
:1038A00077C1A7964EAC5FACA79708E710E0400E33
:1038B000511ED2016D917D918D919C9120E030E05F
:1038C00040E050E00E944C36A7962EAC3FACA79744
:1038D000ECE8F0E02E0E3F1EA7960EAD1FADA797A9
:1038E00000571F4FC554DF4F19830883CB5BD0406F
:1038F000A7962EAD3FADA7972C563F4FC354DF4F31
:1039000039832883CD5BD04018160CF0CDC0D1018F
:103910006D907D908D909C90F2016081718182818B
:1039200093812D893E894F89588D0E9457367B019E
:103930008C01A796EEADFFADA797E056FF4F60E074
:1039400070E080E89FE320813181428153810E94B1
:1039500089345B016C01C801B701A60195010E9481
:1039600057369B01AC01C401B3010E94BC33D101A5
:103970006D937D938D939C931397C554DF4FE8818E
:10398000F981CB5BD040E080F18002811381D201CC
:103990006D917D918D919C9129893A894B895C89A2
:1039A0000E945736A60195010E9457369B01AC0133
:1039B000C801B7010E94BC33C554DF4FE881F981CB
:1039C000CB5BD0406083718382839383C354DF4F8A
:1039D000A881B981CD5BD040ED90FD900D911C91F7
:1039E000F20160817181828193812D853E854F85B1
:1039F00058890E945736A60195010E9457369B01AF
:103A0000AC01C801B7010E94BC33C354DF4FA88189
:103A1000B981CD5BD0406D937D938D939C9313972B
:103A2000F1012081318142815381AB966CAD7DAD36
:103A30008EAD9FADAB970E94BC33AB966CAF7DAFA4
:103A40008EAF9FAFAB97C554DF4FA881B981CB5BD9
:103A5000D0402D913D914D915C91AF966CAD7DAD77
:103A60008EAD9FADAF970E94BC33AF966CAF7DAF6C
:103A70008EAF9FAFAF97C354DF4FE881F981CD5B25
:103A8000D0402081318142815381E3966CAD7DAD80
:103A90008EAD9FADE3970E94BC33E3966CAF7DAFD4
:103AA0008EAF9FAFE3971DC080E090E0A0E0B0E054
:103AB000F10180839183A283B383C554DF4FE881F2
:103AC000F981CB5BD04080839183A283B383C354BD
:103AD000DF4FE881F981CD5BD04080839183A28361
:103AE000B383A7960EAD1FADA7970C581F4FD801F3
:103AF0006D917D918D919C912D893E894F89588D35
:103B00000E9457369B01AC01AB966CAD7DAD8EAD7E
:103B10009FADAB970E94BC33AB966CAF7DAF8EAFC1
:103B20009FAFAB97F8016081718182819381298970
:103B30003A894B895C890E9457369B01AC01AF964C
:103B40006CAD7DAD8EAD9FADAF970E94BC33AF968F
:103B50006CAF7DAF8EAF9FAFAF97D8016D917D9168
:103B60008D919C912D853E854F8558890E945736B1
:103B70009B01AC01E3966CAD7DAD8EAD9FADE3973F
:103B80000E94BC33E3966CAF7DAF8EAF9FAFE397DF
:103B9000A796EEADFFADA797E056FF4F60E070E04F
:103BA00080E89FE320813181428153810E948934E2
:103BB00020E030E040E05FE30E9457367B018C015B
:103BC000AB966CAD7DAD8EAD9FADAB97A801970167
:103BD0000E945736C155DF4F688379838A839B8360
:103BE000CF5AD040AF966CAD7DAD8EAD9FADAF9747
:103BF000A80197010E9457361B012C01E3966CAD7A
:103C00007DAD8EAD9FADE397A80197010E94573619
:103C10003B014C01A796EEADFFADA797E458FF4FCF
:103C2000CD54DF4FF983E883C35BD040E080F1805F
:103C300002811381E986FA860B871C87A796EEAD71
:103C4000FFADA797E058FF4FCB54DF4FF983E883D0
:103C5000C55BD040E080F18002811381ED82FE825D
:103C60000F831887A796EEADFFADA797EC57FF4FD0
:103C7000C954DF4FF983E883C75BD040E080F1800F
:103C800002811381E982FA820B831C83CD54DF4FBA
:103C9000A881B981C35BD040ED90FD900D911C913E
:103CA0002596ECAEFDAE0EAF1FAF2597A796EEADF5
:103CB000FFADA797E857FF4FC754DF4FF983E8835D
:103CC000C95BD040A080B180C280D3806D817E81ED
:103CD0008F8198859058C155DF4F288139814A815D
:103CE0005B81CF5AD0400E9457367B018C0169819D
:103CF0007A818B819C81A20191010E9457369B01A0
:103D0000AC01C801B7010E94BB337B018C01C60125
:103D1000B501A40193010E9457369B01AC01C80173
:103D2000B7010E94BB339B01AC0125966CAD7DAD04
:103D30008EAD9FAD25970E94BC33CD54DF4FA88137
:103D4000B981C35BD0406D937D938D939C93139702
:103D5000CB54DF4FA881B981C55BD040ED90FD9079
:103D60000D911C912196ECAEFDAE0EAF1FAF2197C9
:103D7000C754DF4FE881F981C95BD040A080B18092
:103D8000C280D38069857A858B859C85C155DF4F3C
:103D9000288139814A815B81CF5AD0400E945736B1
:103DA0007B018C0169817A818B819C81A4019301C3
:103DB0000E9457369B01AC01C801B7010E94BC3379
:103DC0007B018C01C601B501A20191010E94573609
:103DD0009B01AC01C801B7010E94BB339B01AC0140
:103DE00021966CAD7DAD8EAD9FAD21970E94BC3309
:103DF000CB54DF4FA881B981C55BD0406D937D93D3
:103E00008D939C931397C954DF4FA881B981C75BE9
:103E1000D040ED90FD900D911C91E9AEFAAE0BAF44
:103E20001CAFC754DF4FE881F981C95BD040A08047
:103E3000B180C280D38069857A858B859C85A201FB
:103E400091010E9457367B018C016D817E818F81AB
:103E50009885A40193010E9457369B01AC01C801CB
:103E6000B7010E94BB337B018C01C601B501C1556E
:103E7000DF4F288139814A815B81CF5AD0400E942F
:103E800057369B01AC01C801B7010E94BC339B01AE
:103E9000AC0169AD7AAD8BAD9CAD0E94BC33C95409
:103EA000DF4FA881B981C75BD0406D937D938D931F
:103EB0009C931397C754DF4FE881F981C95BD040C9
:103EC000A080B180C280D38069857A858B859C85EE
:103ED000A40193010E9457367B018C016D817E8184
:103EE0008F819885A20191010E9457369B01AC01F8
:103EF000C801B7010E94BC337B018C0169817A81C2
:103F00008B819C81C155DF4F288139814A815B813A
:103F1000CF5AD0400E9457369B01AC01C801B7016F
:103F20000E94BB339B01AC01C601B5010E94BC33AA
:103F3000C754DF4FA881B981C95BD0406D937D9391
:103F40008D939C931397CD54DF4FE881F981C35B28
:103F5000D040608171818281938120813181428151
:103F60005381CB54DF4FA881B981C55BD040AD9060
:103F7000BD90CD90DC9013976D907D908D909C902E
:103F8000C954DF4FE881F981C75BD0402080318080
:103F900042805380E080F18002811381EDAAFEAA65
:103FA0000FAB18AFC754DF4FA881B981C95BD040B0
:103FB000ED90FD900D911C911397E9AAFAAA0BAB15
:103FC0001CABED90FD900D911C91EDA6FEA60FA7E8
:103FD00018AB0E9457367B018C01C601B501A401C4
:103FE00093010E9457369B01AC01C801B7010E94A2
:103FF000BC337B018C01C201B1012DA93EA94FA99F
:1040000058AD0E9457369B01AC01C801B7010E9410
:10401000BC337B018C0169A97AA98BA99CA92DA528
:104020003EA54FA558A90E9457369B01AC01C80177
:10403000B7010E94BC330E94E3157B018C01CD5473
:10404000DF4FE881F981C35BD0406081718182815B
:104050009381A80197010E945736CD54DF4FA88164
:10406000B981C35BD0406D937D938D939C931397DF
:10407000CB54DF4FE881F981C55BD040608171810D
:1040800082819381A80197010E945736CB54DF4F5C
:10409000A881B981C55BD0406D937D938D939C932E
:1040A0001397C954DF4FE881F981C75BD040608125
:1040B000718182819381A80197010E945736C9546A
:1040C000DF4FA881B981C75BD0406D937D938D93FD
:1040D0009C931397C754DF4FE881F981C95BD040A7
:1040E0006081718182819381A80197010E94573676
:1040F000C754DF4FA881B981C95BD0406D937D93D0
:104100008D939C931397C254DF4F0FB6F894DEBF84
:104110000FBECDBFCF91DF911F910F91FF90EF9018
:10412000DF90CF90BF90AF909F908F907F906F90D7
:104130005F904F903F902F9008956F927F928F9253
:104140009F92AF92BF92CF92DF92EF92FF920F9326
:104150001F93DF93CF93CDB7DEB72C970FB6F894AC
:10416000DEBF0FBECDBF4C013B0148965E010894F7
:10417000A11CB11CB501AE014D5F5F4F9E012B5FCD
:104180003F4F8E01095F1F4FF9E0EF2EF12CEC0E2F
:10419000FD1EEBE0CE2ED12CCC0EDD1E0E94BE13F8
:1041A0008F819885F40126A537A5821B930B9887EC
:1041B0008F8389859A8520A931A9821B930B9A87C1
:1041C00089878B859C8522A933A9821B930B9C87A9
:1041D0008B876501730100E010E0F60120813181D9
:1041E0000330110544F4B901882777FD8095982F95
:1041F0000E9424350DC0B901882777FD8095982F3E
:104200000E94243523E333E343E851E40E948934D8
:10421000F70160837183828393830F5F1F4F22E0D6
:1042200030E0C20ED31E84E090E0E80EF91E0630A6
:10423000110599F6F40164A975A9882777FD809581
:10424000982F0E9424359B01AC01F301608171819C
:10425000828193810E94BB33F401E05CFF4F208197
:104260003181428153810E948934F30160837183DB
:1042700082839383F40166A977A9882777FD8095C7
:10428000982F0E9424359B01AC01F3016481758154
:10429000868197810E94BB33F401EC5BFF4F208144
:1042A0003181428153810E948934F3016483758393
:1042B00086839783F40160AD71AD882777FD809583
:1042C000982F0E9424359B01AC01F3016085718514
:1042D000828593850E94BB33F401E85BFF4F208108
:1042E0003181428153810E948934F3016087718753
:1042F00082879387B301685E7F4FC4010E941810C4
:10430000F40162AD73AD882777FD8095982F0E94E8
:1043100024359B01AC01F301608D718D828D938DED
:104320000E94BB33F401E45BFF4F20813181428165
:1043300053810E948934F301608F718F828F938F34
:10434000F40164AD75AD882777FD8095982F0E94A4
:1043500024359B01AC01F301648D758D868D978D9D
:104360000E94BB33F401E05BFF4F20813181428129
:1043700053810E948934F301648F758F868F978FE4
:10438000F40166AD77AD882777FD8095982F0E9460
:1043900024359B01AC01F30160A171A182A193A11D
:1043A0000E94BB3324E530E0820E931EF40120818D
:1043B0003181428153810E948934F30160A371A34A
:1043C00082A393A32C960FB6F894DEBF0FBECDBF89
:1043D000CF91DF911F910F91FF90EF90DF90CF90E1
:1043E000BF90AF909F908F907F906F9008952F9285
:1043F0003F924F925F926F927F928F929F92AF9275
:10440000BF92CF92DF92EF92FF920F931F93DF93B1
:10441000CF93CDB7DEB7AA970FB6F894DEBF0FBE25
:10442000CDBF3C017EA36DA3BE016F5F7F4F0E9495
:104430009D200E94FF2C7B018C012CE930E0620E54
:10444000731EF301608371838283938324E63FEFBD
:10445000620E731EA8E9CA2ED12CC60CD71CF60119
:1044600080819181A281B381A8019701281B390B1A
:104470004A0B5B0BCA01B9010E94223520E034E2ED
:1044800044E759E40E9489349B01AC0160E070E08C
:1044900080E89FE30E94893440EA50E0640E751E74
:1044A000F301608371838283938320E63FEF620E82
:1044B000731EF601E082F182028313832DB73EB7AB
:1044C000245130400FB6F8943EBF0FBE2DBF0DB73C
:1044D0001EB70F5F1F4F6D857E858F8598892BEDE9
:1044E0003FE049E450E40E94573620E030E044E3E6
:1044F00053E40E9489346FA378A789A79AA7698992
:104500007A898B899C892BED3FE049E450E40E9435
:10451000573620E030E044E353E40E9489341B0125
:104520002C016D897E898F89988D2BED3FE049E4C0
:1045300050E40E94573620E030E044E353E40E9408
:1045400089346B017C0189809A80AB80BC808D812D
:104550009E81AF81B885F80180839183A283B38364
:1045600089859A85AB85BC8584839583A683B7832B
:10457000898D9A8DAB8DBC8DB05880879187A2872D
:10458000B3878D8D9E8DAF8DB8A1B05884879587E8
:10459000A687B78789A19AA1ABA1BCA1808B918B7B
:1045A000A28BB38BC3014FA158A569A57AA592012F
:1045B00081010E947C162CE730E0620E731EF3012D
:1045C00081919191A191B1913F01EDA1FEA18083D3
:1045D0009183A283B383F30181919191A191B191D0
:1045E0003F01EDA1FEA184839583A683B783F301E8
:1045F00081919191A191B1913F01EDA1FEA180879F
:104600009187A287B387F30180819181A281B381D1
:10461000EDA1FEA184879587A687B7872DB73EB702
:104620002C5E3F4F0FB6F8943EBF0FBE2DBFAA962B
:104630000FB6F894DEBF0FBECDBFCF91DF911F91B3
:104640000F91FF90EF90DF90CF90BF90AF909F9031
:104650008F907F906F905F904F903F902F90089534
:104660002F923F924F925F926F927F928F929F9282
:10467000AF92BF92CF92DF92EF92FF920F931F9370
:10468000DF93CF93CDB7DEB7A6970FB6F894DEBF12
:104690000FBECDBF7E8B6D8BBE016F5F7F4F0E94C3
:1046A000F7216D807E808F8098848D859E85AF8573
:1046B000B889898B9A8BAB8BBC8BA980BA80CB8055
:1046C000DC8029843A844B845C84C401B301298949
:1046D0003A894B895C890E9457367B018C01C6015F
:1046E000B501A20191010E9457369B01AC01C8019E
:1046F000B7010E94BB339B01AC010E94BC336F8B9E
:10470000788F898F9A8FC601B501A40193010E9409
:1047100057367B018C01C201B10129893A894B8945
:104720005C890E9457369B01AC01C801B7010E9409
:10473000BC339B01AC010E94BC336B8F7C8F8D8F8F
:104740009E8FC601B501A60195010E9457367B01D7
:104750008C01C401B301A40193010E9457369B014F
:10476000AC01C801B7010E94BB337B018C01C201BF
:10477000B101A20191010E9457369B01AC01C80111
:10478000B7010E94BB337B018C0169897A898B89CF
:104790009C899B01AC010E9457369B01AC01C8016A
:1047A000B7010E94BC336F8F78A389A39AA3C40179
:1047B000B301A40193010E94BC336BA37CA38DA31E
:1047C0009EA3A20191010E9457367B018C01C60174
:1047D000B50120E030E040E050EC0E9457362989D6
:1047E0003A894B895C890E9457369B01AC01C8010C
:1047F000B7010E94BC331B012C01C601B501A60103
:1048000095010E94BC33A60195010E9457367B0199
:104810008C016BA17CA18DA19EA1A40193010E949A
:1048200057369B01AC01C801B7010E94BC3320E0A0
:1048300030E040E85FE30E94BB339B01AC01C20162
:10484000B1010E942F34AD89BE896D937D938D9304
:104850009C9313976F8D78A189A19AA19B01AC01BC
:104860000E9457367B018C016B8D7C8D8D8D9E8DCA
:104870009B01AC010E945736A80197010E94BC33EE
:104880000E94C4369B01AC016F89788D898D9A8D09
:104890000E9489340E945A34ED89FE8964837583AD
:1048A000868397836F89788D898D9A8D9B01AC0162
:1048B0000E945736A80197010E94BC330E94C4365B
:1048C0009B01AC016B8D7C8D8D8D9E8D0E948934FA
:1048D0000E945A34AD89BE8918966D937D938D934D
:1048E0009C931B97A6960FB6F894DEBF0FBECDBF64
:1048F000CF91DF911F910F91FF90EF90DF90CF90BC
:10490000BF90AF909F908F907F906F905F904F90EF
:104910003F902F9008958F929F92AF92BF92CF9227
:10492000DF92EF92FF920F931F934C015B01AB015B
:104930004E5F5F4F9B012C5F3F4F8B010A5F1F4F04
:10494000FB013896DB011A9648967F016D010E94A3
:10495000BE13A501425F5F4F9501205F3F4FC40129
:104960006CE070E0A60EB71EB5010E9421101F91E9
:104970000F91FF90EF90DF90CF90BF90AF909F90FE
:104980008F9008952F923F924F925F926F927F92F5
:104990008F929F92AF92BF92CF92DF92EF92FF924F
:1049A0000F931F93DF93CF93CDB7DEB766970FB604
:1049B000F894DEBF0FBECDBF1C01442455240F2E3A
:1049C000F0E06F2EF0E07F2EF0E08F2EF0E09F2ED3
:1049D000F02D6401530184017301C101BE016F5FB9
:1049E0007F4F0E948B246F817885882777FD809583
:1049F000982F0E9424359B01AC01C801B7010E9489
:104A0000BC337B018C0169857A85882777FD809589
:104A1000982F0E9424359B01AC01C601B5010E946C
:104A2000BC335B016C016B857C85882777FD8095A5
:104A3000982F0E9424359B01AC01C401B3010E9450
:104A4000BC333B014C010894411C511C83E04816C7
:104A5000510419F6C801B70120E030E040E450E409
:104A60000E9489340E94F134F10177A766A7C6013C
:104A7000B50120E030E040E450E40E9489340E9417
:104A8000F134F10171AB60ABC401B30120E030E05F
:104A900040E450E40E9489340E94F134F10173AB88
:104AA00062AB66960FB6F894DEBF0FBECDBFCF9156
:104AB000DF911F910F91FF90EF90DF90CF90BF900B
:104AC000AF909F908F907F906F905F904F903F90AE
:104AD0002F9008950F931F93CF93DF93082FEB012F
:104AE00010E009C070E0610F711D8DE993E00E9434
:104AF000BB1489931F5F6091AB03101798F3600F8D
:104B00006093AB03DF91CF911F910F910895CF92E6
:104B1000DF92EF92FF920F931F93CF93DF93EC01FD
:104B20008DE993E06AE070E00E94BB148E01005CA6
:104B30001F4F94E4E92EF12CEC0EFD1EB8E4CB2EB1
:104B4000D12CCC0EDD1E8931E9F58BE08093AB03CF
:104B5000E49682E0BE010E946A25229682E0BE01B0
:104B60000E946A25229682E0BE010E946A25229652
:104B700082E0BE010E946A25229682E0BE010E9468
:104B80006A25229682E0BE010E946A2584E0B8016F
:104B90000E946A2584E0B7010E946A2584E0B6017C
:104BA0000E946A252E9684E0BE010E946A25249602
:104BB00084E0BE010E946A25249684E0BE010E9422
:104BC0006A2519C01DAA1CAA1FAA1EAA19AE18AED2
:104BD00080E090E0A0E8BFE3F80180839183A283A6
:104BE000B383F70180839183A283B383F60180832B
:104BF0009183A283B383DF91CF911F910F91FF9097
:104C0000EF90DF90CF900895DF92EF92FF920F9395
:104C10001F93DF93CF93CDB7DEB760970FB6F894AD
:104C2000DEBF0FBECDBF7C01D62E142F65E070E035
:104C300080E090E00E94602D44984598112319F07F
:104C40008CE08093B8008E010F5F1F4FC80161E0B8
:104C50004D2D0E94BA13D7015896F80180E10190BA
:104C60000D928150E1F78701085E1F4FC8010E9435
:104C70007C14C80163E00E946E1465E070E080E07F
:104C800090E00E94602DC70160E00E94DF11C70123
:104C900061E00E94BA10C70160E00E94AD106AE0B6
:104CA00070E080E090E00E94602DC70166E00E9405
:104CB000A410C7010E94C224C7010E9487256096E4
:104CC0000FB6F894DEBF0FBECDBFCF91DF911F911D
:104CD0000F91FF90EF90DF900895462F64E070E011
:104CE0000E9404260895CF92DF92EF92FF920F93D5
:104CF0001F93DF93CF93CDB7DEB7A8970FB6F89485
:104D0000DEBF0FBECDBF6C010E94330FC6014896B7
:104D10000E94B9138E010F5E1F4FC8010E94330F0E
:104D2000D601F80188E101900D928150E1F78E01E2
:104D30000F5F1F4FC8010E94B913D6015896F801A2
:104D400080E101900D928150E1F72CE730E0C20E36
:104D5000D31E0F2EF0E0EF2EF0E0FF2EF0E80F2F25
:104D6000FFE31F2FF02DF601E192F19201931193D1
:104D700080E090E0A0E0B0E081939193A193B193A3
:104D800081939193A193B1936F0180839183A283C7
:104D9000B38320EE3FEFC20ED31EF60181939193B1
:104DA000A193B19381939193A193B19381939193A3
:104DB000A193B193E192F192019311936F012DECC4
:104DC0003CEC4CE45EE3208331834283538324E153
:104DD00030E0C20ED31EF60181939193A193B1935B
:104DE00081939193A193B19381939193A193B19363
:104DF00011921192119211926F01108211821282FE
:104E0000138224EA3FEFC20ED31EF601E192F19223
:104E100001931193E192F19201931193E192F19236
:104E200001931193E192F19201931193E192F19226
:104E300001931193E082F18202831383A8960FB647
:104E4000F894DEBF0FBECDBFCF91DF911F910F91C0
:104E5000FF90EF90DF90CF90089581E08093F10371
:104E60006093CE031092EF031092F003089581E057
:104E70008093F1036093CE031092EF031092F0033E
:104E800008952091CD0330E08091CC03281B310997
:104E9000C90108954091CC038091CD03481718F0C3
:104EA0002FEF3FEF0AC0E42FF0E0E455FC4F808184
:104EB000282F30E04F5F4093CC03C9010895E09163
:104EC000CC038091CD03E81718F0EFEFFFEF06C099
:104ED000F0E0E455FC4F8081E82FF0E0CF01089529
:104EE00008951092F5031092F40388EE93E0A0E089
:104EF000B0E08093F6039093F703A093F803B09388
:104F0000F9038FE392E09093F3038093F203089503
:104F1000CF92DF92EF92FF920F931F93CF93DF9385
:104F20007C016B018A018091F1038823A1F0C0E02C
:104F3000D0E00DC0D701ED91FC91D601AC0FBD1FA3
:104F40000190F081E02DC7016C9109952196C01761
:104F5000D10780F304C0CB01642F0E94BE28C80192
:104F6000DF91CF911F910F91FF90EF90DF90CF9045
:104F70000895DF93CF930F92CDB7DEB7FC0169831D
:104F80008091F1038823C9F08091F003803238F0DA
:104F900081E090E09383828320E030E015C080912F
:104FA000EF03E82FF0E0E153FC4F998190838F5F8E
:104FB0008093EF038093F00305C0CE01019661E07A
:104FC0000E94BE2821E030E0C9010F90CF91DF910F
:104FD00008950F93062F8091CE036FEC73E04091FC
:104FE000F00321E00E9469281092EF031092F00371
:104FF0001092F1030F91089561E00E94E92708954E
:10500000413208F040E2862F6CEA73E00E942028CB
:105010001092CC038093CD03089521E00E940028D4
:10502000089521E00E94002808951092CC03109268
:10503000CD031092EF031092F0030E946A2A0895A4
:10504000382F413210F040E042C08091FE038823A7
:10505000E1F791E09093FE03209300048FEF80939B
:105060006B04109226044150409327044F5F9093A5
:10507000FF038091FF03330F832B8093FF03809105
:105080000104813041F4109201048091FF03809368
:10509000BB0085EC01C085EE8093BC008091FE03CF
:1050A0008130E1F380912604841710F440912604A6
:1050B00020E030E00AC0FB01E20FF31FD901AA5F34
:1050C000BB4F8C9180832F5F3F4F2417A0F3842F19
:1050D00008950F931F93582F122F413210F081E043
:1050E0004AC08091FE038823E1F782E08093FE03AB
:1050F000009300048FEF80936B041092260440937A
:105100002704A6E0B4E0FB0102C081918D938E2FAD
:10511000861B8417D0F31092FF038091FF03550F75
:10512000852B8093FF0380910104813041F410921C
:1051300001048091FF038093BB0085EC01C085EEE4
:105140008093BC00112321F08091FE038230E1F3B3
:1051500080916B048F3F11F480E00DC080916B044F
:10516000803211F482E007C080916B04803311F02B
:1051700084E001C083E01F910F910895482F6132B0
:1051800010F081E008958091FE03843011F082E0F8
:10519000089560934904A8E2B4E0842F9C01F901CA
:1051A00002C081918D938E2F841B8617D0F380E0EF
:1051B00008951F920F920FB60F9211242F933F93D1
:1051C0004F935F936F937F938F939F93AF93BF930F
:1051D000EF93FF938091B90090E0887F90708036C4
:1051E000910509F4F2C081369105CCF5883291051C
:1051F00009F47BC089329105B4F48031910509F43A
:105200006FC0813191053CF4009709F447C10897BC
:1052100009F04FC165C08831910509F466C08097D7
:1052200009F047C182C08034910509F4A4C08134DB
:10523000910544F48033910509F482C0C89709F0C0
:1052400038C189C08035910509F489C08835910538
:1052500009F496C08834910509F02BC1AEC0883995
:10526000910509F413C189399105ECF4883791054A
:1052700009F4ABC0893791054CF48836910509F4DF
:10528000A4C08037910509F014C19FC088389105EA
:1052900009F4FCC08039910509F49DC0803891055E
:1052A00009F007C198C0803B910509F4C6C0813B55
:1052B00091054CF4803A910509F49FC0883A910514
:1052C00009F0F7C0BAC0803C910509F4E3C0883CFE
:1052D000910509F4DFC0883B910509F0EAC0C2C01E
:1052E0008091FF038093BB00CFC0909126048091F2
:1052F0002704981768F490912604E92FF0E0EA5FFC
:10530000FB4F80818093BB009F5F90932604BCC0BD
:1053100080910004882309F44BC085ED8093BC0084
:105320008091BC0084FDFCCFC2C080E280936B04FE
:1053300085ED8093BC008091BC0084FDFCCFB7C09C
:1053400080E380936B0485ED8093BC008091BC006A
:1053500084FDFCCFACC088E380936B049BC080913C
:1053600026049091BB00E82FF0E0EA5FFB4F9083AA
:105370008F5F80932604909126048091270482C039
:10538000809126049091BB00E82FF0E0EA5FFB4F8C
:1053900090838F5F8093260480910004882341F0DE
:1053A00085ED8093BC008091BC0084FDFCCF7FC064
:1053B00081E08093010484EA6EC085ED8093BC0097
:1053C0008091BC0084FDFCCF72C083E08093FE031B
:1053D00010926A0459C080916A04803208F056C065
:1053E00080916A049091BB00E82FF0E0E65BFB4FF0
:1053F00090838F5F80936A0447C080916A048032F3
:1054000030F4E0916A04F0E0E65BFB4F108285ED3A
:105410008093BC008091BC0084FDFCCF1092FE0301
:1054200060916A04E0910404F09105048AE494E038
:1054300070E0099510926A042DC084E08093FE0309
:105440001092480410924904E0910204F091030480
:10545000099580914904882329F481E080934904C7
:105460001092280490914804E92FF0E0E85DFB4F8A
:1054700080818093BB009F5F909348049091480483
:1054800080914904981710F485EC01C085E8809359
:10549000BC000FC085EC8093BC0009C010926B0467
:1054A00085ED8093BC008091BC0084FDFCCF109200
:1054B000FE03FF91EF91BF91AF919F918F917F91EB
:1054C0006F915F914F913F912F910F900FBE0F9071
:1054D0001F9018951092FE0381E0809300041092B3
:1054E000010482E161E00E94072E83E161E00E94F5
:1054F000072EE9EBF0E080818E7F808380818D7FB5
:10550000808388E48093B80085E48093BC0008958C
:105510002CB5382F33702C7F322B3CBD2DB590E04D
:10552000959587959595879581702E7F822B8DBD5A
:1055300008958AE061E00E94072E8AE061E00E94FF
:10554000C82D8CB580618CBD8CB580648CBD8DE020
:1055500061E00E94C82D8BE061E00E94C82D089593
:105560000F931F93CF93DF93BC018230910510F40A
:1055700062E070E0E0911F05F091200540E050E00E
:10558000A0E0B0E024C08081918186179707D0F019
:105590008617970771F482819381109729F01396EB
:1055A0009C938E9312972CC09093200580931F0597
:1055B00027C04115510519F08417950718F4AC015F
:1055C000EF018D01DF01828193819C01F901309708
:1055D000D1F641155105F9F0CA01861B970B8430AD
:1055E000910580F48A819B810115110521F0F80154
:1055F0009383828304C09093200580931F05FE014E
:1056000032962FC0FE01E80FF91F61937193029744
:105610009983888326C08DB79EB788579040209184
:105620002F023091300228173907C8F4AC01421B11
:10563000530B4617570798F0CB01029648175907A6
:1056400070F0820F931F9093300280932F029093FB
:10565000320280933102F9016193719302C0E0E05C
:10566000F0E0CF01DF91CF911F910F910895CF937B
:10567000DF939C01009709F48FC0EC0122971B82F5
:105680001A8260911F05709120056115710581F4E2
:1056900088819981820F931F20912F0230913002CF
:1056A0002817390739F5D0933002C0932F0274C000
:1056B000DB0140E050E0AC17BD0708F1BB83AA83D3
:1056C000FE0121913191E20FF31FAE17BF0779F46C
:1056D0008D919C911197280F391F2E5F3F4F398371
:1056E000288312968D919C9113979B838A834115F1
:1056F000510571F4D0932005C0931F054DC012963B
:105700008D919C911397AD01009711F0DC01D3CFDF
:10571000DA011396DC93CE931297FA01219131911D
:10572000E20FF31FCE17DF0769F488819981280FF4
:10573000391F2E5F3F4FFA01318320838A819B817D
:1057400093838283E0E0F0E0DB0112968D919C91DF
:105750001397009719F0BC01FD01F6CFAB014E5F26
:105760005F4FDB018D919C91840F951F20912F023B
:10577000309130022817390779F4309729F41092C4
:10578000200510921F0502C0138212824250504021
:105790005093300240932F02DF91CF9108956F9282
:1057A0007F928F929F92AF92BF92CF92DF92EF92B1
:1057B000FF920F931F93CF93DF938C01009729F4EF
:1057C000CB010E94B02A8C01B4C08EEFE82E8FEF7F
:1057D000F82EE00EF11E5801A60EB71EAE14BF043F
:1057E00008F4A5C0D7014D915C9111974617570752
:1057F000B8F04530510508F49CC0CA0104978617DB
:10580000970708F496C042505040461B570BF501CD
:10581000419351936D937C93CF010E94372B89C0A4
:105820004B01841A950A3801640E751EA0911F055C
:10583000B0912005CC24DD24E0E0F0E047C0A615BF
:10584000B705A9F5CD91DC911197CE010296881587
:10585000990568F1CE0188199909029612962C9142
:10586000129713963C91059758F0F50122833383E4
:10587000C819D909D183C083D7016D937C9309C01E
:105880004E5F5F4F4C0F5D1FF70151834083C9018D
:10589000FC01C114D10431F0D6011396FC93EE93B0
:1058A000129747C0F0932005E0931F0542C08D91E9
:1058B0009C911197E817F90708F4FC016D01129605
:1058C0008C91129713969C919C01D901109709F025
:1058D000B6CF80912F029091300286159705B1F4D2
:1058E000E617F70798F48DB79EB788579040A8162B
:1058F000B906E8F4B0923002A0922F02B0923202C0
:10590000A0923102F7017183608313C0CB010E9422
:10591000B02AEC01009759F0D7014D915C91B80184
:105920000E947901C8010E94372B8E0102C000E05D
:1059300010E0C801DF91CF911F910F91FF90EF9080
:10594000DF90CF90BF90AF909F908F907F906F909F
:1059500008951F920F920FB60F9211242F933F9329
:105960008F939F93AF93BF93809170049091710434
:10597000A0917204B0917304309174040196A11D3A
:10598000B11D232F2D5F2D3720F02D570196A11D1E
:10599000B11D209374048093700490937104A093BC
:1059A0007204B093730480916C0490916D04A09183
:1059B0006E04B0916F040196A11DB11D80936C041B
:1059C00090936D04A0936E04B0936F04BF91AF9158
:1059D0009F918F913F912F910F900FBE0F901F902D
:1059E00018958FB7F894209170043091710440910C
:1059F0007204509173048FBFB901CA0108959FB713
:105A0000F89420916C0430916D0440916E04509193
:105A10006F0486B5A89B06C08F3F21F02F5F3F4FD4
:105A20004F4F5F4F9FBF542F432F322F2227280FF6
:105A3000311D411D511D82E0220F331F441F551F90
:105A40008A95D1F7B901CA010895789484B5826026
:105A500084BD84B5816084BD85B5826085BD85B512
:105A6000816085BDEEE6F0E0808181608083E1E8C1
:105A7000F0E01082808182608083808181608083F9
:105A8000E0E8F0E0808181608083E1EBF0E08081FC
:105A900084608083E0EBF0E0808181608083EAE7CE
:105AA000F0E0808184608083808182608083808157
:105AB000816080838081806880831092C100089516
:105AC000EF92FF920F931F93CF93DF937B018C0193
:105AD0003FB7F89480916C0490916D04A0916E048E
