:100000000C9420010C9448010C9448010C94480174
:100010000C9448010C9448010C9448010C9448013C
:100020000C9448010C94C5100C9448010C944801A0
:100030000C9448010C9448010C9448010C9448011C
:100040000C94C5230C9448010C94F62A0C94392B7B
:100050000C9448010C9448010C9448010C944801FC
:100060000C9474220C944801084AD73B3BCE016E95
:1000700084BCBFFDC12F3D6C74319ABD56833DDAFF
:100080003D00C77F11BED9E4BB4C3E916BAAAABE0E
:10009000000000803F05A84CCDB2D44EB93836A937
:1000A000020C50B9918688083CA6AAAA2ABE000074
:1000B00000803F000000070002010000030406006A
:1000C0000000000000000001020408102040800130
:1000D000020408102001020408102004040404048F
:1000E00004040402020202020203030303030300E6
:1000F000000000250028002B00000000002400273D
:10010000002A004E414E494E495459494E46CDCCE5
:10011000CC3D0AD7233C17B7D13877CC2B329595F5
:10012000E6241FB14F0A000020410000C8420040F1
:100130001C4620BCBE4CCA1B0E5AAEC59D74004066
:100140007A10F35A00A0724E18090010A5D4E800E6
:1001500000E87648170000E40B54020000CA9A3BFE
:10016000000000E1F5050000809698000000404284
:100170000F000000A0860100000010270000000012
:10018000E803000000006400000000000A00000016
:1001900000000100000000002C76D888DC674F08C2
:1001A00023DFC1DFAE59E1B1B796E5E3E453C63AC8
:1001B000E651997696E8E6C28426EB898C9B62ED3F
:1001C000407C6FFCEFBC9C9F40F2BAA56FA5F490F9
:1001D000055A2AF75C936B6CF9676DC11BFCE0E470
:1001E0000D47FEF520E6B500D0ED902E03009435C6
:1001F00077050080841E080000204E0A000000C819
:100200000C333333330F986E12831141EF8D211469
:10021000893BE65516CFFEE6DB18D1844B381BF739
:100220007C1D901DA4BBE424203284725E228100D8
:10023000C9F124ECA1E53D27D1079221F52BF40764
:1002400011241FBECFEFD8E0DEBFCDBF12E0A0E08B
:10025000B1E0ECE9F9E602C005900D92A435B107D2
:10026000D9F715E0A4E5B2E001C01D92AD31B107A8
:10027000E1F712E0CEE3D2E004C02297FE010E9433
:10028000E92FC833D107C9F70E9447270C94C1341E
:100290000C94000081E080939403809192039091EC
:1002A000930301969093930380939203809192031A
:1002B0009091930364E170E00E94B12F90939303B7
:1002C00080939203089568E270E08CE293E00E94CC
:1002D000852740E056E960E070E08DE694E00E94FA
:1002E000742B84EA93E00E94532161E086E592E05A
:1002F0000E941A154AE451E064E670E080E090E064
:100300000E9464100E94701061E08DE00E94C82479
:100310001092160310921703809113039091140307
:1003200020E030911503231760F4FC0134E0239F93
:10033000E00DF11D112410821182128213822F5FB1
:10034000F0CF0895CF92DF92EF92FF920F931F9319
:10035000CF93DF9386E7C82E83E0D82E94E7E92E6B
:1003600093E0F92E02E713E020E733E04EE653E096
:100370006CE673E08EE692E00E941A0F2CE6E22E05
:1003800023E0F22EF701608171814AE050E08DE6B2
:1003900094E00E946A2969E771E08DE694E00E948A
:1003A00098280EE613E0F801608171814AE050E080
:1003B0008DE694E00E946A2969E771E08DE694E099
:1003C0000E949828C0E7D3E0688179814AE050E034
:1003D0008DE694E00E946A2969E771E08DE694E079
:1003E0000E9498289E01A801B70186E592E00E942C
:1003F000EA0CF701608171814AE050E08DE694E0FB
:100400000E946A2969E771E08DE694E00E949828CD
:10041000F801608171814AE050E08DE694E00E942D
:100420006A2969E771E08DE694E00E949828688166
:1004300079814AE050E08DE694E00E946A298DE6D9
:1004400094E0DF91CF911F910F91FF90EF90DF909B
:10045000CF900C94A128CF92DF92EF92FF926B0184
:100460007C0180910001882309F472C06AE071E088
:100470008DE694E00E9498286DE171E08DE694E0AD
:100480000E94982822E030E0B701A6018DE694E0B2
:100490000E945D2A62E271E08DE694E00E94982855
:1004A00021EE3EE245E652E460915C0370915D030B
:1004B00080915E0390915F030E94DE2EAB01BC0130
:1004C00022E030E08DE694E00E945D2A68E271E06F
:1004D0008DE694E00E94982821EE3EE245E652E443
:1004E0006091600370916103809162039091630356
:1004F0000E94DE2EAB01BC0122E030E08DE694E0EC
:100500000E945D2A6EE271E08DE694E00E949828D8
:1005100021EE3EE245E652E460916403709165038A
:1005200080916603909167030E94DE2EAB01BC01AF
:1005300022E030E08DE694E00E945D2A69E771E0F8
:100540008DE694E0FF90EF90DF90CF900C94B5286B
:10055000FF90EF90DF90CF9008958F929F92AF928F
:10056000BF92CF92DF92EF92FF920F931F93CF93A0
:10057000DF93CDB7DEB7C559D1090FB6F894DEBF0A
:100580000FBECDBF4B015C01C058DF4F19821882EE
:10059000C058D04084E292E0C258DF4F99838883EC
:1005A000CE57D0407E0181E5E80EF11CCE57DF4FDB
:1005B000F982E882C258D04089E190E0CA57DF4F03
:1005C00099838883C658D040CE0182589F4F0E949D
:1005D000081164E371E0CE0182589F4F0E94982871
:1005E000C501B4010E94812D4AE050E0CE0182583D
:1005F0009F4F0E946A296CE371E0CE0182589F4FA1
:100600000E949828F70101900020E9F7EE19FF09F0
:100610003297D7011196C12CD12CCD018E199F098B
:100620008E179F0738F48D91992787FD9095C826DE
:10063000D926F3CF90E1C916D10434F460E3CE019A
:1006400082589F4F0E949A2840E150E0B601CE01A7
:1006500082589F4F0E946A29B7018DE694E00E945C
:10066000B52820E030E0A901609134037091350392
:1006700080913603909137030E94122D882309F44C
:1006800033C1E8961FAE1EAEE89784E292E0E6968C
:100690009FAF8EAFE697CE0101967C01EA969FAFA1
:1006A0008EAFEA978DE290E0EE969FAF8EAFEE9719
:1006B000CE018C589F4F0E94081162E471E0CE0178
:1006C0008C589F4F0E949828209134033091350315
:1006D0004091360350913703C501B4010E944B2C61
:1006E0008E0101571F4F21E043E00E941030B801F6
:1006F000CE018C589F4F0E9498286AE471E0CE0189
:100700008C589F4F0E949828F70101900020E9F72C
:10071000EE19FF093297DE011296C12CD12CCD01C2
:100720008E199F098E179F0738F48D91992787FDA1
:100730009095C826D926F3CF90E1C916D10434F498
:1007400060E3CE018C589F4F0E949A2840E150E010
:10075000B601CE018C589F4F0E946A29B7018DE6E1
:1007600094E00E94B528C0903403D0903503E09007
:100770003603F090370320E030E0A901C701B6014D
:100780000E94D32E181624F0F7FAF094F7F8F0949C
:100790008E0108571F4F21E043E0C701B6010E94B8
:1007A0001030AE961FAE1EAEAE9784E292E0AC96CD
:1007B0009FAF8EAFAC977E018EE2E80EF11CE09603
:1007C000FFAEEEAEE09783E290E0E4969FAF8EAF8F
:1007D000E497CE0186599F4F0E9408116EE471E0A4
:1007E000CE0186599F4F0E94982822E030E0B50143
:1007F000A401CE0186599F4F0E945D2A69E771E0EE
:10080000CE0186599F4F0E949828B801CE01865983
:100810009F4F0E94982820E030E0A90160913403A6
:100820007091350380913603909137030E94122D09
:1008300087FF03C066E571E002C06AE571E0CE01A2
:1008400086599F4F0E949828BE0168577F4FCE015E
:1008500086599F4F0E94982820E030E0A9016091BE
:1008600034037091350380913603909137030E94D1
:10087000122D87FF03C06EE571E002C062E671E0F1
:10088000CE0186599F4F0E949828F70101900020C1
:10089000E9F7EE19FF093297DE019F96C12CD12CA2
:1008A000CD018E199F098E179F0738F48D919927D6
:1008B00087FD9095C826D926F3CF90E1C916D104BB
:1008C00034F460E3CE018C589F4F0E949A2840E197
:1008D00050E0B601CE0186599F4F0E946A29B701A8
:1008E0008DE694E00E94B528CB56DF4F0FB6F89402
:1008F000DEBF0FBECDBFDF91CF911F910F91FF9053
:10090000EF90DF90CF90BF90AF909F908F90089521
:10091000EF92FF920F931F93CF93DF93CDB7DEB784
:10092000C056D1090FB6F894DEBF0FBECDBF2696D4
:100930001FAE1EAE269784E292E024969FAF8EAF44
:100940002497CE0101967C0128969FAF8EAF289701
:1009500081E490E02C969FAF8EAF2C97CE018E5BFA
:100960009F4F0E94081166E671E0CE018E5B9F4F9B
:100970000E94982821EE3EE245E652E46091600331
:100980007091610380916203909163030E94DE2E57
:100990008E01065A1F4F21E043E00E941030B8013B
:1009A000CE018E5B9F4F0E94982860E771E0CE01D8
:1009B0008E5B9F4F0E94982821EE3EE245E652E46E
:1009C0006091640370916503809166039091670361
:1009D0000E94DE2E8E010D5A1F4F21E043E00E943F
:1009E0001030B801CE018E5B9F4F0E9498286BE7B4
:1009F00071E0CE018E5B9F4F0E94982821EE3EE26F
:100A000045E652E4609168037091690380916A033E
:100A100090916B030E94DE2E8E01045B1F4F21E03C
:100A200043E00E941030B801CE018E5B9F4F0E94C0
:100A3000982866E871E0CE018E5B9F4F0E9498284F
:100A4000F70101900020E9F7EE19FF093297DE0166
:100A5000129600E010E0CD018E199F098E179F07B6
:100A600038F48D91992787FD909508271927F3CFA2
:100A70000031110534F460E3CE018E5B9F4F0E947C
:100A80009A2840E150E0B801CE018E5B9F4F0E9452
:100A90006A29B7018DE694E00E94B528C05ADF4F5D
:100AA0000FB6F894DEBF0FBECDBFDF91CF911F917F
:100AB0000F91FF90EF9008954F925F926F927F9207
:100AC0008F929F92AF92BF92CF92DF92EF92FF925E
:100AD000CF93DF93CDB7DEB72C970FB6F894DEBF78
:100AE0000FBECDBF8090640390906503A090660315
:100AF000B0906703B7FAB094B7F8B094C501B401E9
:100B00000E94162D6B017C01C501B4010E94412F8A
:100B100069837A838B839C838090600390906103C8
:100B2000A0906203B0906303C501B4010E94162D2A
:100B30002B013C01C501B4010E94412F4B015C0116
:100B40008091540390915503A0915603B09157039F
:100B50008D839E83AF83B88780915803909159030A
:100B6000A0915A03B0915B0389879A87AB87BC87B2
:100B700020915003309151034091520350915303FF
:100B8000C301B2010E94DE2E2B013C0129813A8172
:100B90004B815C816D817E818F8198850E94DE2EE4
:100BA000A50194010E94DE2E9B01AC01C301B2019C
:100BB0000E944C2C2B013C01A701960169857A8586
:100BC0008B859C850E94DE2EA50194010E94DE2E5D
:100BD0009B01AC01C301B2010E944C2C4B015C0192
:100BE000B7FAB094B7F8B094A70196016D817E81F1
:100BF0008F8198850E94DE2E6B017C0129813A81CC
:100C00004B815C8169857A858B859C850E94DE2E6F
:100C10009B01AC01C701B6010E944B2C9058A50165
:100C200094010E94BF2C60936803709369038093C2
:100C30006A0390936B032C960FB6F894DEBF0FBE39
:100C4000CDBFDF91CF91FF90EF90DF90CF90BF901D
:100C5000AF909F908F907F906F905F904F9008958E
:100C6000CF93DF9300D000D0CDB7DEB7FC0149832E
:100C70005A836B837C8383816281208131818617D3
:100C8000C8F491E0980F9383D90194E0899FA00D57
:100C9000B11D112449815A816B817C814D935D93F3
:100CA0006D937C93139784818F5F63810E94A52F3E
:100CB000948313C084818F5F0E94A52F9483F901D0
:100CC00084E0989FE00DF11D112489819A81AB8108
:100CD000BC8180839183A283B3830F900F900F9088
:100CE0000F90DF91CF9108952EEA3BEB49E75DE34A
:100CF00060914C0370914D0380914E0390914F038E
:100D00000E94DE2E21EE3EE245E652E40E94DE2EF7
:100D1000AB01BC0170588AEF92E00C943006CF9280
:100D2000DF92EF92FF920F931F93CF93DF9300D048
:100D300000D0CDB7DEB76C0119821A821B821C82EB
:100D4000DC0112960C91E12CF12C10E01017C1F08F
:100D5000D601ED91FC91EE0DFF1D20813181428184
:100D6000538169817A818B819C810E944C2C69839B
:100D70007A838B839C831F5FB4E0EB0EF11CE6CF7C
:100D8000C980DA80EB80FC80612F70E080E090E029
:100D90000E94B42D9B01AC01C701B6010E94192D20
:100DA00069837A838B839C8369817A818B819C811F
:100DB0000F900F900F900F90DF91CF911F910F9197
:100DC000FF90EF90DF90CF900895EF92FF920F93F6
:100DD0001F93CF93DF93CDB7DEB7AA970FB6F894E2
:100DE000DEBF0FBECDBF1D8E1C8E84E292E09B8FB6
:100DF0008A8FCE0101967C019F8F8E8F89E190E0D2
:100E00009BA38AA3CE014A960E94081169E971E06A
:100E1000CE014A960E9498288AEF92E00E948F069F
:100E20008E010C5D1F4F21E043E00E941030B8019D
:100E3000CE014A960E94982861EA71E0CE014A9656
:100E40000E949828F70101900020E9F7EE19FF09A8
:100E50003297DE01129600E010E0CD018E199F0955
:100E60008E179F0738F48D91992787FD9095082755
:100E70001927F3CF003111052CF460E3CE014A9617
:100E80000E949A2840E150E0B801CE014A960E94A3
:100E90006A29B7018DE694E00E94B528AA960FB69C
:100EA000F894DEBF0FBECDBFDF91CF911F910F91A0
:100EB000FF90EF900895CF92DF92EF92FF92809192
:100EC0003303882319F00E94A20164C08091940327
:100ED000882309F45FC062E873E086E592E00E942F
:100EE000461E809192039091930380FD1CC068E39D
:100EF00073E086E592E00E94C8126CE573E086E537
:100F000092E00E945D1F0E945C050E947406409161
:100F100068035091690360916A0370916B0383E1E8
:100F200093E00E943006809192039091930365E0D4
:100F300070E00E94B12F892B69F583E193E00E9454
:100F40008F0621EE3EE245E652E40E94DE2E6B0162
:100F50007C0120E030E0A9010E94122D87FF0AC029
:100F600020E030E044EB53E4C701B6010E944C2C72
:100F70006B017C01C701B6010E942B028091010127
:100F8000882341F0C701B6010E94AD020E94E50628
:100F90000E94880410929403FF90EF90DF90CF900E
:100FA000089568EF71E08CE293E00E94C22788E127
:100FB00093E0909314038093130325E0209315038B
:100FC00010921603109217038FEF92E09093FB029A
:100FD0008093FA022093FC021092FD021092FE020E
:100FE00086E592E00C9413118CE293E00C94542764
:100FF0008F929F92AF92BF92CF92DF92EF92FF9229
:101000000F931F93CF93DF9300D000D01F92CDB7E3
:10101000DEB70DB71EB769E771E00E943D306C0185
:10102000009709F4FBC1FC0101900020E9F79F0142
:10103000215031095901A81AB90A34E0A316B104A4
:1010400008F4ECC1F6018081950124503109490171
:10105000EDB6FEB6833209F0A8C044E050E0B60118
:10106000CE0101960E945B301D8235E0A31AB108C3
:101070008DB79EB7881999090FB6F8949EBF0FBE19
:101080008DBFEDB7FEB731964F01B6016B5F7F4F55
:10109000A501CF010E944230F401EA0DFB1D108230
:1010A00065EA71E0CE0101960E944B30892B19F45C
:1010B00081E0809333036AEA71E0CE0101960E94D9
:1010C0004B30892B11F4109233036FEA71E0CE019B
:1010D00001960E944B30892B19F481E08093000126
:1010E00064EB71E0CE0101960E944B30892B11F424
:1010F0001092000169EB71E0CE0101960E944B3025
:10110000892B19F481E0809301016EEB71E0CE012F
:1011100001960E944B30892B11F41092010163EC6F
:1011200071E0CE0101960E944B30892B09F06CC111
:101130008DE694E00E945F2A84973CF468EC71E0AD
:101140008DE694E00E949828F3CF49E16AE070E0D0
:1011500085E993E00E94F80F4BE0C42ED12C8DE678
:1011600094E00E948C2A482FB60185E993E00E9402
:10117000F80FFFEFCF1ADF0A2FE2C216D10479F77A
:1011800061E08DE00E94012568EE73E080E090E070
:101190000E943E2460E08DE00E9401256AEC71E02F
:1011A0008DE694E00E94B5282FC143E050E0B601DF
:1011B000CE0101960E945B301C8233E0A31AB10875
:1011C0008DB79EB78A199B090FB6F8949EBF0FBEC4
:1011D0008DBFEDB7FEB731965F01B6016C5F7F4FF3
:1011E000A401CF010E944230F501E80DF91D1082E3
:1011F00066EE71E0CE0101960E944B30892B59F4C6
:10120000C5010E943130609334037093350380939D
:1012100036039093370364EC71E0CE0101960E948F
:101220004B30892B09F0F0C06AEE71E08DE694E056
:101230000E94982860918A0270918B024AE050E0E7
:101240008DE694E00E946A2969E771E08DE694E0FA
:101250000E94982860918C0270918D024AE050E0C3
:101260008DE694E00E946A2969E771E08DE694E0DA
:101270000E94982860918E0270918F024AE050E09F
:101280008DE694E00E946A2967EF71E08DE694E0B4
:101290000E94982869EF71E08DE694E00E949828FA
:1012A00060919002709191024AE050E08DE694E0E6
:1012B0000E946A2969E771E08DE694E00E9498280F
:1012C00060919202709193024AE050E08DE694E0C2
:1012D0000E946A2969E771E08DE694E00E949828EF
:1012E00060919402709195024AE050E08DE694E09E
:1012F0000E946A2967EF71E08DE694E00E949828C9
:1013000067E072E08DE694E00E9498284091960292
:1013100050919702609198027091990222E030E01A
:101320008DE694E00E945D2A69E771E08DE694E025
:101330000E94982840919A0250919B0260919C02D1
:1013400070919D0222E030E08DE694E00E945D2ADB
:1013500069E771E08DE694E00E94982840919E0232
:1013600050919F026091A0027091A10222E030E0B2
:101370008DE694E00E945D2A67EF71E08DE694E0CF
:101380000E94982863E172E08DE694E00E9498281C
:101390004091A2025091A3026091A4027091A50213
:1013A00022E030E08DE694E00E945D2A69E771E07A
:1013B0008DE694E00E9498284091A6025091A702E1
:1013C0006091A8027091A90222E030E08DE694E0DD
:1013D0000E945D2A69E771E08DE694E00E949828FA
:1013E0004091AA025091AB026091AC027091AD02A3
:1013F00022E030E08DE694E00E945D2A67EF71E024
:101400008DE694E00E9498280FB6F894FEBE0FBEB9
:10141000EDBE69E771E080E090E0FFCD0FB6F89493
:101420001EBF0FBE0DBF0F900F900F900F900F902B
:10143000DF91CF911F910F91FF90EF90DF90CF90B0
:10144000BF90AF909F908F900895CF92DF92EF92D0
:10145000FF920F931F93CF93DF93CDB7DEB7EDB617
:10146000FEB68DE694E00E945F2A892BC1F18DE6DD
:1014700094E00E948C2A182F682F8CE293E00E943F
:101480001D281A3071F7CDB6DEB640913003509169
:1014900031034F5F5F4F8DB79EB7841B950B0FB61F
:1014A000F8949EBF0FBE8DBF0DB71EB70F5F1F4FC5
:1014B00020E030E0B8018CE293E00E9430286CE23A
:1014C000C8010E94F80768EF71E08CE293E00E9487
:1014D000D9270FB6F894DEBE0FBECDBEC2CF0FB671
:1014E000F894FEBE0FBEEDBEDF91CF911F910F911C
:1014F000FF90EF90DF90CF900895DC01ED91FC918B
:101500000190F081E02D0994FC0140E050E060E89A
:101510007FE340835183628373834483558366836F
:101520007783408751876287738708951F93CF938E
:10153000DF931F92CDB7DEB7162F6EE170E084EA1D
:1015400093E049830E947A21612F84EA93E00E940C
:1015500014214981642F84EA93E00E94142184EAD3
:1015600093E00F90DF91CF911F910C948F21462F24
:1015700062E00E94960A64E670E080E090E00C94DD
:101580003E24633010F40C94B70A08951F93CF9350
:10159000DF93EC01162F65E070E080E090E00E94A0
:1015A0003E24112321F060E0CE010E94B70A40E7FB
:1015B00060E0CE010E94960A40EA61E0CE010E94FE
:1015C000960A40E062E0CE01DF91CF911F910C942A
:1015D000960A673030F4462F440F440F60E00C94B5
:1015E000960A0895683038F4462F4295440F407E9D
:1015F00061E00C94960A0895DF92EF92FF920F93A8
:101600001F93CF93DF937B01EA0189016EE170E0C4
:1016100084EA93E00E947A2163E070E084EA93E038
:101620000E947D0A84EA93E00E948F216EE170E0BF
:1016300084EA93E00E947A2146E050E06EE170E097
:1016400084EA93E00E946D2184EA93E00E94BC202A
:10165000069779F584EA93E00E94C420D82E84EAA4
:1016600093E00E94C420FD2DE0E08E2B9F2BF7011C
:101670009183808384EA93E00E94C420F82E84EA58
:1016800093E00E94C4207F2D60E0862B972BF80109
:101690009183808384EA93E00E94C420182F84EA17
:1016A00093E00E94C420312F20E0822B932B99835A
:1016B000888384EA93E0DF91CF911F910F91FF908F
:1016C000EF90DF900C948F21AF92BF92CF92DF9278
:1016D000EF92FF920F931F93CF93DF9300D000D030
:1016E00000D0CDB7DEB78C015B016A0179019E01A4
:1016F0002F5F3F4FAE014D5F5F4FBE016B5F7F4F6E
:101700000E94FC0A6D817E81882777FD8095982F45
:101710000E94B42DF80120813181428153810E94C1
:10172000192DF50160837183828393836B817C81A2
:10173000882777FD8095982F0E94B42DF801248189
:101740003581468157810E94192DF601608371838E
:101750008283938369817A81882777FD8095982F8A
:101760000E94B42DF80120853185428553850E9461
:10177000192DF701608371838283938326960FB6B8
:10178000F894DEBF0FBECDBFDF91CF911F910F91B7
:10179000FF90EF90DF90CF90BF90AF9008952F9281
:1017A0003F924F925F926F927F928F929F92AF92F1
:1017B000BF92CF92DF92EF92FF920F931F93CF933E
:1017C000DF93CDB7DEB766970FB6F894DEBF0FBED6
:1017D000CDBF3C01162F80E090E0A0E8BFE3F3010D
:1017E00080839183A283B38384839583A683B78305
:1017F00080879187A287B38741E160E0C3010E949F
:10180000960A612FC3010E94F20A0AE010E01F86C7
:10181000188A198A1A8A1D861E86812C912CA12C61
:10182000B12CC12CD12C61E0C3010E94B70A9E01EA
:101830002F5F3F4FAE014B5F5F4FBE01675F7F4F32
:10184000C3010E94640BE984FA842B843C849501D3
:10185000A601B701C1010E94D32E181614F075011C
:101860001601CD80DE804F8058842D853E85A401F1
:10187000B601C2010E94D32E18161CF0CD84DE845E
:10188000240189809A80AB80BC802F853889498962
:101890005A89B401C5010E94D32E181624F08F84F2
:1018A0009888A988BA88015011090115110551F0CD
:1018B0008F86988AA98ABA8ACD86DE864201570128
:1018C0006101B1CF8D869E86AF86B88AC98ADA8AD1
:1018D0004B8A5C8A87012D8A3E8A20E030E0A9018C
:1018E000B701C1010E94D32E181624F0E12CF12C6F
:1018F000212C312C9701A101B601C2010E94D32EE7
:10190000181614F0670121019601A201B401C50166
:101910000E94D32E181614F046015201C801AD8959
:10192000BE89F30184879587A687B78789899A89B5
:10193000AB89BC89808B918BA28BB38B8D859E8567
:10194000AF85B889848B958BA68BB78B98014D8911
:101950005E89B401C5010E94192DF3016083718372
:101960008283938329893A894B895C89B401C501B3
:101970000E94192DF30164837583868397832D85D7
:101980003E854F855889B401C5010E94192DF30188
:10199000608771878287938740E160E0C3010E947E
:1019A000960A66960FB6F894DEBF0FBECDBFDF91E4
:1019B000CF911F910F91FF90EF90DF90CF90BF904C
:1019C000AF909F908F907F906F905F904F903F90DF
:1019D0002F900895CF92DF92EF92FF920F931F9373
:1019E000CF93DF93CDB7DEB72C970FB6F894DEBF59
:1019F0000FBECDBF6B017A0189019E012F5F3F4F62
:101A0000AE014B5F5F4FBE01675F7F4F0E94640B6B
:101A100020E030E040E05FE369857A858B859C8536
:101A20000E944C2C0E94812DF6017183608320E07E
:101A300030E040E05FE36D817E818F8198850E9478
:101A40004C2C0E94812DF7017183608320E030E0EF
:101A500040E05FE369817A818B819C810E944C2CFC
:101A60000E94812DF801718360832C960FB6F89443
:101A7000DEBF0FBECDBFDF91CF911F910F91FF90C1
:101A8000EF90DF90CF9008959B01285F3F4FAB010F
:101A90004C5F5F4F0C94640B8EBD0DB407FEFDCF01
:101AA0008EB50895DF92EF92FF920F931F93CF931D
:101AB000DF93F62EC42FE22E81111AC084EA93E040
:101AC0000E9470216C2F84EA93E00E941421F02E72
:101AD000E8018C2F8F198E1530F4699184EA93E018
:101AE0000E941421F6CF84EA93E00E948F2115C052
:101AF00060E08F2D0E9401258C2F0E944C0DD02E6E
:101B0000E8018C2F8D198E1520F489910E944C0DBF
:101B1000F8CF61E08F2D0E94012581E0DF91CF9108
:101B20001F910F91FF90EF90DF9008950F931F93F7
:101B3000CF93DF931F92CDB7DEB729838E010F5F5E
:101B40001F4F21E00E94520D0F90DF91CF911F9106
:101B50000F9108954F925F926F927F928F929F9212
:101B6000AF92BF92CF92DF92EF92FF920F931F93AB
:101B7000CF93DF93B62EC42FD22E811154C084EAA6
:101B800093E00E9470216C2F84EA93E00E9414215C
:101B900084EA93E00E948F216B2D84EA93E00E94F7
:101BA00070214D2D6B2D84EA93E00E946A210E94E2
:101BB0000F244B015C01C12C2701612C712C84EA9C
:101BC00093E00E94BC20892B09F447C0E114F10482
:101BD00009F447C00E940F24681979098A099B09F2
:101BE0006415750586059705E0F10E940F246819B4
:101BF00079098A099B09870120E030E060177107A5
:101C00008207930758F08D2D90E02C2D332727FD68
:101C100030952817390714F4CC24CA9484EA93E049
:101C20000E948F212AC060E08B2D0E9401258C2FFD
:101C300080680E944C0DF02EC02FD12F8C2F8F1951
:101C40008D1528F480E00E944C0D8993F7CFCD2CA0
:101C500061E08B2D0E94012510C0E114F104F1F226
:101C6000C4CFE801CC0DD11DC7FCDA9584EA93E01E
:101C70000E94C4208883C394A2CF8C2DDF91CF9182
:101C80001F910F91FF90EF90DF90CF90BF90AF909A
:101C90009F908F907F906F905F904F900895EF92FC
:101CA000FF920F931F937801890121E00E94AA0DF2
:101CB0001F910F91FF90EF900895BF92CF92DF9206
:101CC000EF92FF920F931F93CF93DF931F92CDB7A5
:101CD000DEB7F82EE62ED42EC22EB02E00910201D1
:101CE000109103019E012F5F3F4F0E944F0E89818B
:101CF000E1E0F0E00C2C01C0EE0F0A94EAF7BB2003
:101D000019F0282F2E2B03C02E2F2095282329834E
:101D10004D2D6E2D8F2D0E94960D0F90DF91CF913E
:101D20001F910F91FF90EF90DF90CF90BF9008959B
:101D3000AF92BF92CF92DF92EF92FF920F931F93D9
:101D4000CF93DF931F92CDB7DEB7D82EC62EB42E19
:101D5000A22EF02E00910201109103019E012F5F2F
:101D60003F4F0E944F0E8823B9F1AA2DB0E00F2DEE
:101D700010E0F12CE8E0F0E0CF01801B910B02C0F5
:101D8000EE0CFF1C8A95E2F7FF2427E030E02A1BC7
:101D90003B0B02C0F594E7942A95E2F7EA1BFB0B94
:101DA000E00FF11F31970FEF10E0C80102C09595C9
:101DB0008795EA95E2F7119601C0000FAA95EAF718
:101DC000282F202B898128232E2929834B2D6C2D08
:101DD0008D2D0E94960D01C080E00F90DF91CF9174
:101DE0001F910F91FF90EF90DF90CF90BF90AF9039
:101DF00008950895FC01608341830895EF920F9345
:101E0000E62E02E024E04BE1FC01618180810E942A
:101E1000980E0F91EF900895EF920F93E62E02E047
:101E200024E04CE1FC01618180810E94980E0F91B9
:101E3000EF9008952F923F924F925F926F927F9210
:101E40008F929F92AF92BF92CF92DF92EF92FF92CA
:101E50000F931F93CF93DF93EC015B014A0129019C
:101E600038011701E0900201F09003018C010E5F30
:101E70001F4F2EE04BE3698188810E94AA0D8A8161
:101E800090E0982F88272B81822BF5019183808306
:101E90008C8190E0982F88272D81822BF4019183EB
:101EA00080838E8190E0982F88272F81822BF201EA
:101EB000918380838A8590E0982F88272B85822BB9
:101EC000F301918380838C8590E0982F88272D855E
:101ED000822BF101918380838E8590E0982F882753
:101EE0002F85822BF60191838083DF91CF911F9103
:101EF0000F91FF90EF90DF90CF90BF90AF909F90A9
:101F00008F907F906F905F904F903F902F900895AB
:101F10000F93062F24E04AE6FC01618180810E9434
:101F20005D0E0F9108950F9301E027E04BE6FC0151
:101F3000618180810E945D0E0F9108950F93062F9D
:101F400026E04BE6FC01618180810E945D0E0F91CD
:101F50000895EF920F93E62E03E022E04BE6FC019A
:101F6000618180810E94980E0F91EF900895CF9328
:101F7000DF93EC010E94A12381E00E94B7236AE075
:101F800070E080E090E00E943E2488818823D9F0B0
:101F900061E089810E94C82461E089810E94012555
:101FA000CE010E94930F64E670E080E090E00E9412
:101FB0003E2461E0CE010E94880F61E070E080E085
:101FC00090E00E943E2461E0CE010E94A90F60E0F3
:101FD000CE010E94FE0E60E0CE010E940C0F60E078
:101FE000CE01DF91CF910C949E0FCB010C949130D8
:101FF000CB01642F0C949930CF92DF92EF92FF9235
:102000000F931F936B017C01CA01B90120917000ED
:102010002E7F209370002091B0002C7F2093B00081
:102020002091B100277F2093B1002091B6002F7D31
:102030002093B600209170002D7F20937000209196
:10204000B10024602093B1002091B1002C7F209337
:10205000B10020E034E244E75BE40E94DE2E20E0A1
:1020600030E040E85CE30E94DE2E0E94812D20E0FB
:1020700031E0261B370B3093970320939603C1144E
:10208000D104E104F10469F481E090E0A0E0B0E063
:1020900080939F039093A003A093A103B093A20306
:1020A00008C0C0929F03D092A003E092A103F092D7
:1020B000A20310939E0300939D031F910F91FF9025
:1020C000EF90DF90CF9008950F931F938A012FE632
:1020D00032E143E85AE30E94FC0F1F910F910895EB
:1020E0001092990310929A0310929B0310929C03F2
:1020F0001092980380919603909197038093B20079
:10210000E0E7F0E080818160808308958091990309
:1021100090919A03A0919B03B0919C030196A11DFD
:10212000B11D8093990390939A03A0939B03B0935E
:102130009C034091990350919A0360919B03709185
:102140009C0380919F039091A003A091A103B09163
:10215000A203481759076A077B07B0F080919803DC
:10216000811112C081E0809398031092990310921C
:102170009A0310929B0310929C03E0919D03F091AF
:102180009E0309951092980308951F920F920FB61F
:102190000F9211242F933F934F935F936F937F93ED
:1021A0008F939F93AF93BF93EF93FF938091960389
:1021B000909197038093B2000E948610FF91EF9157
:1021C000BF91AF919F918F917F916F915F914F914F
:1021D0003F912F910F900FBE0F901F901895FC010B
:1021E000A681B7819D012F5F3F4F848195814085F6
:1021F0005185840F951F2817390738F437832683B4
:102200006C930680F781E02D108281E090E00895C4
:10221000FC01A481B581B783A68380859185892B34
:1022200009F01C920895EF92FF920F931F93CF93A2
:10223000DF93CDB7DEB768970FB6F894DEBF0FBE59
:10224000CDBF7C010E94840A8701085E1F4FC80130
:102250000E94F90ECE0101960E94840A88E1FE01D7
:102260003196D70101900D928A95E1F7CE01019642
:102270000E94F90E80E1FE013196D80101900D9285
:102280008A95E1F7F701E458FF4F40E050E060E83D
:102290007FE34083518362837383F701E058FF4FEC
:1022A0001082118212821382F701EC57FF4F1082C5
:1022B000118212821382F701E857FF4F10821182B8
:1022C00012821382F701E859FF4F108211821282A5
:1022D0001382F701E459FF4F108211821282138298
:1022E000F701E059FF4F1082118212821382F70129
:1022F000EC58FF4F4083518362837383F701E858A2
:10230000FF4F0DEC1CEC2CE43EE300831183228391
:102310003383F701E457FF4F108211821282138238
:10232000F701E057FF4F1082118212821382F701EA
:10233000EC56FF4F1082118212821382F701E85689
:10234000FF4F1082118212821382F701E456FF4F71
:102350001082118212821382F701E05CFF4F4083EA
:10236000518362837383F701EC5BFF4F408351839A
:1023700062837383F701E85BFF4F4083518362837D
:102380007383F701E45BFF4F408351836283738360
:10239000F701E05BFF4F4083518362837383F70152
:1023A000EC5AFF4F408351836283738368960FB664
:1023B000F894DEBF0FBECDBFDF91CF911F910F917B
:1023C000FF90EF900895FF920F931F93CF93DF93A9
:1023D000F82E8B01C0E0D0E08091A303CF1560F40C
:1023E000BE01680F711D85E993E00E94F50FF801A9
:1023F00081938F012196F0CFF80EF092A303DF9125
:10240000CF911F910F91FF900895CF92DF92EF929D
:10241000FF920F931F93CF93DF93EC016AE070E07C
:1024200085E993E00E94F50F9E01205C3F4F690112
:10243000FE01EC5BFF4F7F018E01085B1F4F89316E
:1024400009F04DC08BE08093A303BE016C5C7F4F0D
:1024500082E00E94E311BE016A5C7F4F82E00E942D
:10246000E311BE01685C7F4F82E00E94E311BE0170
:10247000665C7F4F82E00E94E311BE01645C7F4F87
:1024800082E00E94E311BE01625C7F4F82E00E9405
:10249000E311B60184E00E94E311B70184E00E94D9
:1024A000E311B80184E00E94E311BE01645B7F4F39
:1024B00084E00E94E311BE01605B7F4F84E00E94D4
:1024C000E311BE016C5A7F4F84E0DF91CF911F91E1
:1024D0000F91FF90EF90DF90CF900C94E3111DAA25
:1024E0001CAA1FAA1EAA19AE18AE80E090E0A0E8B0
:1024F000BFE3F90180839183A283B383F7018083D3
:102500009183A283B383F80180839183A283B383F1
:10251000DF91CF911F910F91FF90EF90DF90CF90BF
:102520000895AF92BF92CF92DF92EF92FF920F93F6
:102530001F93CF93DF935C01EB016B018AE0C80E20
:10254000D11C7B0188E0E80EF11C8B010A5F1F4F54
:102550009B012C5F3F4FAB014E5F5F4FC50148961B
:102560000E941A0F9E01205F3F4FAE01425F5F4FF6
:10257000BE01645F7F4FC501DF91CF911F910F9125
:10258000FF90EF90DF90CF90BF90AF900C94EA0C4B
:102590008F929F92AF92BF92CF92DF92EF92FF9273
:1025A0000F931F93CF93DF93CDB7DEB72C970FB662
:1025B000F894DEBF0FBECDBF5C014B01CE010B9680
:1025C0006C01FE0139967F018E01095F1F4F9E014C
:1025D0002B5F3F4FAE014D5F5F4FBE016F5F7F4F7F
:1025E000C50148960E941A0F8F819885F50126A58E
:1025F00037A5821B930B98878F8389859A8520A99D
:1026000031A9821B930B9A8789878B859C8522A988
:1026100033A9821B930B9C878B87CE0101966C019B
:10262000740100E010E0F60160817181882777FD78
:102630008095982F033011051CF40E94B42D08C01A
:102640000E94B42D23E333E343E851E40E94192DA3
:10265000F70160837183828393830F5F1F4FF2E0E2
:10266000CF0ED11C84E0E80EF11C06301105D9F61E
:10267000F50164A975A9882777FD8095982F0E9498
:10268000B42D9B01AC01F401608171818281938141
:102690000E944B2CF501E05CFF4F2081318142818B
:1026A00053810E94192DF401608371838283938387
:1026B000F50166A977A9882777FD8095982F0E9454
:1026C000B42D9B01AC01F4016481758186819781F1
:1026D0000E944B2CF501EC5BFF4F20813181428140
:1026E00053810E94192DF401648375838683978337
:1026F000F50160AD71AD882777FD8095982F0E9418
:10270000B42D9B01AC01F4016085718582859385B0
:102710000E944B2CF501E85BFF4F20813181428103
:1027200053810E94192DF4016087718782879387F6
:10273000B401685E7F4FC5010E94440DF50162AD92
:1027400073AD882777FD8095982F0E94B42D9B014B
:10275000AC01F401608D718D828D938D0E944B2CA4
:10276000F501E45BFF4F20813181428153810E945A
:10277000192DF401608F718F828F938FF50164ADF5
:1027800075AD882777FD8095982F0E94B42D9B0109
:10279000AC01F401648D758D868D978D0E944B2C54
:1027A000F501E05BFF4F20813181428153810E941E
:1027B000192DF401648F758F868F978FF50166ADA3
:1027C00077AD882777FD8095982F0E94B42D9B01C7
:1027D000AC01F40160A171A182A193A10E944B2CD4
:1027E000F501EC5AFF4F20813181428153810E94D3
:1027F000192DF40160A371A382A393A32C960FB6A5
:10280000F894DEBF0FBECDBFDF91CF911F910F9126
:10281000FF90EF90DF90CF90BF90AF909F908F9000
:1028200008952F923F924F925F926F927F928F9274
:102830009F92AF92BF92CF92DF92EF92FF920F934F
:102840001F93CF93DF93CDB7DEB766970FB6F8949B
:10285000DEBF0FBECDBF8C0183E0282E312C412C72
:10286000512C32015301420173016201BE016F5FBD
:102870007F4FC8010E9491126F817885882777FD6C
:102880008095982F0E94B42D9B01AC01C301B20129
:102890000E944C2C2B013C0169857A85882777FDA5
:1028A0008095982F0E94B42D9B01AC01C501B40105
:1028B0000E944C2C4B015C016B857C85882777FD41
:1028C0008095982F0E94B42D9B01AC01C701B601E1
:1028D0000E944C2C6B017C0181E0281A31082114E4
:1028E000310421F620E030E040E450E4C301B201BD
:1028F0000E94192D0E94812DF80177A766A720E07C
:1029000030E040E450E4C501B4010E94192D0E945A
:10291000812DF80171AB60AB20E030E040E450E481
:10292000C701B6010E94192D0E94812DF80173ABD9
:1029300062AB66960FB6F894DEBF0FBECDBFDF91D7
:10294000CF911F910F91FF90EF90DF90CF90BF90AC
:10295000AF909F908F907F906F905F904F903F903F
:102960002F900895EF92FF920F931F93CF93DF93D1
:10297000CDB7DEB761970FB6F894DEBF0FBECDBFFF
:102980008C01F62E65E070E080E090E0498B0E94BB
:102990003E24449845984989442319F08CE080935B
:1029A000B8004F2D61E0CE0101960E94FA0E80E141
:1029B000FE013196D801589601900D928A95E1F763
:1029C000780188E1E80EF11CC7010E94B70F63E0AF
:1029D000C7010E94FE0E65E070E080E090E00E947A
:1029E0003E2460E0C8010E94C60A61E0C8010E945E
:1029F000CF0B60E0C8010E94C10A6AE070E080E08D
:102A000090E00E943E2466E0C8010E94E90AC801E5
:102A10000E941114C8010E94051261960FB6F89425
:102A2000DEBF0FBECDBFDF91CF911F910F91FF9001
:102A3000EF900895462F64E070E00C94B2144F922A
:102A40005F926F927F928F929F92AF92BF92CF923E
:102A5000DF92EF92FF92CF93DF93CDB7DEB760970F
:102A60000FB6F894DEBF0FBECDBF6B017C0180E0D6
:102A700090E0A0ECBFE389839A83AB83BC8320E022
:102A800030E040E05FE3C701B6010E94DE2E6987B7
:102A90007A878B879C87CD82DE82EF82F8868D8154
:102AA0009E81AF81B8858D879E87AF87B88B4D8516
:102AB0005E856F857889759567955795479586E802
:102AC0009AE5A7E3BFE5841B950BA60BB70B8D8793
:102AD0009E87AF87B88B8D859E85AF85B8898D839E
:102AE0009E83AF83B887CD80DE80EF80F8848980B5
:102AF0009A80AB80BC8069857A858B859C852D8189
:102B00003E814F8158854D805E806F8078840E9421
:102B1000DE2EA30192010E94DE2E9B01AC01C501B5
:102B2000B4010E944B2C9B01AC01C701B6010E946D
:102B3000DE2E6D837E838F8398876D817E818F816A
:102B4000988560960FB6F894DEBF0FBECDBFDF91BB
:102B5000CF91FF90EF90DF90CF90BF90AF909F907C
:102B60008F907F906F905F904F9008952F923F923B
:102B70004F925F926F927F928F929F92AF92BF928D
:102B8000CF92DF92EF92FF920F931F93CF93DF9339
:102B9000CDB7DEB7CC55D1090FB6F894DEBF0FBE66
:102BA000CDBF1C01498F5A8F6B8F7C8F0D8F1E8F6D
:102BB0002F8F38A32C012CE7420E511CD2018D918E
:102BC0009D910D90BC91A02D61968CAF9DAFAEAF45
:102BD000BFAF6197D2018D919D910D90BC91A02DB9
:102BE00065968CAF9DAFAEAFBFAF6597F2016081C8
:102BF0007181828193813101F0E86F0E711CD301E4
:102C00002D913D914D915C910E94DE2E69AB7AAB86
:102C10008BAB9CABF20160817181828193818101D8
:102C20000C571F4FD8012D913D914D915C910E9401
:102C3000DE2E69AF7AAF8BAF9CAFD2018D919D91A3
:102C40000D90BC91A02D8D839E83AF83B887F10139
:102C5000E857FF4FFA83E98380819181A281B38194
:102C600089A79AA7ABA7BCA7D3018D919D910D9081
:102C7000BC91A02D69968CAF9DAFAEAFBFAF6997E9
:102C8000D3018D919D910D90BC91A02D6D968CAF2F
:102C90009DAFAEAFBFAF6D97D3018D919D910D905C
:102CA000BC91A02D8DA79EA7AFA7B8ABD8018D91E1
:102CB0009D910D90BC91A02D8DA39EA3AFA3B8A70D
:102CC000F3016081718182819381A981BA812D9103
:102CD0003D914D915C910E94DE2E21966CAF7DAFAF
:102CE0008EAF9FAF2197F801408051806280738042
:102CF00080819181A281B3818DAB9EABAFABB8AF28
:102D00006081718182819381A981BA812D913D91E8
:102D10004D915C910E94DE2E25966CAF7DAF8EAFFB
:102D20009FAF2597E981FA816081718182819381CA
:102D300020813181428153810E94DE2E29966CAF21
:102D40007DAF8EAF9FAF299720E030E0A901ED96CF
:102D50006CAD7DAD8EAD9FADED970E94122D882399
:102D600009F4D7C220E030E0A901C358DF4F6881E1
:102D700079818A819B81CD57D0400E94122D882372
:102D800009F4C7C220E030E0A901CF57DF4F6881C6
:102D900079818A819B81C158D0400E94122D88235D
:102DA00009F4B7C229A53AA54BA55CA56D817E8122
:102DB0008F8198850E94DE2E69837A838B839C8322
:102DC0002DA13EA14FA158A56DA57EA58FA598A9BF
:102DD0000E94DE2E69A77AA78BA79CA72DA93EA9E2
:102DE0004FA958ADC301B2010E94DE2E6DA77EA788
:102DF0008FA798ABED962CAD3DAD4EAD5FADED9789
:102E0000CA01B9010E94DE2E2B013C01C358DF4FDD
:102E1000288139814A815B81CD57D040CA01B901EF
:102E20000E94DE2E9B01AC01C301B2010E944C2C1A
:102E30002B013C01CF57DF4F288139814A815B81CB
:102E4000C158D040CA01B9010E94DE2E9B01AC01DD
:102E5000C301B2010E944C2C0E941F152B013C01A2
:102E60009B01AC01ED966CAD7DAD8EAD9FADED9748
:102E70000E94DE2E6D837E838F839887A30192014B
:102E8000C358DF4F688179818A819B81CD57D040BB
:102E90000E94DE2E698B7A8B8B8B9C8BA301920117
:102EA000CF57DF4F688179818A819B81C158D0409B
:102EB0000E94DE2E69877A878B879C872DA53EA589
:102EC0004FA558A960E070E080E09FE30E944B2C82
:102ED00029962CAD3DAD4EAD5FAD29970E944B2C90
:102EE0006DA37EA38FA398A729813A814B815C8132
:102EF00069A57AA58BA59CA50E944B2C6DAB7EABDA
:102F00008FAB98AF29AD3AAD4BAD5CAD21966CADB2
:102F10007DAD8EAD9FAD21970E944C2C2D966CAF50
:102F20007DAF8EAF9FAF2D972DA13EA14FA158A58C
:102F30006D817E818F8198850E94DE2E2B013C0160
:102F40002DA93EA94FA958AD69897A898B899C8999
:102F50000E94DE2E9B01AC01C301B2010E944C2CE9
:102F60002B013C012D962CAD3DAD4EAD5FAD2D97A7
:102F700069857A858B859C850E94DE2E9B01AC013C
:102F8000C301B2010E944C2C9B01AC010E944C2C4D
:102F90002B013C016D962CAD3DAD4EAD5FAD6D97F7
:102FA00069966CAD7DAD8EAD9FAD69970E94DE2EAA
:102FB0009B01AC0160E070E080E09FE30E944B2C3D
:102FC0006D877E878F87988B29813A814B815C81C1
:102FD00069A57AA58BA59CA50E944C2C9B01AC01F0
:102FE0006D817E818F8198850E94DE2E69837A8330
:102FF0008B839C8329962CAD3DAD4EAD5FAD29975B
:103000006D857E858F8598890E944B2C9B01AC0134
:1030100069897A898B899C890E94DE2E9B01AC018B
:1030200069817A818B819C810E944C2C69837A838F
:103030008B839C8329A93AA94BA95CA925966CADE1
:103040007DAD8EAD9FAD25970E944B2C9B01AC01B1
:1030500069857A858B859C850E94DE2E9B01AC015B
:1030600069817A818B819C810E944C2C9B01AC01EF
:103070000E944C2C69837A838B839C83A3019201E9
:10308000C301B2010E94DE2E2B013C0129813A814D
:103090004B815C81CA01B9010E94DE2E9B01AC010B
:1030A000C301B2010E944C2C0E944B2F69837A838A
:1030B0008B839C8329AD3AAD4BAD5CAD21966CAD55
:1030C0007DAD8EAD9FAD21970E944B2C2B013C0115
:1030D00029A93AA94BA95CA925966CAD7DAD8EAD09
:1030E0009FAD25970E944C2C69A77AA78BA79CA718
:1030F0002DA53EA54FA558A96D857E858F859889FC
:103100000E944B2C6DA77EA78FA798ABA3019201BD
:103110006D817E818F8198850E94DE2E6D877E87EE
:103120008F87988B29A53AA54BA55CA569897A89D3
:103130008B899C890E94DE2E9B01AC016D857E856A
:103140008F8598890E944C2C6D877E878F87988BFE
:103150002DA53EA54FA558A969857A858B859C85A7
:103160000E94DE2E9B01AC016D857E858F8598893E
:103170000E944C2C9B01AC010E944C2C6D877E87D9
:103180008F87988B2DA13EA14FA158A569817A8187
:103190008B819C810E94DE2E6DA37EA38FA398A7B6
:1031A000A30192016D857E858F8598890E94DE2E10
:1031B0009B01AC016DA17EA18FA198A50E944C2C12
:1031C0006DA37EA38FA398A72DA93EA94FA958ADA3
:1031D00069817A818B819C810E94DE2E2B013C01CA
:1031E00029A53AA54BA55CA56D857E858F85988917
:1031F0000E94DE2E9B01AC01C301B2010E944C2C47
:103200002B013C012D962CAD3DAD4EAD5FAD2D9704
:1032100069817A818B819C810E94DE2E69837A8309
:103220008B839C832DA53EA54FA558A96D857E85D2
:103230008F8598890E94DE2E9B01AC0169817A817D
:103240008B819C810E944C2C6D877E878F87988B09
:103250009B01AC0169897A898B899C890E94DE2E49
:1032600069837A838B839C83A301920169857A8524
:103270008B859C850E94DE2E9B01AC0169817A8141
:103280008B819C810E944B2C69837A838B839C83E6
:103290002DA13EA14FA158A569857A858B859C8576
:1032A0000E94DE2E69877A878B879C872D853E85D5
:1032B0004F8558896D817E818F8198850E94DE2E91
:1032C0009B01AC0169857A858B859C850E944B2C7E
:1032D00069877A878B879C87A30192016D817E81A4
:1032E0008F8198850E94DE2E2B013C012DA13EA1ED
:1032F0004FA158A569897A898B899C890E94DE2E05
:103300009B01AC01C301B2010E944B2C2B013C017B
:103310000BC0412C512C320149865A866B867C8623
:1033200049825A826B827C8220E030E0A901C5018B
:10333000B4010E94122D882309F42EC120E030E050
:10334000A901E5966CAD7DAD8EAD9FADE5970E9470
:10335000122D882309F420C120E030E0A901E9966C
:103360006CAD7DAD8EAD9FADE9970E94122D882387
:1033700009F412C1A5019401C501B4010E94DE2E19
:103380006D837E838F839887E5962CAD3DAD4EADE2
:103390005FADE597CA01B9010E94DE2E9B01AC0129
:1033A0006D817E818F8198850E944C2C6D837E83F8
:1033B0008F839887E9962CAD3DAD4EAD5FADE99713
:1033C000CA01B9010E94DE2E9B01AC016D817E8194
:1033D0008F8198850E944C2C0E941F156D837E83DF
:1033E0008F8398879B01AC01C501B4010E94DE2E3A
:1033F000698B7A8B8B8B9C8B2D813E814F8158857D
:10340000E5966CAD7DAD8EAD9FADE5970E94DE2E4D
:103410006D8B7E8B8F8B988F2D813E814F81588550
:10342000E9966CAD7DAD8EAD9FADE9970E94DE2E25
:103430004B015C0129AD3AAD4BAD5CAD21966CAD55
:103440007DAD8EAD9FAD21970E944B2C6D837E8309
:103450008F83988725962CAD3DAD4EAD5FAD2597FA
:1034600069A97AA98BA99CA90E944C2C69A37AA36B
:103470008BA39CA365962CAD3DAD4EAD5FAD65971E
:1034800061966CAD7DAD8EAD9FAD61970E94DE2ED5
:1034900020E030E040E05FE30E944B2C29962CAD09
:1034A0003DAD4EAD5FAD29970E944C2C6D877E8758
:1034B0008F87988B9B01AC016D897E898F89988D50
:1034C0000E94DE2E69AB7AAB8BAB9CAB29A13AA1F3
:1034D0004BA15CA1C501B4010E94DE2E9B01AC0191
:1034E00069A97AA98BA99CA90E944B2C9B01AC01CC
:1034F00069817A818B819C810E944C2C69837A83BB
:103500008B839C832D813E814F815885C501B401F9
:103510000E94DE2E4B015C012D853E854F8558892A
:1035200069897A898B899C890E94DE2E9B01AC0176
:10353000C501B4010E944B2C9B01AC0169857A85C1
:103540008B859C850E944C2C69877A878B879C870A
:1035500029A13AA14BA15CA169897A898B899C89AF
:103560000E94DE2E4B015C012D813E814F815885EA
:103570006D897E898F89988D0E94DE2E9B01AC011A
:10358000C501B4010E944B2C9B01AC01C301B201E7
:103590000E944C2C2B013C0120E030E0A901698104
:1035A0007A818B819C810E94122D882309F436C177
:1035B00020E030E0A90169857A858B859C850E9491
:1035C000122D882309F42AC120E030E0A901C301AB
:1035D000B2010E94122D882309F420C181010858EC
:1035E0001F4FD8016D917D918D919C9120E030E02D
:1035F000A9010E94D32EF101E457FF4FFE83ED8312
:1036000018160CF0B4C0D8018D919D910D90BC910D
:10361000A02D8D8B9E8BAF8BB88FF101E056FF4FA5
:10362000208131814281538160E070E080E89FE336
:103630000E94192D698B7A8B8B8B9C8BED81FE817F
:1036400080809180A280B38029813A814B815C8106
:103650006D897E898F89988D0E94DE2E29893A890D
:103660004B895C890E94DE2E9B01AC01C501B4012F
:103670000E944C2CAD81BE816D937D938D939C9364
:103680001397F801608171818281938191012057A4
:103690003F4F3E8B2D8BD9018D909D90AD90BC906E
:1036A00029853A854B855C850E94DE2E29893A89D9
:1036B0004B895C890E94DE2E9B01AC01C501B401DF
:1036C0000E944C2CED89FE896083718382839383F1
:1036D000D8016D917D918D919C9181010C561F4F68
:1036E000F80180809180A280B380A30192010E94A2
:1036F000DE2E29893A894B895C890E94DE2E9B0146
:10370000AC01C501B4010E944C2CD8016D937D938E
:103710008D939C931397ED81FE81208131814281AD
:103720005381698D7A8D8B8D9C8D0E944C2C698F75
:103730007A8F8B8F9C8FAD89BE892D913D914D9154
:103740005C916D8D7E8D8F8D98A10E944C2C6D8F1C
:103750007E8F8F8F98A3F801208131814281538120
:10376000C701B6010E944C2C6B017C0115C0AD81D4
:10377000BE811D921D921D921C921397F101E0577C
:10378000FF4F1082118212821382F101EC56FF4F1B
:10379000108211821282138281010C581F4FF8018E
:1037A000608171818281938129813A814B815C8121
:1037B0000E94DE2E9B01AC01698D7A8D8B8D9C8DD4
:1037C0000E944C2C698F7A8F8B8F9C8FD8016D91C2
:1037D0007D918D919C9129853A854B855C850E94D0
:1037E000DE2E9B01AC016D8D7E8D8F8D98A10E9488
:1037F0004C2C6D8F7E8F8F8F98A3F8016081718123
:1038000082819381A30192010E94DE2E9B01AC0173
:10381000C701B6010E944C2C6B017C01F101E056FE
:10382000FF4F208131814281538160E070E080E868
:103830009FE30E94192D20E030E040E05FE30E940A
:10384000DE2E4B015C019B01AC01698D7A8D8B8D65
:103850009C8D0E94DE2E6D837E838F839887A501C9
:1038600094016D8D7E8D8F8D98A10E94DE2E6D8FBF
:103870007E8F8F8F98A3A5019401C701B6010E9486
:10388000DE2E698B7A8B8B8B9C8B910124583F4F5A
:103890003A832983D901CD90DD90ED90FC90CD8ABB
:1038A000DE8AEF8AF88EF101E058FF4FFA87E98748
:1038B000C080D180E280F380C9A2DAA2EBA2FCA290
:1038C000F101EC57FF4FFA8FE98FC080D180E28081
:1038D000F380CD86DE86EF86F88A810108571F4F78
:1038E000F8014080518062807380D901CD90DD90D5
:1038F000ED90FC9069A17AA18BA19CA190582D819B
:103900003E814F8158850E94DE2E4B015C012D8D3A
:103910003E8D4F8D58A16D857E858F8598890E943B
:10392000DE2E9B01AC01C501B4010E944B2C4B0162
:103930005C0129893A894B895C89C301B2010E94E3
:10394000DE2E9B01AC01C501B4010E944B2C9B01F2
:10395000AC01C701B6010E944C2CE981FA81608359
:10396000718382839383D8014D905D906D907C909C
:10397000E985FA85C080D180E280F3802D813E8187
:103980004F8158856D897E898F89988D0E94DE2EA2
:103990004B015C0129893A894B895C896D857E855B
:1039A0008F8598890E94DE2E9B01AC01C501B40170
:1039B0000E944C2C4B015C012D8D3E8D4F8D58A1EA
:1039C000C301B2010E94DE2E9B01AC01C501B4010E
:1039D0000E944B2C9B01AC01C701B6010E944C2CEC
:1039E000A985BA856D937D938D939C931397F80168
:1039F0004080518062807380A98DBA8DCD90DD901A
:103A0000ED90FC902D8D3E8D4F8D58A16D897E8956
:103A10008F89988D0E94DE2E4B015C0129893A899D
:103A20004B895C8969A17AA18BA19CA10E94DE2EA1
:103A30009B01AC01C501B4010E944B2C4B015C0100
:103A40002D813E814F815885C301B2010E94DE2E37
:103A50009B01AC01C501B4010E944C2C9B01AC013F
:103A6000C701B6010E944C2CE98DFA8D60837183E9
:103A700082839383D801CD90DD90ED90FC902989CD
:103A80003A894B895C896D897E898F89988D0E94DE
:103A9000DE2E4B015C012D8D3E8D4F8D58A169A10D
:103AA0007AA18BA19CA10E94DE2E9B01AC01C501D5
:103AB000B4010E944C2C4B015C012D813E814F8151
:103AC00058856D857E858F8598890E94DE2E9B01A5
:103AD000AC01C501B4010E944B2C9B01AC01C70194
:103AE000B6010E944C2CF80160837183828393831A
:103AF000A981BA816D917D918D919C9113972D91A2
:103B00003D914D915C91E985FA8580809180A280FC
:103B1000B3804080518062807380A98DBA8DCD9032
:103B2000DD90ED90FC901397CD8EDE8EEF8EF8A297
:103B3000CD90DD90ED90FC90CD82DE82EF82F88614
:103B4000D801CD90DD90ED90FC901397C98ADA8A68
:103B5000EB8AFC8ACD90DD90ED90FC90CD8ADE8AD8
:103B6000EF8AF88E0E94DE2E6B017C01A301920188
:103B7000C501B4010E94DE2E9B01AC01C701B60154
:103B80000E944C2C6B017C012D813E814F81588518
:103B90006D8D7E8D8F8D98A10E94DE2E9B01AC01D4
:103BA000C701B6010E944C2C6B017C012D893E8916
:103BB0004F89588D69897A898B899C890E94DE2E6C
:103BC0009B01AC01C701B6010E944C2C0E941F153D
:103BD0006B017C01E981FA8160817181828193812D
:103BE000A70196010E94DE2EA981BA816D937D9373
:103BF0008D939C931397E985FA8560817181828109
:103C00009381A70196010E94DE2EA985BA856D9346
:103C10007D938D939C931397E98DFA8D60817181CB
:103C200082819381A70196010E94DE2EA98DBA8D13
:103C30006D937D938D939C931397F80160817181AF
:103C400082819381A70196010E94DE2ED8016D9397
:103C50007D938D939C931397C45ADF4F0FB6F894BE
:103C6000DEBF0FBECDBFDF91CF911F910F91FF90AF
:103C7000EF90DF90CF90BF90AF909F908F907F900C
:103C80006F905F904F903F902F9008952F923F92AA
:103C90004F925F926F927F928F929F92AF92BF925C
:103CA000CF92DF92EF92FF920F931F93CF93DF9308
:103CB000CDB7DEB7A6970FB6F894DEBF0FBECDBF67
:103CC0003C017EA36DA3BE016F5F7F4F0E94C812AF
:103CD0000E941B244B015C01F301E456FF4F6083FB
:103CE000718382839383630120EAC20ED11C730126
:103CF00038E9E30EF11CF70180819181A281B38143
:103D0000A5019401281B390B4A0B5B0BCA01B901B1
:103D10000E94B22D20E034E244E759E40E94192DBC
:103D20009B01AC0160E070E080E89FE30E94192DE8
:103D3000F6016083718382839383F701808291828D
:103D4000A282B38289809A80AB80BC802BED3FE059
:103D500049E450E46D897E898F89988D0E94DE2E1A
:103D600020E030E044E353E40E94192D6B017C0114
:103D70002BED3FE049E450E469897A898B899C897D
:103D80000E94DE2E20E030E044E353E40E94192D2F
:103D90001B012C012BED3FE049E450E46D857E854D
:103DA0008F8598890E94DE2E20E030E044E353E4C2
:103DB0000E94192DAB01BC018CA18F938BA18F9315
:103DC0008AA18F9389A18F938D8D9E8DAF8DB8A180
:103DD000B058BF93AF939F938F93898D9A8DAB8D7E
:103DE000BC8DB058BF93AF939F938F938C858F9367
:103DF0008B858F938A858F9389858F9388858F9301
:103E00008F818F938E818F938D818F93920181010A
:103E1000C3010E94B615F301E458FF4F80819181E0
:103E2000A281B381EDA1FEA180839183A283B3839C
:103E3000F301E058FF4F80819181A281B381EDA110
:103E4000FEA184839583A683B783F301EC57FF4FCC
:103E500080819181A281B381EDA1FEA180879187AC
:103E6000A287B387F301E857FF4F80819181A28138
:103E7000B381EDA1FEA184879587A687B7870FB68A
:103E8000F894DEBF0FBECDBFA6960FB6F894DEBF86
:103E90000FBECDBFDF91CF911F910F91FF90EF909B
:103EA000DF90CF90BF90AF909F908F907F906F905A
:103EB0005F904F903F902F9008954F925F926F9236
:103EC0007F928F929F92AF92BF92CF92DF92EF92AA
:103ED000FF920F931F93CF93DF93CDB7DEB7A897D1
:103EE0000FB6F894DEBF0FBECDBF8B01BE016F5F72
:103EF0007F4F0E94461E8D809E80AF80B8848D8546
:103F00009E85AF85B889898B9A8BAB8BBC8B49809A
:103F10005A806B807C8089859A85AB85BC858D8B2A
:103F20009E8BAF8BB88F29893A894B895C89C501F3
:103F3000B4010E94DE2E6B017C012D893E894F89E0
:103F4000588DC301B2010E94DE2E9B01AC01C70156
:103F5000B6010E944B2C9B01AC010E944C2C698F36
:103F60007A8F8B8F9C8FA5019401C301B2010E94AF
:103F7000DE2E6B017C0129893A894B895C896D8928
:103F80007E898F89988D0E94DE2E9B01AC01C7012E
:103F9000B6010E944C2C9B01AC010E944C2C6D8FF1
:103FA0007E8F8F8F98A3A3019201C301B2010E945B
:103FB000DE2E6B017C01A5019401C501B4010E94B4
:103FC000DE2E9B01AC01C701B6010E944B2C6B0198
:103FD0007C012D893E894F89588DCA01B9010E9403
:103FE000DE2E9B01AC01C701B6010E944B2C6B0178
:103FF0007C0129893A894B895C89CA01B9010E94EF
:10400000DE2E9B01AC01C701B6010E944C2C69A3B6
:104010007AA38BA39CA3A3019201C301B2010E94C6
:104020004C2C6B017C01A5019401C501B4010E94D7
:104030004C2C6DA37EA38FA398A7A3019201C70167
:10404000B6010E94DE2E2B013C01A50194016DA159
:104050007EA18FA198A50E94DE2E9B01AC01C30119
:10406000B2010E944C2C20E030E040E85FE30E9467
:104070004B2C2B013C012D893E894F89588D6DA118
:104080007EA18FA198A50E94DE2E4B015C0129899B
:104090003A894B895C89C701B6010E94DE2E9B01DB
:1040A000AC01C501B4010E944B2CA30192010E94F6
:1040B000BF2CD8016D937D938D939C93139729A169
:1040C0003AA14BA15CA1CA01B9010E94DE2E6B018D
:1040D0007C012D8D3E8D4F8D58A1CA01B9010E94E2
:1040E000DE2EA70196010E944C2C0E944B2F9B01B3
:1040F000AC01698D7A8D8B8D9C8D0E94192D0E944B
:10410000EA2CF8016483758386839783298D3A8D21
:104110004B8D5C8DCA01B9010E94DE2EA70196016C
:104120000E944C2C0E944B2F9B01AC016D8D7E8D0B
:104130008F8D98A10E94192D0E94EA2CD801189603
:104140006D937D938D939C931B97A8960FB6F894CF
:10415000DEBF0FBECDBFDF91CF911F910F91FF90BA
:10416000EF90DF90CF90BF90AF909F908F907F9017
:104170006F905F904F9008958091D40390E02091CC
:10418000D503821B910908952091D5038091D40312
:10419000281750F4E22FF0E0EA52FC4F808190E0C3
:1041A0002F5F2093D50308958FEF9FEF0895E0913F
:1041B000D5038091D403E81730F4F0E0EA52FC4FC5
:1041C000808190E008958FEF9FEF08950895CF923A
:1041D000DF92EF92FF920F931F93CF93DF937C01B7
:1041E000CB018A012091B003222389F0EB016B01FE
:1041F000C40ED51ECC15DD0569F06991D701ED918E
:10420000FC910190F081E02DC7010995F3CF642F57
:104210000E944B22C801DF91CF911F910F91FF9017
:10422000EF90DF90CF900895CF93DF931F92CDB79B
:10423000DEB769832091B0032223D1F02091B1032E
:10424000203240F021E030E0FC013383228380E023
:1042500090E015C08091B203E82FF0E0ED54FC4FE0
:10426000998190838F5F8093B2038093B10305C0DF
:1042700061E0CE0101960E944B2281E090E00F9018
:10428000DF91CF910895FC011382128248EE53E032
:1042900060E070E044835583668377838CE292E02C
:1042A0009183808308951092D5031092D4031092C5
:1042B000B2031092B1030C949621862F413208F07C
:1042C00040E266ED73E00E94B4211092D503809322
:1042D000D403089521E00C945D2121E00C945D212C
:1042E00081E08093B0036093D3031092B2031092E5
:1042F000B10308950C9470210F93062F21E0409193
:10430000B10363EB73E08091D3030E94F821109214
:10431000B2031092B1031092B0030F91089561E0BF
:104320000C947C2184EA93E00C9443211092630462
:1043300081E0809361041092600461E082E10E9458
:10434000012561E083E10E940125E9EBF0E0808135
:104350008E7F808380818D7F808388E48093B80006
:1043600085E48093BC000895413208F03FC09091ED
:1043700063049111FCCF91E0909363042093610456
:104380002FEF2093F60310923B04240F20933A045E
:104390009093620490916204880F892B8093620449
:1043A00080916004813041F4109260048091620435
:1043B0008093BB0085EC01C085EE8093BC008091AA
:1043C00063048130E1F380913B04841710F4409141
:1043D0003B042CE334E0FB01D9018A2F821B8417B4
:1043E00018F48D918193F9CF842F089580E008957A
:1043F0000F93413208F046C0909163049111FCCFB5
:1044000092E090936304009361049FEF9093F6030E
:1044100010923B0440933A04FB016CE374E0DB012F
:104420009A2F961B941718F491919D93F9CF10929F
:10443000620490916204880F892B809362048091BA
:104440006004813041F41092600480916204809392
:10445000BB0085EC01C085EE8093BC00222321F0D7
:10446000809163048230E1F38091F6038F3F61F025
:104470008091F603803251F08091F603803341F44D
:1044800083E007C081E005C080E003C082E001C096
:1044900084E00F910895613298F4209163042430F0
:1044A00089F460931804FC018AE194E0DC012A2F6E
:1044B000281B261718F421912D93F9CF80E0089539
:1044C00081E0089582E0089585ED8093BC0080919D
:1044D000BC0084FDFCCF10926304089585EC8093AA
:1044E000BC001092630408951F920F920FB60F92B2
:1044F00011242F933F934F935F936F937F938F93E9
:104500009F93AF93BF93EF93FF938091B900887F00
:10451000803609F49CC068F5883209F45BC090F4D9
:10452000803109F454C038F4882309F4F5C0883088
:1045300009F44DC0F5C0883109F44CC0803209F44B
:104540005DC0EEC0803409F468C048F4803309F4DB
:1045500055C0883309F0E4C08093F603A8C08035C5
:1045600009F44FC0883509F45DC0883409F0D8C01B
:10457000D5C0883909F4C6C0A8F4883709F467C0E3
:1045800038F4883609F463C0803709F460C0C8C0C5
:10459000883809F4B7C0803909F45FC0803809F061
:1045A000BFC05BC0803B09F485C038F4803A09F491
:1045B00066C0883A09F47EC0B3C0803C09F4A6C046
:1045C000883C09F4A3C0883B09F489C0A9C0809144
:1045D000620410C090913B0480913A04981770F5E2
:1045E000E0913B0481E08E0F80933B04F0E0E45CBB
:1045F000FB4F80818093BB0085EC85C08093F603E0
:104600008DC0E0913B0481E08E0F80933B0480914C
:10461000BB00F0E0E45CFB4F808390913B04809111
:104620003A046DC0E0913B0481E08E0F80933B041F
:104630008091BB00F0E0E45CFB4F808380916104DB
:1046400081116CC081E08093600484EA60C083E0E3
:10465000809363041092F703CFCF8091F7038032E9
:1046600008F050C0E091F70381E08E0F8093F703CC
:104670008091BB00F0E0E850FC4F8083BDCF80917B
:10468000F703803230F4E091F703F0E0E850FC4F9C
:1046900010820E9464226091F70370E0E0915C0454
:1046A000F0915D0488EF93E009951092F7030E9462
:1046B0006E2236C084E08093630410921904109235
:1046C0001804E0915E04F0915F040995809118044C
:1046D000811105C081E08093180410921A04E091C2
:1046E000190481E08E0F80931904F0E0E65EFB4F21
:1046F00080818093BB0090911904809118049817D1
:1047000008F47ACF85E88093BC000AC085EC8093DA
:10471000BC001092630404C01092F6030E9464224D
:10472000FF91EF91BF91AF919F918F917F916F9189
:104730005F914F913F912F910F900FBE0F901F905F
:10474000189561E08AE00E94012561E08AE00E94FC
:10475000C8248CB580618CBD8CB580648CBD61E053
:104760008DE00E94C82461E08BE00C94C8242CB535
:10477000982F93702C7F922B9CBD9DB582FB882730
:1047800080F99E7F982B9DBD08951F920F920FB6C2
:104790000F9211242F933F938F939F93AF93BF93C7
:1047A0008091650490916604A0916704B0916804BB
:1047B0003091640423E0230F2D3720F40196A11DCE
:1047C000B11D05C026E8230F0296A11DB11D20933F
:1047D00064048093650490936604A0936704B09387
:1047E00068048091690490916A04A0916B04B0916F
:1047F0006C040196A11DB11D8093690490936A0415
:10480000A0936B04B0936C04BF91AF919F918F9173
:104810003F912F910F900FBE0F901F9018952FB7BB
:10482000F89460916504709166048091670490919A
:1048300068042FBF08953FB7F89480916904909160
:104840006A04A0916B04B0916C0426B5A89B05C0C6
:104850002F3F19F00196A11DB11D3FBF6627782F8C
:10486000892F9A2F620F711D811D911D42E0660FE5
:10487000771F881F991F4A95D1F70895CF92DF922D
:10488000EF92FF92CF93DF936B017C010E941B2478
:10489000EB01C114D104E104F10479F00E941B245E
:1048A0006C1B7D0B683E7340A0F381E0C81AD108F1
:1048B000E108F108C851DC4FECCFDF91CF91FF90B8
:1048C000EF90DF90CF900895789484B5826084BD96
:1048D00084B5816084BD85B5826085BD85B5816004
:1048E00085BDEEE6F0E0808181608083E1E8F0E064
:1048F0001082808182608083808181608083E0E893
:10490000F0E0808181608083E1EBF0E08081846071
:104910008083E0EBF0E0808181608083EAE7F0E073
:1049200080818460808380818260808380818160D7
:1049300080838081806880831092C10008958330D5
:1049400081F028F4813099F08230A1F0089586300A
:10495000A9F08730B9F08430D1F4809180008F7D48
:1049600003C0809180008F7780938000089584B584
:104970008F7702C084B58F7D84BD08958091B0008B
:104980008F7703C08091B0008F7D8093B000089531
:10499000CF93DF9390E0FC01E953FF4F2491FC019A
:1049A000E552FF4F8491882349F190E0880F991FC9
:1049B000FC01E750FF4FA591B49181519F4FFC013D
:1049C000C591D4919FB7611108C0F8948C9120953E
:1049D00082238C93888182230AC0623051F4F89438
:1049E0008C91322F309583238C938881822B8883FE
:1049F00004C0F8948C91822B8C939FBFDF91CF9150
:104A000008950F931F93CF93DF931F92CDB7DEB717
:104A1000282F30E0F901ED54FF4F8491F901E9535B
:104A2000FF4F1491F901E552FF4F04910023C9F0A3
:104A3000882321F069830E949F246981E02FF0E0A0
:104A4000EE0FFF1FE151FF4FA591B4919FB7F8946E
:104A50008C91611103C01095812301C0812B8C932F
:104A60009FBF0F90DF91CF911F910F910895CF932A
:104A7000DF938230910510F482E090E0E091190517
:104A8000F0911A0520E030E0A0E0B0E0309739F175
:104A90004081518148175907B8F04817590771F4F8
:104AA00082819381109729F013969C938E9312978D
:104AB0002CC090931A058093190527C02115310544
:104AC00031F04217530718F0A901DB0101C0EF01D3
:104AD0009A01BD01DF010280F381E02DD7CF2115BE
:104AE0003105F9F0281B390B2430310580F48A8117
:104AF0009B816115710521F0FB019383828304C0C2
:104B000090931A0580931905FE01329644C0FE0168
:104B1000E20FF31F81939193225031093983288347
:104B20003AC02091170530911805232B41F42091AC
:104B30000601309107013093180520931705209145
:104B40000401309105012115310541F42DB73EB71F
:104B50004091080150910901241B350BE091170584
:104B6000F0911805E217F307A0F42E1B3F0B28174E
:104B7000390778F0AC014E5F5F4F2417350748F0D6
:104B80004E0F5F1F50931805409317058193919323
:104B900002C0E0E0F0E0CF01DF91CF910895CF9324
:104BA000DF93009709F487C0FC01329713821282C9
:104BB000C0911905D0911A05209781F42081318187
:104BC000280F391F809117059091180582179307B8
:104BD00079F5F0931805E09317056DC0DE0120E02C
:104BE00030E0AE17BF0750F412964D915C911397C9
:104BF0009D014115510509F1DA01F3CFB383A28379
:104C000040815181840F951F8A179B0771F48D9104
:104C10009C911197840F951F029691838083129621
:104C20008D919C911397938382832115310529F4EB
:104C3000F0931A05E09319053EC0D9011396FC9331
:104C4000EE9312974D915D91A40FB51FEA17FB07E4
:104C500079F480819181840F951F0296D901119674
:104C60009C938E938281938113969C938E9312973B
:104C7000E0E0F0E08A819B81009719F0FE01EC01F1
:104C8000F9CFCE01029628813981820F931F20919E
:104C90001705309118052817390769F4309729F45A
:104CA00010921A051092190502C013821282D09335
:104CB0001805C0931705DF91CF9108956F927F92E9
:104CC0008F929F92AF92BF92CF92DF92EF92FF921C
:104CD0000F931F93CF93DF93EC01CB01209781F4C7
:104CE000DF91CF911F910F91FF90EF90DF90CF90C8
:104CF000BF90AF909F908F907F906F900C943725CE
:104D0000FE01E60FF71F9E0122503109E217F3075B
:104D100008F4ACC0D9010D911C9111970617170723
:104D2000B8F00530110508F49FC0A801445051099E
:104D30004617570708F498C002501109061B170BB5
:104D4000019311936D937C93CF010E94CF258CC06A
:104D50005B01A01AB10A4E01800E911EA0911905A7
:104D6000B0911A05612C712C60E070E0109709F485
:104D700049C0A815B905C9F5ED90FC9011976701D8
:104D800042E0C40ED11CCA14DB0478F147018A1832
:104D90009B08640142E0C40ED11C1296BC9012978D
:104DA0001396AC91B5E0CB16D10440F0B282A38348
:104DB00091828082D9018D939C9309C00E5F1F4F11
:104DC0000E0D1F1DF90111830083EB2DFA2F6115C4
:104DD000710531F0DB011396FC93EE93129744C0FA
:104DE000F0931A05E09319053FC06D917C911197DE
:104DF0006616770608F43B01BD0112960D90BC9132
:104E0000A02DB4CF6091170570911805681579052C
:104E1000E9F468167906D0F4409104015091050137
:104E20004115510541F44DB75EB76091080170918D
:104E30000901461B570BE417F507C0F4F09318055A
:104E4000E0931705F901918380830EC00E943725F6
:104E50007C01009759F0A801BE010E944230CE01AA
:104E60000E94CF25C70104C0CE0102C080E090E0BF
:104E7000DF91CF911F910F91FF90EF90DF90CF9036
:104E8000BF90AF909F908F907F906F9008950E94F9
:104E900064240E946301C0E3DBE20E945B07209769
:104EA000E1F30E94302BF9CFFC01808191810C94B9
:104EB000CF25CF93DF93EC0188819981009711F082
:104EC0000E94CF25198218821D821C821B821A82A1
:104ED000DF91CF9108950F931F93CF93DF93EC0150
:104EE0008B016F5F7F4F888199810E945E260097BA
:104EF00031F0998388831B830A8381E001C080E0BD
:104F0000DF91CF911F910F910895CF93DF93EC0123
:104F100088819981892B29F08A819B81861797073F
:104F200060F4CE010E946B27882341F08C819D8123
:104F3000892B19F4E881F981108281E0DF91CF910A
:104F40000895EF92FF920F931F93CF93DF93EC019D
:104F50007B018A01BA010E948527811104C0CE011C
:104F60000E94592707C01D830C83B701888199814E
:104F70000E945430CE01DF91CF911F910F91FF908D
:104F8000EF900895FC011182108213821282158223
:104F9000148216826115710559F0FB010190002001
:104FA000E9F7AF0141505109461B570B0C94A1275B
:104FB0000895CF93DF93EC016115710561F0FB015A
:104FC00001900020E9F7AF0141505109461B570BF2
:104FD0000E94A12702C00E945927CE01DF91CF91E4
:104FE0000895EF92FF920F931F93CF93DF93EC01FD
:104FF0007B010C811D816115710511F480E016C0E3
:105000004115510591F0040F151FB8010E94852725
:105010008823A1F3288139818C819D81B701820F7A
:10502000931F0E9454301D830C8381E0DF91CF9148
:105030001F910F91FF90EF900895CF93DF9300D0D1
:10504000CDB7DEB769831A8241E050E0BE016F5FE1
:105050007F4F0E94F1270F900F90DF91CF9108951D
:105060000F931F93CF93DF93EB0141155105E9F0A7
:105070002097D9F0FC016481758126173707A0F4C9
:10508000621B730B8A01015011096017710708F444
:105090008B01FC0160817181620F731FA801CE0139
:1050A0000E945B30C00FD11F1882DF91CF911F91FA
:1050B0000F910895CF92DF92EF92FF920F931F937B
:1050C000CF93DF936C017A01EB01E60EF71E00E04F
:1050D00010E0CE15DF0561F06991D601ED91FC91EC
:1050E0000190F081E02DC6010995080F191FF1CF3D
:1050F000C801DF91CF911F910F91FF90EF90DF904A
:10510000CF9008956115710581F0DB010D900020AD
:10511000E9F7AD0141505109461B570BDC01ED91F8
:10512000FC910280F381E02D099480E090E00895E5
:105130000C948228DC01ED91FC910190F081E02D2E
:1051400009940F931F93CF93DF93EC016DE00E94BE
:105150009A288C016AE0CE010E949A28800F911F44
:10516000DF91CF911F910F9108950F931F93CF93CC
:10517000DF93EC010E9482288C01CE010E94A128BD
:10518000800F911FDF91CF911F910F9108958F9202
:105190009F92AF92BF92CF92DF92EF92FF920F93C6
:1051A0001F93CF93DF93CDB7DEB7A1970FB6F894D7
:1051B000DEBF0FBECDBF7C01C42EE52FCB01D22EAA
:1051C00019A221E02D1510F02AE0D22E8E010F5DDC
:1051D0001F4F8D2C912CA12CB12C6C2D7E2FA50155
:1051E00094010E94C52F8C2DD29E8019112401504C
:1051F00011098A3014F4805D01C0895CF801808354
:10520000211531054105510521F0C22EE32FCA01B8
:10521000E4CFB801C7010E948228A1960FB6F89486
:10522000DEBF0FBECDBFDF91CF911F910F91FF90D9
:10523000EF90DF90CF90BF90AF909F908F900895A8
:10524000CF92DF92EF92FF920F931F93CF93DF9352
:10525000EC016A017B012115310579F4E881F981BE
:105260000190F081E02D642FDF91CF911F910F917C
:10527000FF90EF90DF90CF9009942A303105E9F448
:1052800077FF1AC06DE20E949A288C0144275527A7
:10529000BA014C195D096E097F092AE0CE010E940E
:1052A000C728800F911FDF91CF911F910F91FF9021
:1052B000EF90DF90CF9008952AE0B701A601CE01CC
:1052C000DF91CF911F910F91FF90EF90DF90CF90E2
:1052D0000C94C7289A01AB01662757FD6095762F7D
:1052E0000C9420294F925F926F927F928F929F929F
:1052F000AF92BF92CF92DF92EF92FF920F931F93E4
:10530000CF93DF93EC016A017B01B22E9A01AB01CE
:10531000C701B6010E948C2F882319F068E372E060
:1053200027C026013701E89477F82FEF3FEF4FE7CA
:105330005FE7C301B2010E948C2F81110DC02FEFD6
:105340003FEF4FE75FE7C301B2010E94122D18162D
:105350001CF46CE372E00CC02FEF3FEF4FE75FE40B
:10536000C701B6010E94D32E1816ACF460E472E0B7
:10537000CE01DF91CF911F910F91FF90EF90DF90C1
:10538000CF90BF90AF909F908F907F906F905F90E5
:105390004F900C9482282FEF3FEF4FE75FECC7014F
:1053A000B6010E94122D87FDE1CF20E030E0A90177
:1053B000C701B6010E94122D87FF0AC06DE2CE011F
:1053C0000E949A288C01F7FAF094F7F8F09402C042
:1053D00000E010E0A12C60E070E080E09FE3AB14FF
:1053E00041F020E030E040E251E40E94192DA39406
:1053F000F6CF9B01AC01C701B6010E944C2C6B019A
:105400007C010E94862D2B013C010E94B22D9B0144
:10541000AC01C701B6010E944B2C6B017C012AE054
:10542000B301A201CE010E94C728080F191FBB209B
:1054300039F068EC71E0CE010E948228080F191F34
:105440007B2C772041F120E030E040E251E4C701BD
:10545000B6010E94DE2E6B017C010E94812D4B0162
:10546000AA2497FCA094BA2C2AE030E0B501A4014C
:10547000CE010E942029080F191FC501B4010E9406
:10548000B42D9B01AC01C701B6010E944B2C6B01EE
:105490007C017A94D6CFC801DF91CF911F910F91F3
:1054A000FF90EF90DF90CF90BF90AF909F908F9044
:1054B0007F906F905F904F9008950C947229FC013B
:1054C00024853585F901E05CFF4F80819181F901E8
:1054D000EE5BFF4F20813181821B930B8F739927E5
:1054E0000895FC0184859585FC01E05CFF4F4081B7
:1054F0005181FC01EE5BFF4F208131814217530740
:1055000041F00190F081E02DE80FF91F808190E0DB
:1055100008958FEF9FEF0895FC0184859585FC0128
:10552000E05CFF4F40815181FC01EE5BFF4F208129
:1055300031814217530779F0A081B181A80FB91FBB
:105540008C91208131812F5F3F4F2F73332731831F
:10555000208390E008958FEF9FEF0895FC0181A1D3
:10556000882329F0A489B5898C9186FFFBCF11A2ED
:105570000895CF93DF93FC0126853785D901A05C80
:10558000BF4F8D919C91119701968F739927E901D7
:10559000CE5BDF4F4881598184179507D9F30D9071
:1055A000BC91A02DA20FB31F6C93A685B785A05CFC
:1055B000BF4F11969C938E93A689B7892C9181E059
:1055C00090E0078C02C0880F991F0A94E2F7282BFD
:1055D0002C9381E081A30488F589E02D808180648B
:1055E000808381E090E0DF91CF9108951F920F9228
:1055F0000FB60F9211242F933F934F938F939F9346
:10560000EF93FF938091C00082FD1CC04091C600C3
:10561000809113059091140501968F73992720911D
:105620001505309116058217930771F0E091130567
:10563000F0911405ED52FB4F408390931405809335
:10564000130502C08091C600FF91EF919F918F9149
:105650004F913F912F910F900FBE0F901F90189573
:105660008DE694E00E945F2A892B11F00C94250AA4
:1056700008951F920F920FB60F9211242F933F930C
:105680008F939F93EF93FF932091CF043091D00499
:105690008091D1049091D2042817390731F4809178
:1056A000C1008F7D8093C10014C0E091D104F091BE
:1056B000D204E157FB4F20818091D1049091D20414
:1056C00001968F7399279093D2048093D1042093ED
:1056D000C600FF91EF919F918F913F912F910F9075
:1056E0000FBE0F901F901895CF92DF92EF92FF920E
:1056F000CF93DF93EC016A017B01411581EE5807DE
:1057000061057105F9F0EC89FD8981E090E008A060
:1057100002C0880F991F0A94E2F7808360E079E065
:105720008DE390E0A70196010E94C52F2150310919
:10573000410951095695479537952795211580E1DF
:10574000380798F0EC89FD89108260E874E88EE1F2
:1057500090E0A70196010E94C52F2150310941090F
:1057600051095695479537952795E889F9893083EA
:10577000EA89FB89208319A2EE89FF89408181E0B3
:1057800090E09C010C8C02C0220F331F0A94E2F7B8
:10579000422B4083EE89FF8940819C010D8C02C021
:1057A000220F331F0A94E2F7422B4083EE89FF89D0
:1057B00040819C010E8C02C0220F331F0A94E2F735
:1057C000422B4083EE89FF8920810F8C02C0880F15
:1057D000991F0A94E2F7809582238083DF91CF910D
:1057E000FF90EF90DF90CF90089510927004109288
:1057F0006F0488EE93E0A0E0B0E080937104909392
:105800007204A0937304B093740488E492E09093BC
:105810006E0480936D0483ED94E090937A048093FA
:1058200079048FE894E090937C0480937B0485EC6A
:1058300090E090937E0480937D0484EC90E09093BC
:10584000800480937F0480EC90E0909382048093A6
:10585000810481EC90E0909384048093830482EC33
:1058600090E0909386048093850486EC90E090937A
:1058700088048093870484E08093890483E0809384
:105880008A0487E080938B0485E080938C0481E018
:1058900080938D0408955058BB27AA270ED038C294
:1058A00001D230F006D220F031F49F3F11F41EF403
:1058B000C0C10EF4E095E7FBB6C1E92F4BD280F3EF
:1058C000BA17620773078407950718F071F49EF5FD
:1058D00063C20EF4E0950B2EBA2FA02D0B01B90177
:1058E00090010C01CA01A0011124FF27591B99F056
:1058F000593F50F4503E68F11A16F040A22F232F62
:10590000342F4427585FF3CF469537952795A795B1
:10591000F0405395C9F77EF41F16BA0B620B730B58
:10592000840BBAF09150A1F0FF0FBB1F661F771FC9
:10593000881FC2F70EC0BA0F621F731F841F48F47E
:10594000879577956795B795F7959E3F08F0B3CF04
:105950009395880F08F09927EE0F979587950895EE
:10596000A1D158F080E891E009F49EEFA2D128F08F
:1059700040E851E059F45EEF09C05BC10DC2E92F68
:10598000E078E8D168F3092E052AC1F32617370716
:105990004807590738F00E2E07F8E02569F0E02592
:1059A000E0640AC0EF6307F8009407FADB01B9016D
:1059B0009D01DC01CA01AD01EF934AD0A9D10AD003
:1059C0005F91552331F02BED3FE049E450FD49EC68
:1059D00063CF0895DF93DD27B92FBF7740E85FE3FA
:1059E0001616170648075B0710F4D92FE0D19F93CE
:1059F0008F937F936F938DD2E8E6F0E01DD188D12D
:105A00002F913F914F915F91E5D1DD2349F090585F
:105A1000A2EA2AED3FE049EC5FE3D0785D274DDF55
:105A2000DF9176C1DCD008F481E008954AD1E39596
:105A300080C10CD06DC13DD140F034D130F021F4A3
:105A40005F3F19F0F0C05111A8C1F3C083D198F3A2
:105A50009923C9F35523B1F3951B550BBB27AA27EF
:105A600062177307840738F09F5F5F4F220F331F61
:105A7000441FAA1FA9F333D00E2E3AF0E0E830D02D
:105A800091505040E695001CCAF729D0FE2F27D030
:105A9000660F771F881FBB1F261737074807AB07FE
:105AA000B0E809F0BB0B802DBF01FF2793585F4F73
:105AB0002AF09E3F510568F0B6C06FC15F3FECF31E
:105AC000983EDCF3869577956795B795F7959F5F38
:105AD000C9F7880F911D9695879597F90895E1E08C
