:100000000C9425010C944D010C944D010C944D0160
:100010000C944D010C944D010C944D010C944D0128
:100020000C944D010C943F150C944D010C944D0112
:100030000C944D010C944D010C944D010C944D0108
:100040000C94512C0C944D010C944A310C94983121
:100050000C944D010C944D010C944D010C944D01E8
:100060000C9481280C944D01084AD73B3BCE016E7D
:1000700084BCBFFDC12F3D6C74319ABD56833DDAFF
:100080003D00C77F11BED9E4BB4C3E916BAAAABE0E
:10009000000000803F05A84CCDB2D44EB93836A937
:1000A000020C50B9918688083CA6AAAA2ABE000074
:1000B00000803F00000000240027002A000000000C
:1000C00000250028002B0000000000230026002946
:1000D00000040404040404040402020202020203F1
:1000E00003030303030102040810204080010204FB
:1000F000081020010204081020000000070002017F
:1001000000000304060000000000000000494E4605
:10011000494E4954594E414ECDCCCC3D0AD7233C93
:1001200017B7D13877CC2B329595E6241FB14F0AFB
:10013000000020410000C84200401C4620BCBE4CCC
:10014000CA1B0E5AAEC59D7400407A10F35A00A027
:10015000724E18090010A5D4E80000E87648170090
:1001600000E40B54020000CA9A3B000000E1F505D0
:10017000000080969800000040420F000000A0861A
:1001800001000000102700000000E803000000004C
:100190006400000000000A000000000001000000F0
:1001A00000002C76D888DC674F0823DFC1DFAE590A
:1001B000E1B1B796E5E3E453C63AE651997696E89D
:1001C000E6C28426EB898C9B62ED407C6FFCEFBC21
:1001D0009C9F40F2BAA56FA5F490055A2AF75C934C
:1001E0006B6CF9676DC11BFCE0E40D47FEF520E682
:1001F000B500D0ED902E0300943577050080841E65
:10020000080000204E0A000000C80C333333330FBF
:10021000986E12831141EF8D2114893BE65516CF5C
:10022000FEE6DB18D1844B381BF77C1D901DA4BB68
:10023000E424203284725E228100C9F124ECA1E51D
:100240003D27480619270433410611241FBECFEF6E
:10025000D8E0DEBFCDBF12E0A0E0B1E0E2E1FFE612
:1002600002C005900D92AA35B107D9F715E0AAE5AD
:10027000B2E001C01D92A132B107E1F712E0C8E47B
:10028000D2E004C02297FE010E946D37C234D1072C
:10029000C9F70E94032E0C947C370C940000EF9257
:1002A000FF920F931F93F22FF02E47FD02C0E4E060
:1002B00001C0E4E1242F332727FD309537FF03C029
:1002C000309521953F4F4F2D512F0F2FEE2E0E942D
:1002D000D3018F2D912F1F910F91FF90EF900895D3
:1002E000662777270C9435034AE552E00E94A10166
:1002F0000895FB01DC0102C001900D924150504075
:10030000D8F70895FB01DC018D910190801901104F
:10031000D9F3990B0895FB01DC0101900D920020A7
:10032000E1F70895FB01DC014150504048F0019095
:100330000D920020C9F701C01D9241505040E0F7D6
:100340000895009731F4DA018D919C91009709F49A
:100350000EC0DC01FB013D912191222319F03217DF
:10036000C9F3FACF332331F4DA011D921C928827A6
:10037000992708951197AF93BF93FB013D91219168
:10038000321771F4332321F488279927119702C07B
:100390001E921196FA01A193B0839F918F910895B7
:1003A000222369F7EACFA9E0B0E0E9EDF1E00C948F
:1003B00038376A01122FA02EBE2C2BE3201718F419
:1003C0002CE3922E02C0902E9394AE014F5F5F4FAC
:1003D00027E0092D0E949504BC018981E82EFF24A5
:1003E000C70189709070019711F4ADE209C0B1FEA8
:1003F00002C0ABE205C0B0FC02C0A0E001C0A0E2B8
:10040000E3FE3BC0AA2311F423E001C024E021173E
:1004100010F020E002C0121B212FEB2CB4FE02C012
:10042000322F0AC0F601322F80E202C08193315090
:100430003323E1F7C20ED11CAA2319F0F601A193D0
:100440006F01F6013196E2FE05C09EE4D6019C9351
:1004500081E404C09EE6D6019C9381E611968C93BC
:1004600091833296DF01832F90E202C09D938150E9
:100470008823E1F7E30FF11D40C0E2FE42C0AA234A
:1004800011F423E001C024E0211710F020E002C0A5
:10049000121B212FEB2CB4FE02C0922F0AC0F601D2
:1004A000922F80E202C0819391509923E1F7C20E0E
:1004B000D11CAA2319F0F601A1936F01F601319620
:1004C000E2FE08C089E4D6018C938EE411968C93E9
:1004D00086E407C089E6D6018C938EE611968C934C
:1004E00086E681833296DF01892F20E202C02D93B8
:1004F00081508823E1F7E90FF11D10822EEF3FEFC5
:10050000AFC0161617061CF041E050E003C0AB0167
:100510004F5F5F4FAA2019F480E090E003C08A2D5E
:1005200090E0019620E030E0AA2311F021E030E0D5
:10053000240F351F280F391F812F90E02817390706
:1005400014F020E002C0121B212F4B2D50E0CA01F5
:1005500080719070B4FC0DC0B3FC0BC0F601322F5B
:1005600040E202C0419331503323E1F7C20ED11C67
:1005700001C0322FAA2319F0F601A1936F01892B34
:1005800011F0132F0AC0F601132F80E302C08193EC
:1005900011501123E1F7C30ED11C092D060FBA80AB
:1005A00090E1892E912C8E209F20E4FE04C0F1E37F
:1005B000BF1609F40150101614F001E003C0093011
:1005C00008F008E09B0177FF02C020E030E0CB019B
:1005D0000196821B930BFE013196E80FF91F8EE204
:1005E000F82E3B01601A71088A2D90E044275527A8
:1005F000481B590B8FEF2F3F380719F4D601FD9296
:100600006D01621773072CF06216730614F4808173
:1006100001C080E32150304031962417350724F083
:10062000D6018D936D01E6CF2617370749F4B5E360
:10063000BB1528F0BB1621F48114910409F481E361
:10064000F6018193D601812F90E202C09C938150E4
:1006500011968823D9F7E10FF11D108220E030E0D8
:10066000C9012996EEE00C945437A0E0B0E0EBE32A
:10067000F3E00C943A37EC015B016115710519F058
:10068000FB0191838083F9908F2D90E00E94713758
:10069000892BC9F7FDE2FF1621F4F990EE24E394CB
:1006A00005C02BE2F21609F4F990EE248E010150F8
:1006B0001040C8016DE071E043E050E00E946D051C
:1006C000892B01F58E010E5F1F4FC80160E171E0BB
:1006D00045E050E00E946D05892B19F48E01095FF9
:1006E0001F4FA114B10419F0F50111830083E0FC40
:1006F00004C070E090E080E814C070E090E080E812
:100700006FEF08C1C80165E171E043E050E00E946D
:100710006D05892B69F4A114B10429F470E090E00F
:1007200080EC6FE7F7C02296F501D183C083F6CF46
:100730008824992440E050E060E070E0EF2DE05321
:10074000EA30A0F5F2E0EF2A8E2D90E09C012870AF
:100750003070E2FE06C0232B79F50894811C911CB1
:100760002BC0232B19F0089481089108DB01CA01E2
:1007700012E0880F991FAA1FBB1F1A95D1F7480FC7
:10078000591F6A1F7B1F440F551F661F771F4E0F8F
:10079000511D611D711D483929E9520729E9620778
:1007A00029E1720748F084E0E82A06C0EE3F31F400
:1007B000E3FC39C098E0E92AF990C0CFE53311F0A5
:1007C000E53189F529912D3219F4E0E1EE2A05C0D1
:1007D0002B3219F081E090E003C0299182E090E093
:1007E000E22FE053EA3018F0C81BD90B1CC020E000
:1007F00030E0FCE020383F075CF4C901880F991F06
:10080000880F991F280F391F220F331F2E0F311DFC
:10081000E991E053EA3068F3E4FE03C03095219596
:100820003F4F820E931ECE2CDD24E1FE07C0A114A3
:10083000B10421F02197F501D183C083CB01BA0126
:100840000E94C2347B018C01F3E0CF22DD2423E03F
:10085000C216D10421F417FB109517F91095570112
:100860006801C801B70120E030E040E050E00E949C
:100870002234882309F44AC097FE0DC02CE2E22EF0
:1008800021E0F22E9094819491089394C0E2D0E0FC
:1008900000E010E012C094E4E92E91E0F92EF6CFCA
:1008A000F7012591359145915491C601B5010E94FA
:1008B000F7355B016C018C1A9D0A8C169D0684F736
:1008C000D595C7950F5F1F4F0630110529F08CEFA6
:1008D0009FEFE80EF91EF1CFC501D6017C018D0115
:1008E0008C2D880F8D2D881F8F3F51F0C601B501CB
:1008F00020E030E040E050E00E942234882331F4D0
:1009000082E290E09093200580931F057E2D9F2D1D
:10091000802F612F272F392F482F562FB901CA0159
:10092000CDB7DEB7ECE00C945637283008F027E05E
:100930003327DA01990F311D87FD9160009661051B
:10094000710539F432602E5F3D9330E32A95E1F76B
:1009500008959F3F30F080387105610509F03C5FD4
:100960003C5F3D93913008F08068911DDF93CF93F9
:100970001F930F93FF92EF92192F987F9695E92F6F
:1009800096959695E90FFF27EE55FE4F9927332749
:10099000EE24FF24A701E70105900894079428F4AA
:1009A000360FE71EF81E491F511D660F771F881F5F
:1009B000991F0694A1F70590079428F4E70EF81EF6
:1009C000491F561FC11D770F881F991F661F069468
:1009D000A1F70590079428F4F80E491F561FC71F6A
:1009E000D11D880F991F661F771F0694A1F70590E8
:1009F000079420F4490F561FC71FD81F990F661F71
:100A0000771F881F0694A9F784911095177041F0FD
:100A1000D695C79557954795F794E7941A95C1F7DA
:100A2000E8E4F1E068941590159135916591959100
:100A300005907FE27395E118F10A430B560BC90B41
:100A4000D009C0F7E10CF11E431F561FC91FD01D6E
:100A50007EF4703311F48A95E6CFE894015030F0BB
:100A6000080F0AF40027021708F4202F2395022FFD
:100A70007A3328F079E37D932A95E9F710C07D93C6
:100A80002A9589F606949795679537951795179443
:100A9000E118F10A430B560BC90BD00998F02395C6
:100AA0007E9173957A3308F070E37C932013B8F746
:100AB0007E9170617D9330F0839571E37D9370E357
:100AC0002A95E1F71124EF90FF900F911F91CF919C
:100AD000DF91992787FD90950895FB01DC01415036
:100AE000504088F08D9181341CF08B350CF4805E81
:100AF000659161341CF06B350CF4605E861B6111EE
:100B000071F3990B0895881BFCCF81E080935C0200
:100B100080915D0290915E02019690935E028093B7
:100B20005D0280915D0290915E0264E170E00E943E
:100B3000FF3690935E0280935D020895EF92FF92DC
:100B40000F931F93DF93CF9300D000D0CDB7DEB7C4
:100B5000FC0149835A836B837C83638142812081BA
:100B600031816417E0F4862F90E0880F991F880F79
:100B7000991F280F391FE980FA800B811C81D90148
:100B8000ED92FD920D931C9313976F5F63838481A5
:100B90008F5F90E070E00E94EB36848318C0848100
:100BA0008F5F90E0642F70E00E94EB36848390E0CA
:100BB000880F991F880F991F280F391F89819A81E3
:100BC000AB81BC81F90180839183A283B3830F90B1
:100BD0000F900F900F90CF91DF911F910F91FF9089
:100BE000EF9008956091A9027091AA028091AB02E2
:100BF0009091AC022EEA3BEB49E75DE30E94F735AA
:100C000021EE3EE245E652EC0E94F735AB01BC0115
:100C100082EF92E00E949E0508958130910539F59A
:100C20006F5F7F4F69F58EEB92E060E071E00E94AC
:100C3000E82E85EC92E09093DA028093D90225E0C9
:100C40002093DB021092DC021092DD028EED92E026
:100C50009093F3028093F2022093F4021092F50233
:100C60001092F60287EF92E00E941B260895892BCE
:100C700039F46F5F7F4F21F48EEB92E00E941B2FBF
:100C8000089580E090E06FEF7FEF0E940D060895D9
:100C900081E090E06FEF7FEF0E940D0608952F92A4
:100CA0003F924F925F926F927F928F929F92AF92FC
:100CB000BF92CF92DF92EF92FF920F931F93DF9339
:100CC000CF93CDB7DEB72C970FB6F894DEBF0FBE2B
:100CD000CDBFE0908D02F0908E0200918F021091B6
:100CE000900217FB109517F91095C801B7010E94E3
:100CF00026346D837E838F839887C801B7010E9455
:100D00005A361B012C01E0908902F0908A02009172
:100D10008B0210918C02C801B7010E9426345B013E
:100D20006C01C801B7010E945A3669837A838B83AC
:100D30009C836090B1027090B2028090B302909058
:100D4000B4028091B5029091B602A091B702B09121
:100D5000B80289879A87AB87BC87C401B3012D810C
:100D60003E814F8158850E94F7357B018C01698552
:100D70007A858B859C85A20191010E94F7359B01A4
:100D8000AC01C801B7010E945B337B018C0117FBEA
:100D9000109517F91095C601B5012091AD0230915B
:100DA000AE024091AF025091B0020E94F7355B0154
:100DB0006C01C401B301A20191010E94F7352981A0
:100DC0003A814B815C810E94F7359B01AC01C601E1
:100DD000B5010E945C335B016C0169857A858B8566
:100DE0009C852D813E814F8158850E94F735298150
:100DF0003A814B815C810E94F7359B01AC01C601B1
:100E0000B5010E945C339B01AC015058C801B70189
:100E10000E94CF3360939102709392028093930269
:100E2000909394022C960FB6F894DEBF0FBECDBF00
:100E3000CF91DF911F910F91FF90EF90DF90CF90B6
:100E4000BF90AF909F908F907F906F905F904F90EA
:100E50003F902F900895AF92BF92CF92DF92EF9282
:100E6000FF920F931F93DF93CF93CDB7DEB7C65496
:100E7000D0400FB6F894DEBF0FBECDBF1A8A198AD4
:100E800085E392E0988B8F87A9E1AA2EB12CAC0E56
:100E9000BD1EBC8AAB8A8EE290E0988F8F8BFFE0FC
:100EA000CF2ED12CCC0EDD1EC6010E946915C601C5
:100EB0006CE071E00E944D306091890270918A026D
:100EC00080918B0290918C0221EE3EE245E652E445
:100ED0000E94F73543E021E07E010894E11CF11CFB
:100EE00087010E944F01C601B7010E944D30C60123
:100EF00066E171E00E944D3060918D0270918E022A
:100F000080918F029091900221EE3EE245E652E4FC
:100F10000E94F735E8E0EE2EF12CEC0EFD1E43E0CA
:100F200021E087010E944F01C601B7010E944D30A8
:100F3000C60161E271E00E944D30D5010D900020A4
:100F4000E9F7AA19BB09129760E070E021E030E0F0
:100F500085010BC0F801E20FF31F8081992787FDFF
:100F60009095682779272F5F3F4F2A173B0790F30B
:100F7000CE010F9640E150E00E943A308BEF94E0B2
:100F8000B8010E943731CA5BDF4F0FB6F894DEBF5D
:100F90000FBECDBFCF91DF911F910F91FF90EF90CA
:100FA000DF90CF90BF90AF900895DF92EF92FF92C5
:100FB0000F931F93DF93CF93CDB7DEB7AE970FB6E6
:100FC000F894DEBF0FBECDBF1F861E8685E392E07C
:100FD0009D878C87CE014696998B888B89E190E01E
:100FE0009D8B8C8B8E01045F1F4FC8010E94691579
:100FF000C80162E371E00E944D3080E090E0A0E023
:10100000B0E089839A83AB83BC83D090F402E090F4
:10101000F202F090F30210E011C069817A818B81B5
:101020009C81F70121913191419151917F010E9461
:101030005C3369837A838B839C831F5F1D1568F300
:10104000E980FA800B811C816D2D70E0882777FD87
:101050008095982F0E94C4349B01AC01C801B70150
:101060000E94293469837A838B839C8389819A8146
:10107000AB81BC8115E0E12EF12CEC0EFD1EBC0114
:10108000CD0143E021E087010E944F018E01045F02
:101090001F4FC801B7010E944D30C8016AE371E0DB
:1010A0000E944D30FE017696DF010D900020E9F799
:1010B000AE1BBF0B129760E070E021E030E08F01C3
:1010C0000BC0F801E20FF31F8081992787FD9095EF
:1010D000682779272F5F3F4F2A173B0790F3CE01F0
:1010E0000C9640E150E00E943A308BEF94E0B8015A
:1010F0000E943731AE960FB6F894DEBF0FBECDBF5B
:10110000CF91DF911F910F91FF90EF90DF900895A5
:101110006F927F928F929F92AF92BF92CF92DF9207
:10112000EF92FF920F931F93DF93CF93CDB7DEB76C
:10113000C257D0400FB6F894DEBF0FBECDBF3B0103
:101140004C011A8A198A85E392E0988B8F872DE2E9
:10115000E22EF12CEC0EFD1EFC8AEB8A84E190E07D
:10116000988F8F8B8E01015F1F4FC8010E946915F8
:10117000C8016EE371E00E944D30C401B3010E94CA
:1011800091349B01AC01C801B9014AE050E00E94D2
:101190003A30C80166E471E00E944D30D7010D90ED
:1011A0000020E9F7AE19BF09129760E070E021E076
:1011B00030E087010BC0F801E20FF31F808199270F
:1011C00087FD9095682779272F5F3F4F2A173B07A8
:1011D00090F3CE010F9640E150E00E943A308BEF41
:1011E00094E0B8010E9437316091B9027091BA025F
:1011F0008091BB029091BC0220E030E040E050E0E2
:101200000E942234882309F411C11C8E1B8E85E3B1
:1012100092E09A8F898F91E4A92EB12CAC0EBD1E5D
:10122000BE8EAD8E84E190E09AA389A389E1C82E99
:10123000D12CCC0EDD1EC6010E946915C6016CE4DE
:1012400071E00E944D30C401B3012091B902309188
:10125000BA024091BB025091BC020E945B3343E052
:1012600021E07E010894E11CF11C87010E944F01DE
:10127000C601B7010E944D30C60164E571E00E94CD
:101280004D30D5010D900020E9F7AA19BB0912973E
:1012900060E070E021E030E00BC0F501E20FF31FE9
:1012A0008081992787FD9095682779272F5F3F4F89
:1012B0002A173B0790F3CE01499640E150E00E9487
:1012C0003A308BEF94E0B5010E943731A090B9021B
:1012D000B090BA02C090BB02D090BC02C601B5016A
:1012E00020E030E040E050E00E94EC35181624F099
:1012F000D7FAD094D7F8D09408E0E02EF12CEC0E79
:10130000FD1EC601B50143E021E087010E944F01A7
:101310001EA21DA285E392E09CA38BA3CE018B5A53
:101320009F4F98A78FA38EE190E09CA78BA78E017B
:101330000D5D1F4FC8010E946915C80168E571E085
:101340000E944D30C801B401A30122E030E00E94A8
:101350003431C80160E671E00E944D30C801B70128
:101360000E944D306091B9027091BA028091BB0227
:101370009091BC0220E030E040E050E00E94223436
:10138000882324F4C80162E671E003C0C80166E660
:1013900071E00E944D308E010D5D1F4FC801BE01EE
:1013A000685F7F4F0E944D306091B9027091BA0220
:1013B0008091BB029091BC0220E030E040E050E020
:1013C0000E9422348823ACF4C8016AE671E00E94CE
:1013D0004D30FE01EB5AFF4FDF010D900020E9F781
:1013E000AE1BBF0B129760E070E021E030E08F0190
:1013F0000FC0C8016EE671E0EACFF801E20FF31FFB
:101400008081992787FD9095682779272F5F3F4F27
:101410002A173B0790F3CE01839640E150E00E94EB
:101420003A308BEF94E0B8010E943731CE58DF4F4D
:101430000FB6F894DEBF0FBECDBFCF91DF911F91E5
:101440000F91FF90EF90DF90CF90BF90AF909F9063
:101450008F907F906F900895EF92FF920F931F935C
:101460007B018C0180912A02882309F46EC08BEFE6
:1014700094E062E771E00E944D308BEF94E065E804
:1014800071E00E944D308BEF94E0B801A70122E09B
:1014900030E00E9434318BEF94E06AE871E00E9402
:1014A0004D30609185027091860280918702909103
:1014B000880221EE3EE245E652E40E94F735AB0198
:1014C000BC018BEF94E022E030E00E9434318BEFDE
:1014D00094E060E971E00E944D3060918902709162
:1014E0008A0280918B0290918C0221EE3EE245E6C9
:1014F00052E40E94F735AB01BC018BEF94E022E08F
:1015000030E00E9434318BEF94E066E971E00E9494
:101510004D3060918D0270918E0280918F0290917A
:10152000900221EE3EE245E652E40E94F735AB011F
:10153000BC018BEF94E022E030E00E9434318BEF6D
:1015400094E060E671E00E9437311F910F91FF90A7
:10155000EF9008954F925F926F927F928F929F9239
:10156000AF92BF92CF92DF92EF92FF920F931F93B1
:10157000DF93CF9300D000D00F92CDB7DEB74DB63A
:101580005EB660E671E00E9474016C014E01089441
:10159000811C911CEBC1D6018C914CEFA42E4FEF16
:1015A000B42EA00EB11E833209F0A4C07DB66EB673
:1015B000C401B60144E050E00E9492011D823BEF5D
:1015C000E32E3FEFF32EE00EF11EEDB7FEB7EA1962
:1015D000FB090FB6F894FEBF0FBEEDBF0DB71EB7E7
:1015E0000F5F1F4F96012B5F3F4FC801B901A70145
:1015F0000E9479010E0D1F1DD8011C92C4016CE9D7
:1016000071E00E948201009719F481E08093BD028D
:10161000C40161EA71E00E948201009711F4109206
:10162000BD02C40166EA71E00E948201009719F4CC
:1016300081E080932A02C4016BEA71E00E9482017A
:10164000009711F410922A02C40160EB71E00E942D
:101650008201009719F481E080932902C40165EBAF
:1016600071E00E948201009711F410922902C401D6
:101670006AEB71E00E948201009739F038C08BEF6D
:1016800094E06FEB71E00E944D308BEF94E00E948C
:101690005A328497A4F38BE993E06AE070E049E161
:1016A0000E946A140BE010E08BEF94E00E948B32F2
:1016B000482F8BE993E0B8010E946A140F5F1F4F17
:1016C0000F32110589F78DE061E00E94AF2D68EEC1
:1016D00073E080E090E00E94082D8DE060E00E94C1
:1016E000AF2D8BEF94E061EC71E00E943731872DD4
:1016F000962D30C1EDB67EB6C401B60143E050E090
:101700000E9492011C8203501040EDB7FEB7E01B0F
:10171000F10B0FB6F894FEBF0FBEEDBF0DB71EB7AD
:101720000F5F1F4F96012C5F3F4FC801B901A50104
:101730000E947901A00EB11ED5011C92C4016DED6D
:1017400071E00E948201009759F4C8010E94700163
:101750006093B9027093BA028093BB029093BC026B
:10176000C40161EE71E00E948201009709F0F0C0AF
:101770008BEF94E065EE71E00E944D3060912B0399
:1017800070912C038BEF94E04AE050E00E943A30D5
:101790008BEF94E060E671E00E944D3060912D0384
:1017A00070912E038BEF94E04AE050E00E943A30B3
:1017B0008BEF94E060E671E00E944D3060912F0362
:1017C000709130038BEF94E04AE050E00E943A3091
:1017D0008BEF94E062EF71E00E944D308BEF94E06C
:1017E00064EF71E00E944D306091310370913203DB
:1017F0008BEF94E04AE050E00E943A308BEF94E0A7
:1018000060E671E00E944D306091330370913403C3
:101810008BEF94E04AE050E00E943A308BEF94E086
:1018200060E671E00E944D3060913503709136039F
:101830008BEF94E04AE050E00E943A308BEF94E066
:1018400062EF71E00E944D308BEF94E062E072E055
:101850000E944D3040913703509138036091390315
:1018600070913A038BEF94E022E030E00E94343133
:101870008BEF94E060E671E00E944D3040913B03B5
:1018800050913C0360913D0370913E038BEF94E0D7
:1018900022E030E00E9434318BEF94E060E671E0AA
:1018A0000E944D3040913F035091400360914103AD
:1018B000709142038BEF94E022E030E00E943431DB
:1018C0008BEF94E062EF71E00E944D308BEF94E07B
:1018D0006EE072E00E944D3040914303509144030A
:1018E00060914503709146038BEF94E022E030E075
:1018F0000E9434318BEF94E060E671E00E944D303D
:1019000040914703509148036091490370914A0305
:101910008BEF94E022E030E00E9434318BEF94E0D2
:1019200060E671E00E944D3040914B0350914C03B2
:1019300060914D0370914E038BEF94E022E030E014
:101940000E9434318BEF94E062EF71E00E944D30E1
:101950008E2D972D0FB6F8949EBF0FBE8DBF80E0E1
:1019600090E060E671E00E9474016C01C114D10442
:1019700069F0D6010D900020E9F78D01015010406B
:101980000C191D090430110508F005CE0FB6F894A6
:101990005EBE0FBE4DBE0F900F900F900F900F9038
:1019A000CF91DF911F910F91FF90EF90DF90CF903B
:1019B000BF90AF909F908F907F906F905F904F906F
:1019C00008954F925F926F927F928F929F92AF9203
:1019D000BF92CF92DF92EF92FF920F931F93FFE09F
:1019E0008F2EF3E09F2EEFE6AE2EE2E0BE2E72E0E9
:1019F000672E712C6A0C7B1C64E0462E512C4A0C1D
:101A00005B1C85010A5F1F4FF5013896D5011A96B8
:101A1000C401B501A30192017F016D010E9466130B
:101A20000BEF14E060916F0270917002C8014AE000
:101A300050E00E943A3050E6E52E51E0F52EC80104
:101A4000B7010E944D306091710270917202C8011D
:101A50004AE050E00E943A30C801B7010E944D3080
:101A60006091730270917402C8014AE050E00E94D4
:101A70003A30C801B7010E944D30C4014897B50102
:101A8000A30192010E94C90F60916F0270917002D0
:101A9000C8014AE050E00E943A30C801B7010E94F4
:101AA0004D306091710270917202C8014AE050E0BD
:101AB0000E943A30C801B7010E944D306091730214
:101AC00070917402C8014AE050E00E943A30C801A7
:101AD0000E944B2F1F910F91FF90EF90DF90CF90BE
:101AE000BF90AF909F908F907F906F905F904F903E
:101AF0000895DF92EF92FF920F931F93DF93CF939E
:101B000000D000D0CDB7DEB78091BD02882319F098
:101B10000E94E10CA1C080915C02882309F49CC062
:101B200087EF92E06FE572E00E949F2180915D0255
:101B300090915E0280FD1CC087EF92E065E972E043
:101B40000E94452087EF92E065E872E00E94D8226B
:101B50000E944F060E94F20540919102509192021C
:101B6000609193027091940289ED92E00E949E052B
:101B700080915D0290915E0265E070E00E94FF3608
:101B8000892B09F069C080E090E0A0E0B0E0898393
:101B90009A83AB83BC83D090DB02E090D902F090B3
:101BA000DA0210E011C069817A818B819C81F70192
:101BB00021913191419151917F010E945C33698360
:101BC0007A838B839C831F5F1D1568F3E980FA80FD
:101BD0000B811C816D2D70E0882777FD8095982FF3
:101BE0000E94C4349B01AC01C801B7010E94293492
:101BF00069837A838B839C8329813A814B815C81C1
:101C0000B901CA0121EE3EE245E652E40E94F735F1
:101C10007B018C0120E030E040E050E00E94223463
:101C2000882354F4C801B70120E030E044EB53E4CA
:101C30000E945C337B018C01C801B7010E942C0A11
:101C400080912902882341F0C801B7010E948808C9
:101C50000E94D5070E942B0710925C020F900F90F4
:101C60000F900F90CF91DF911F910F91FF90EF9008
:101C7000DF900895CF92DF92EF92FF920F931F9320
:101C8000DF93CF93CDB7DEB7CDB6DEB63AC08BEFDC
:101C900094E00E948B32182F8EEB92E0612F0E940D
:101CA000A22E1A3071F5FDB6EEB64091C2025091E7
:101CB000C3024F5F5F4F8DB79EB7841B950B0FB666
:101CC000F8949EBF0FBE8DBF0DB71EB70F5F1F4F9D
:101CD0008EEB92E0B80120E030E00E94122EC801A5
:101CE0006CE20E94AA0A8EEB92E060E071E00E9432
:101CF000022F2F2D3E2DC9010FB6F8949EBF0FBEA7
:101D00008DBF8BEF94E00E945A32892B09F0BFCF30
:101D10000FB6F894DEBE0FBECDBECF91DF911F91FE
:101D20000F91FF90EF90DF90CF9008958EEB92E0AF
:101D300068E270E00E94592E8BEF94E040E056E993
:101D400060E070E00E94D33180EF93E00E94BD27F5
:101D500087EF92E061E00E94152664E670E080E083
:101D600090E045E855E00E94DE140E94EA148DE000
:101D700061E00E94702D1092DC021092DD026091F1
:101D8000D9027091DA0290E020E030E040E050E0CB
:101D90000DC0E92FF0E0EE0FFF1FEE0FFF1FE60F63
:101DA000F71F20833183428353839F5F8091DB023F
:101DB000981778F30895FC0180E090E0A0E8BFE375
:101DC00080839183A283B38384839583A683B7831F
:101DD00080879187A287B3870895CF92DF92EF9291
:101DE000FF921F93CF93DF93EB016A01790180EF9C
:101DF00093E06EE170E00E94DF2680EF93E063E005
:101E00000E94612780EF93E00E94A42780EF93E077
:101E10006EE170E00E94DF2680EF93E06EE170E0FB
:101E200046E050E00E94B52780EF93E00E94E9264B
:101E3000069779F580EF93E00E94F226182F80EF45
:101E400093E00E94F226312F20E0282B392B398392
:101E5000288380EF93E00E94F226182F80EF93E012
:101E60000E94F226312F20E0282B392BF7013183F5
:101E7000208380EF93E00E94F226182F80EF93E0FA
:101E80000E94F226312F20E0282B392BF6013183D6
:101E9000208380EF93E00E94A427DF91CF911F91D0
:101EA000FF90EF90DF90CF900895AF92BF92CF92C6
:101EB000DF92EF92FF920F931F93DF93CF9300D0A7
:101EC00000D000D0CDB7DEB78C017B016A0159018B
:101ED000BE016F5F7F4FAE014D5F5F4F9E012B5F75
:101EE0003F4F0E94ED0E69817A81882777FD8095AA
:101EF000982F0E94C434F80120813181428153819E
:101F00000E942934F70160837183828393836B81FC
:101F10007C81882777FD8095982F0E94C434F80132
:101F200024813581468157810E942934F6016083DE
:101F30007183828393836D817E81882777FD80956D
:101F4000982F0E94C434F80120853185428553853D
:101F50000E942934F50160837183828393832696DE
:101F60000FB6F894DEBF0FBECDBFCF91DF911F91AA
:101F70000F91FF90EF90DF90CF90BF90AF900895BA
:101F8000AB019B01285F3F4F4C5F5F4F0E94550F95
:101F90000895CF92DF92EF92FF920F931F93DF93FA
:101FA000CF93CDB7DEB72C970FB6F894DEBF0FBE38
:101FB000CDBF8B017A016901BE016F5F7F4FAE011A
:101FC0004B5F5F4F9E01275F3F4F0E94550F698116
:101FD0007A818B819C8120E030E040E05FE30E94C9
:101FE0005C330E949134F801718360836D817E813E
:101FF0008F81988520E030E040E05FE30E945C3311
:102000000E949134F7017183608369857A858B859D
:102010009C8520E030E040E05FE30E945C330E945A
:102020009134F601718360832C960FB6F894DEBF6D
:102030000FBECDBFCF91DF911F910F91FF90EF9019
:10204000DF90CF900895EF92FF920F931F93162F7A
:10205000042F80EFE82E83E0F82EC7016EE170E0D8
:102060000E94DF26C701612F0E946127C701602FF0
:102070000E946127C7010E94A4271F910F91FF9022
:10208000EF900895462F683030F44295440F407E1B
:1020900061E00E9423100895462F673028F4440F12
:1020A000440F60E00E9423100895462F633048F4E7
:1020B00062E00E94231064E670E080E090E00E94FD
:1020C000082D08952F923F924F925F926F927F92C8
:1020D0008F929F92AF92BF92CF92DF92EF92FF9238
:1020E0000F931F93DF93CF93CDB7DEB768970FB6EB
:1020F000F894DEBF0FBECDBF9E878D87162F80E080
:1021000090E0A0E8BFE3ED85FE8580839183A28304
:10211000B38384839583A683B78380879187A287BF
:10212000B387CF0160E041E10E9423108D859E8539
:10213000612F0E9442101F8A188EEE24FF241B8AF2
:102140001C8A1D8A1E8A1F86188A198A1A8A00E02C
:1021500010E08D859E8561E00E9455108D859E85DD
:10216000BE016F5F7F4FAE014B5F5F4F9E01275FE8
:102170003F4F0E94550F29803A804B805C80C201FE
:10218000B1012F89388DA7010E94EC3518162CF06B
:102190008F89988DD7011C012D016D807E808F80E5
:1021A0009884C401B3012B893C894D895E890E94C2
:1021B000EC35181634F08B899C89AD89BE893C01B9
:1021C0004D01A984BA84CB84DC84C601B5012F8576
:1021D000388949895A890E94EC35181634F08F8560
:1021E0009889A989BA895C016D010F5F1F4F0A3078
:1021F000110591F0D201C1012F8A988F7D01D40180
:10220000C3016B8A9C8BAD8BBE8BD601C501AF869B
:10221000988BA98BBA8B9DCFC201B10120E030E031
:1022200040E050E00E94EC3518161CF48201710168
:102230000AC00F2EF0E0EF2EF0E0FF2EF0E00F2F9F
:10224000F0E01F2FF02DC401B301A80197010E94F7
:10225000EC35181614F484017301C601B501A80108
:1022600097010E94EC35181614F486017501ED856E
:10227000FE852486358646865786608A718A828ADC
:10228000938AA48AB58AC68AD78AC801B701A201EF
:1022900091010E942934ED85FE85608371838283DC
:1022A0009383C801B701A40193010E942934ED85ED
:1022B000FE856483758386839783C801B701A60171
:1022C00095010E942934ED85FE856087718782879C
:1022D0009387CF0160E040E10E94231068960FB61B
:1022E000F894DEBF0FBECDBFCF91DF911F910F914C
:1022F000FF90EF90DF90CF90BF90AF909F908F9026
:102300007F906F905F904F903F902F9008951F9314
:10231000CF93DF93EC01162F65E070E080E090E052
:102320000E94082D112321F0CE0160E00E9455107B
:10233000CE0160E040E70E942310CE0161E040EA58
:102340000E942310CE0162E040E00E942310DF9142
:10235000CF911F910895DF92EF92FF920F931F93F9
:10236000CF93DF93F62EE42ED22E8823C9F480EF8C
:1023700093E00E94D52680EF93E06E2D0E946127A6
:10238000E80110E006C080EF93E069910E946127A8
:102390001F5F1D15C0F380EF93E00E94A4271AC0B1
:1023A000862F60E00E94AF2DEEBC0DB407FEFDCF7E
:1023B0008EB5F80190E008C080818EBD0DB407FE97
:1023C000FDCF8EB59F5F31969D15B0F38F2D61E0E7
:1023D0000E94AF2D81E0DF91CF911F910F91FF906F
:1023E000EF90DF9008950F931F93DF93CF930F9299
:1023F000CDB7DEB7298321E08E010F5F1F4F0E940A
:10240000AB110F90CF91DF911F910F9108955F92C3
:102410006F927F928F929F92AF92BF92CF92DF92F4
:10242000EF92FF920F931F93CF93DF93962ED42EAC
:10243000522EC02E5701882309F05EC080EF93E032
:102440000E94D52680EF93E06D2D0E94612780EFDA
:1024500093E00E94A42780EF93E0692D0E94D52687
:1024600080EF93E0692D452D0E94B9270E94992C99
:102470003B014C01802F912F9C01E90100E010E00D
:10248000CE018C19D82E80EF93E00E94E926892B8B
:1024900009F462C0A114B10459F00E94992C661984
:1024A0007709880999096E157F058007910730F42F
:1024B00080EF93E00E94F2268993E2CF0E94992C4C
:1024C0006619770988099909950140E050E062177B
:1024D00073078407950758F02D2D332727FD309576
:1024E000852D90E02817390714F4DD24DA9480EF65
:1024F00093E00E94A4271FC0862F60E00E94AF2DAA
:1025000090E8D92ADEBC0DB407FEFDCF8EB58C2D28
:10251000912F9C01F90106C01EBC0DB407FEFDCF32
:102520008EB581938E2F8C198515B0F3D52C892DFE
:1025300061E00E94AF2D8D2DDF91CF911F910F9102
:10254000FF90EF90DF90CF90BF90AF909F908F90D3
:102550007F906F905F900895A114B10441F2AECFC7
:10256000EF92FF920F931F93F901780121E08F0101
:102570000E9407121F910F91FF90EF900895AF9264
:10258000BF92CF92DF92EF92FF920F931F93DF9350
:10259000CF930F92CDB7DEB7C82EB62EA42EF22E53
:1025A000D02E00912B0210912C029E012F5F3F4FE5
:1025B0000E94B0128823B9F16F2D70E02D2D30E00C
:1025C0004E2D50E088E090E0821B930B02C0440F38
:1025D000551F8A95E2F750E087E090E0861B970B45
:1025E00002C0559547958A95E2F7261B370B295F60
:1025F0003F4F8FEF90E0FC0102C0F595E7952A95DB
:10260000E2F79F016F5F7F4F02C0880F991F6A95A5
:10261000E2F7282B89812823242B29838C2D6B2DED
:102620004A2D0E94F3110F90CF91DF911F910F91CE
:10263000FF90EF90DF90CF90BF90AF900895BF9242
:10264000CF92DF92EF92FF920F931F93DF93CF937E
:102650000F92CDB7DEB7D82EC62EB42EE22EF02EB6
:1026600000912B0210912C029E012F5F3F4F0E9480
:10267000B0123981FF2051F081E090E002C0880F54
:10268000991FEA94E2F7232F282B0AC081E090E0FB
:1026900002C0880F991FEA94E2F7282F2095232380
:1026A00029838D2D6C2D4B2D0E94F3110F90CF910E
:1026B000DF911F910F91FF90EF90DF90CF90BF902F
:1026C00008950895FC016083418308952F923F92FD
:1026D0004F925F926F927F928F929F92AF92BF9232
:1026E000CF92DF92EF92FF920F931F93CF93DF93DE
:1026F0005C014B013A0129011801E7018C010E5FD1
:102700001F4FE0902B02F0902C02FC018081618130
:102710004BE32EE00E940712F501928180E02381B5
:1027200030E0822B932BF40191838083F501948117
:1027300080E0258130E0822B932BF301918380830D
:10274000F501968180E0278130E0822B932BF20106
:1027500091838083F501928580E0238530E0822B90
:10276000932BF10191838083F501948580E0258589
:1027700030E0822B932B99838883968580E0278590
:1027800030E0822B932BF60191838083DF91CF91F0
:102790001F910F91FF90EF90DF90CF90BF90AF907F
:1027A0009F908F907F906F905F904F903F902F9071
:1027B00008950F93FC01062F808161814BE626E08E
:1027C0000E941F130F9108950F93FC018081618176
:1027D0004BE627E001E00E941F130F9108950F932D
:1027E000FC01062F808161814AE624E00E941F13CC
:1027F0000F910895EF920F93FC01E62E8081618185
:102800004BE622E003E00E94BF120F91EF90089583
:10281000EF920F93FC01E62E808161814CE124E070
:1028200002E00E94BF120F91EF900895EF920F9374
:10283000FC01E62E808161814BE124E002E00E94F0
:10284000BF120F91EF900895CF93DF93EC010E9498
:10285000412A81E00E94302A6AE070E080E090E046
:102860000E94082D88818823D9F0898161E00E9427
:10287000702D898161E00E94AF2DCE010E94E4138A
:1028800064E670E080E090E00E94082DCE0161E0F7
:102890000E94EF1361E070E080E090E00E94082D5C
:1028A000CE0161E00E94FA13CE0160E00E9416148E
:1028B000CE0160E00E940814CE0160E00E94D913AE
:1028C000DF91CF910895F999FECF72BD61BDF89A5D
:1028D00080B50895F999FECF1FBA72BD61BD40BDA4
:1028E0000FB6F894FA9AF99A0FBE0895CF92DF9234
:1028F000EF92FF920F931F936B017C018091700008
:102900008E7F809370008091B0008C7F8093B000A8
:102910008091B100877F8093B1008091B6008F7D58
:102920008093B600809170008D7F809370008091BD
:10293000B10084608093B1008091B1008C7F80935E
:10294000B100CA01B90120E034E244E75BE40E942F
:10295000F73520E030E040E85CE30E94F7350E9464
:10296000913420E031E0261B370B3093A8032093ED
:10297000A703C114D104E104F10469F481E090E0FB
:10298000A0E0B0E080939C0390939D03A0939E03EE
:10299000B0939F0308C0C0929C03D0929D03E09225
:1029A0009E03F0929F031093A1030093A0031F9135
:1029B0000F91FF90EF90DF90CF9008950F931F93AA
:1029C0008A012FE632E143E85AE30E9476141F9110
:1029D0000F9108951092A2031092A3031092A403E2
:1029E0001092A5031092A6038091A7039091A803CB
:1029F0008093B200E0E7F0E08081816080830895F9
:102A00008091A2039091A303A091A403B091A50388
:102A10000196A11DB11D8093A2039093A303A093DF
:102A2000A403B093A5032091A2033091A303409186
:102A3000A4035091A50380919C0390919D03A091C4
:102A40009E03B0919F03281739074A075B07B0F030
:102A50008091A603882391F481E08093A6031092CD
:102A6000A2031092A3031092A4031092A503E09175
:102A7000A003F091A10309951092A60308951F9257
:102A80000F920FB60F9211242F933F934F935F93A2
:102A90006F937F938F939F93AF93BF93EF93FF9326
:102AA0008091A7039091A8038093B2000E94001523
:102AB000FF91EF91BF91AF919F918F917F916F9116
:102AC0005F914F913F912F910F900FBE0F901F90EC
:102AD0001895FC01A481B581B783A6838085918573
:102AE000892B09F01C920895FC01A681B781AD01E4
:102AF0004F5F5F4F8481958120853185820F931FC1
:102B00004817590728F46C935783468311961C92F3
:102B100081E090E008956F927F928F929F92AF92A2
:102B2000BF92CF92DF92EF92FF920F931F93DF93AA
:102B3000CF93CDB7DEB760970FB6F894DEBF0FBE68
:102B4000CDBF7B018C0180E090E0A0ECBFE38D87DE
:102B50009E87AF87B88BC801B70120E030E040E026
:102B60005FE30E94F7356D837E838F839887E986C4
:102B7000FA860B871C8789859A85AB85BC858983F6
:102B80009A83AB83BC8329813A814B815C815595C3
:102B900047953795279586E89AE5A7E3BFE5821B19
:102BA000930BA40BB50B89839A83AB83BC83898178
:102BB0009A81AB81BC8189879A87AB87BC876984FE
:102BC0007A848B849C84AD84BE84CF84D8886D81C4
:102BD0007E818F81988529853A854B855C85E9843E
:102BE000FA840B851C850E94F735A80197010E9485
:102BF000F7359B01AC01C601B5010E945B339B0117
:102C0000AC01C401B3010E94F73569877A878B87CD
:102C10009C8789859A85AB85BC85BC01CD01609672
:102C20000FB6F894DEBF0FBECDBFCF91DF911F91DD
:102C30000F91FF90EF90DF90CF90BF90AF909F905B
:102C40008F907F906F9008952F923F924F925F9256
:102C50006F927F928F929F92AF92BF92CF92DF92AC
:102C6000EF92FF920F931F93DF93CF93CDB7DEB711
:102C7000CE5BD0400FB6F894DEBF0FBECDBFA79697
:102C80009FAF8EAFA797AB964CAF5DAF6EAF7FAFE8
:102C9000AB97AF960CAF1DAF2EAF3FAFAF97E3969C
:102CA000CCAEDDAEEEAEFFAEE397E7968CAE9DAE5A
:102CB000AEAEBFAEE7978C0104581F4FD8018D917F
:102CC0009D910D90BC91A02DA5968CAF9DAFAEAF00
:102CD000BFAFA597D8018D919D910D90BC91A02D6E
:102CE000A1968CAF9DAFAEAFBFAFA197F801608149
:102CF000718182819381A796EEACFFACA79720E803
:102D000030E0E20EF31ED7012D913D914D915C9183
:102D10000E94F73569A77AA78BA79CA7F801608165
:102D2000718182819381A796CEACDFACA79724E80E
:102D300030E0C20ED31ED6012D913D914D915C9194
:102D40000E94F7356DA37EA38FA398A7D8018D911C
:102D50009D910D90BC91A02D6D968CAF9DAFAEAFA7
:102D6000BFAF6D97A7960EAD1FADA79708571F4F22
:102D7000F8012080318042805380D7018D919D9150
:102D80000D90BC91A02D69968CAF9DAFAEAFBFAF3B
:102D90006997D7018D919D910D90BC91A02D65965D
:102DA0008CAF9DAFAEAFBFAF6597D7018D919D91B1
:102DB0000D90BC91A02D61968CAF9DAFAEAFBFAF13
:102DC0006197F60180809180A280B380D7016D91D8
:102DD0007D918D919C91F8012081318142815381B7
:102DE0000E94F73569A37AA38BA39CA3D6018D918A
:102DF0009D910D90BC91A02D2D968CAF9DAFAEAF47
:102E0000BFAF2D97D6018D919D910D90BC91A02DB6
:102E100029968CAF9DAFAEAFBFAF2997F601608109
:102E2000718182819381D8012D913D914D915C9169
:102E30000E94F7356D8F7E8F8F8F98A3F801608188
:102E400071818281938120813181428153810E94ED
:102E5000F735698F7A8F8B8F9C8FC552DF4F6881D2
:102E600079818A819B81CB5DD04020E030E040E0D9
:102E700050E00E942234882309F425C3C152DF4F59
:102E8000688179818A819B81CF5DD04020E030E0EC
:102E900040E050E00E942234882309F414C3CD514D
:102EA000DF4F688179818A819B81C35ED04020E0B9
:102EB00030E040E050E00E942234882309F403C34C
:102EC0006D966CAD7DAD8EAD9FAD6D97A2019101FC
:102ED0000E94F7351B012C0161966CAD7DAD8EAD66
:102EE0009FAD6197A50194010E94F7353B014C010C
:102EF0002D966CAD7DAD8EAD9FAD2D9729962CADE9
:102F00003DAD4EAD5FAD29970E94F735EB966CAFA6
:102F10007DAF8EAF9FAFEB97C552DF4F6881798150
:102F20008A819B81CB5DD0409B01AC010E94F7352B
:102F30007B018C01C152DF4F688179818A819B813D
:102F4000CF5DD0409B01AC010E94F7359B01AC01E5
:102F5000C801B7010E945C337B018C01CD51DF4F6A
:102F6000688179818A819B81C35ED0409B01AC01DD
:102F70000E94F7359B01AC01C801B7010E945C3388
:102F80000E948B157B018C01C552DF4F68817981CE
:102F90008A819B81CB5DD040A80197010E94F735C3
:102FA000EF966CAF7DAF8EAF9FAFEF97C152DF4F03
:102FB000688179818A819B81CF5DD040A80197018A
:102FC0000E94F735C158DF4F688379838A839B83DA
:102FD000CF57D040CD51DF4F688179818A819B8165
:102FE000C35ED040A80197010E94F735CD57DF4F4F
:102FF000688379838A839B83C358D04060E070E004
:1030000080E09FE3EB962CAD3DAD4EAD5FADEB9711
:103010000E945B33298D3A8D4B8D5C8D0E945B3312
:10302000C957DF4F688379838A839B83C758D04011
:10303000C401B301A20191010E945B33C557DF4F68
:10304000688379838A839B83CB58D04069A17AA116
:103050008BA19CA12DA13EA14FA158A50E945C333C
:10306000C157DF4F688379838A839B83CF58D040D1
:10307000EF966CAD7DAD8EAD9FADEF97C957DF4F2D
:10308000288139814A815B81C758D0400E94F73539
:103090007B018C01C158DF4F688179818A819B81D6
:1030A000CF57D040C557DF4F288139814A815B8196
:1030B000CB58D0400E94F7359B01AC01C801B70145
:1030C0000E945C337B018C01CD57DF4F6881798191
:1030D0008A819B81C358D040C157DF4F28813981F5
:1030E0004A815B81CF58D0400E94F7359B01AC01EB
:1030F000C801B7010E945C339B01AC010E945C33A4
:103100005B016C0169966CAD7DAD8EAD9FAD69972D
:1031100065962CAD3DAD4EAD5FAD65970E94F73520
:103120009B01AC0160E070E080E09FE30E945B33B4
:10313000CD56DF4F688379838A839B83C359D04000
:10314000C401B301A20191010E945C339B01AC0157
:10315000EF966CAD7DAD8EAD9FADEF970E94F735CC
:103160007B018C01CD56DF4F688179818A819B81FB
:10317000C359D040298D3A8D4B8D5C8D0E945B33B5
:103180009B01AC01C158DF4F688179818A819B81A5
:10319000CF57D0400E94F7359B01AC01C801B70161
:1031A0000E945C337B018C016D8D7E8D8F8D98A18B
:1031B00029A53AA54BA55CA50E945B339B01AC01F8
:1031C000CD57DF4F688179818A819B81C358D04078
:1031D0000E94F7359B01AC01C801B7010E945C3326
:1031E0009B01AC010E945C337B018C01C601B501DF
:1031F000A60195010E94F7355B016C01C801B7017A
:10320000A80197010E94F7359B01AC01C601B501E9
:103210000E945C330E9464363B014C0169A17AA193
:103220008BA19CA12DA13EA14FA158A50E945B336B
:103230001B012C016D8D7E8D8F8D98A129A53AA53E
:103240004BA55CA50E945C33C956DF4F6883798328
:103250008A839B83C759D040CD56DF4F68817981DF
:103260008A819B81C359D040EB962CAD3DAD4EADCC
:103270005FADEB970E945B33C556DF4F6883798360
:103280008A839B83CB59D040EF966CAD7DAD8EADDC
:103290009FADEF97A20191010E94F7357B018C0150
:1032A000C158DF4F688179818A819B81CF57D04097
:1032B000C956DF4F288139814A815B81C759D04087
:1032C0000E94F7359B01AC01C801B7010E945C3335
:1032D0007B018C01CD57DF4F688179818A819B8189
:1032E000C358D040C556DF4F288139814A815B8160
:1032F000CB59D0400E94F7359B01AC01C801B70102
:103300000E945C339B01AC010E945C335B016C0149
:10331000C401B301C957DF4F288139814A815B81DC
:10332000C758D0400E94F7357B018C01C601B5011A
:10333000A20191010E94F7359B01AC01C801B701C0
:103340000E945C33C156DF4F688379838A839B83F5
:10335000CF59D040C401B301C557DF4F288139810F
:103360004A815B81CB58D0400E94F7357B018C01AC
:10337000C601B501C956DF4F288139814A815B8179
:10338000C759D0400E94F7359B01AC01C801B70175
:103390000E945C331B012C01C401B301C157DF4FF4
:1033A000288139814A815B81CF58D0400E94F7350E
:1033B0007B018C01C601B501C556DF4F28813981DB
:1033C0004A815B81CB59D0400E94F7359B01AC010B
:1033D000C801B7010E945C335B016C01C158DF4F2B
:1033E000688179818A819B81CF57D040A601950160
:1033F0000E94F7357B018C01CD57DF4F68817981C1
:103400008A819B81C358D040A20191010E94F73567
:103410009B01AC01C801B7010E945B336D8B7E8BB1
:103420008F8B988FCD57DF4F688179818A819B81FF
:10343000C358D040C156DF4F288139814A815B8112
:10344000CF59D0400E94F7357B018C01EF966CADCF
:103450007DAD8EAD9FADEF97A60195010E94F7352A
:103460009B01AC01C801B7010E945B33698B7A8B69
:103470008B8B9C8BEF966CAD7DAD8EAD9FADEF973A
:10348000A20191010E94F7357B018C01C158DF4FE9
:10349000688179818A819B81CF57D040C156DF4FA7
:1034A000288139814A815B81CF59D0400E94F7350C
:1034B0009B01AC01C801B7010E945B336D877E8719
:1034C0008F87988B16C00F2EF0E0EF2EF0E0FF2EC6
:1034D000F0E00F2FF0E01F2FF02DED8AFE8A0F8B0A
:1034E000188FE98AFA8A0B8B1C8BED86FE860F8774
:1034F000188BE7966CAD7DAD8EAD9FADE79720E064
:1035000030E040E050E00E942234882309F44AC1B0
:10351000CD52DF4F688179818A819B81C35DD04024
:1035200020E030E040E050E00E942234882309F49B
:1035300039C1C952DF4F688179818A819B81C75D1A
:10354000D04020E030E040E050E00E942234882368
:1035500009F428C1E7966CAD7DAD8EAD9FADE797C0
:103560009B01AC010E94F7357B018C01CD52DF4FEE
:10357000688179818A819B81C35DD0409B01AC01C8
:103580000E94F7359B01AC01C801B7010E945C3372
:103590007B018C01C952DF4F688179818A819B81CF
:1035A000C75DD0409B01AC010E94F7359B01AC0187
:1035B000C801B7010E945C330E948B157B018C010E
:1035C000E7966CAD7DAD8EAD9FADE797A8019701F5
:1035D0000E94F735CD55DF4F688379838A839B83BB
:1035E000C35AD040CD52DF4F688179818A819B8157
:1035F000C35DD040A80197010E94F735C955DF4F40
:10360000688379838A839B83C75AD040C952DF4F2E
:10361000688179818A819B81C75DD040A80197012B
:103620000E94F7353B014C0169A17AA18BA19CA1B5
:103630002DA13EA14FA158A50E945B33C555DF4F78
:10364000688379838A839B83CB5AD04069A57AA506
:103650008BA59CA52D8D3E8D4F8D58A10E945C336E
:103660001B012C01A5966CAD7DAD8EAD9FADA597D0
:10367000A1962CAD3DAD4EAD5FADA1970E94F73543
:1036800020E030E040E05FE30E945B33298D3A8D1B
:103690004B8D5C8D0E945C335B016C01C955DF4F23
:1036A000688179818A819B81C75AD040A6019501A2
:1036B0000E94F7357B018C01C401B301A201910185
:1036C0000E94F7359B01AC01C801B7010E945B3332
:1036D0009B01AC016D897E898F89988D0E945C3336
:1036E0006D8B7E8B8F8B988FC401B301C555DF4FD7
:1036F000288139814A815B81CB5AD0400E94F735BD
:103700007B018C01CD55DF4F688179818A819B8156
:10371000C35AD040A60195010E94F7359B01AC0128
:10372000C801B7010E945B339B01AC0169897A89AA
:103730008B899C890E945C33698B7A8B8B8B9C8BE9
:10374000CD55DF4F688179818A819B81C35AD040F2
:10375000A20191010E94F7357B018C01C955DF4F11
:10376000688179818A819B81C75AD040C555DF4FD6
:10377000288139814A815B81CB5AD0400E94F7353C
:103780009B01AC01C801B7010E945B339B01AC01F6
:103790006D857E858F8598890E945C336D877E87D5
:1037A0008F87988B6D897E898F89988D20E030E096
:1037B00040E050E00E942234882309F491C16989D5
:1037C0007A898B899C8920E030E040E050E00E94BB
:1037D0002234882309F484C16D857E858F8598897C
:1037E00020E030E040E050E00E942234882309F4D9
:1037F00077C1A7964EAC5FACA79708E710E0400EE4
:10380000511ED2016D917D918D919C9120E030E00F
:1038100040E050E00E94EC35A7962EAC3FACA79755
:10382000ECE8F0E02E0E3F1EA7960EAD1FADA79759
:1038300000571F4FC554DF4F19830883CB5BD0401F
:10384000A7962EAD3FADA7972C563F4FC354DF4FE1
:1038500039832883CD5BD04018160CF0CDC0D10140
:103860006D907D908D909C90F2016081718182813C
:1038700093812D893E894F89588D0E94F7357B01B0
:103880008C01A796EEADFFADA797E056FF4F60E025
:1038900070E080E89FE320813181428153810E9462
:1038A00029345B016C01C801B701A60195010E9492
:1038B000F7359B01AC01C401B3010E945C33D10117
:1038C0006D937D938D939C931397C554DF4FE8813F
:1038D000F981CB5BD040E080F18002811381D2017D
:1038E0006D917D918D919C9129893A894B895C8953
:1038F0000E94F735A60195010E94F7359B01AC01A6
:10390000C801B7010E945C33C554DF4FE881F981DB
:10391000CB5BD0406083718382839383C354DF4F3A
:10392000A881B981CD5BD040ED90FD900D911C91A7
:10393000F20160817181828193812D853E854F8561
:1039400058890E94F735A60195010E94F7359B0121
:10395000AC01C801B7010E945C33C354DF4FA8819A
:10396000B981CD5BD0406D937D938D939C931397DC
:10397000F1012081318142815381AB966CAD7DADE7
:103980008EAD9FADAB970E945C33AB966CAF7DAFB5
:103990008EAF9FAFAB97C554DF4FA881B981CB5B8A
:1039A000D0402D913D914D915C91AF966CAD7DAD28
:1039B0008EAD9FADAF970E945C33AF966CAF7DAF7D
:1039C0008EAF9FAFAF97C354DF4FE881F981CD5BD6
:1039D000D0402081318142815381E3966CAD7DAD31
:1039E0008EAD9FADE3970E945C33E3966CAF7DAFE5
:1039F0008EAF9FAFE3971DC080E090E0A0E0B0E005
:103A0000F10180839183A283B383C554DF4FE881A2
:103A1000F981CB5BD04080839183A283B383C3546D
:103A2000DF4FE881F981CD5BD04080839183A28311
:103A3000B383A7960EAD1FADA7970C581F4FD801A3
:103A40006D917D918D919C912D893E894F89588DE5
:103A50000E94F7359B01AC01AB966CAD7DAD8EAD90
:103A60009FADAB970E945C33AB966CAF7DAF8EAFD2
:103A70009FAFAB97F8016081718182819381298921
:103A80003A894B895C890E94F7359B01AC01AF965E
:103A90006CAD7DAD8EAD9FADAF970E945C33AF96A0
:103AA0006CAF7DAF8EAF9FAFAF97D8016D917D9119
:103AB0008D919C912D853E854F8558890E94F735C3
:103AC0009B01AC01E3966CAD7DAD8EAD9FADE397F0
:103AD0000E945C33E3966CAF7DAF8EAF9FAFE397F0
:103AE000A796EEADFFADA797E056FF4F60E070E000
:103AF00080E89FE320813181428153810E942934F3
:103B000020E030E040E05FE30E94F7357B018C016C
:103B1000AB966CAD7DAD8EAD9FADAB97A801970117
:103B20000E94F735C155DF4F688379838A839B8371
:103B3000CF5AD040AF966CAD7DAD8EAD9FADAF97F7
:103B4000A80197010E94F7351B012C01E3966CAD8B
:103B50007DAD8EAD9FADE397A80197010E94F7352B
:103B60003B014C01A796EEADFFADA797E458FF4F80
:103B7000CD54DF4FF983E883C35BD040E080F18010
:103B800002811381E986FA860B871C87A796EEAD22
:103B9000FFADA797E058FF4FCB54DF4FF983E88381
:103BA000C55BD040E080F18002811381ED82FE820E
:103BB0000F831887A796EEADFFADA797EC57FF4F81
:103BC000C954DF4FF983E883C75BD040E080F180C0
:103BD00002811381E982FA820B831C83CD54DF4F6B
:103BE000A881B981C35BD040ED90FD900D911C91EF
:103BF0002596ECAEFDAE0EAF1FAF2597A796EEADA6
:103C0000FFADA797E857FF4FC754DF4FF983E8830D
:103C1000C95BD040A080B180C280D3806D817E819D
:103C20008F8198859058C155DF4F288139814A810D
:103C30005B81CF5AD0400E94F7357B018C016981AE
:103C40007A818B819C81A20191010E94F7359B01B1
:103C5000AC01C801B7010E945B337B018C01C60136
:103C6000B501A40193010E94F7359B01AC01C80185
:103C7000B7010E945B339B01AC0125966CAD7DAD15
:103C80008EAD9FAD25970E945C33CD54DF4FA88148
:103C9000B981C35BD0406D937D938D939C931397B3
:103CA000CB54DF4FA881B981C55BD040ED90FD902A
:103CB0000D911C912196ECAEFDAE0EAF1FAF21977A
:103CC000C754DF4FE881F981C95BD040A080B18043
:103CD000C280D38069857A858B859C85C155DF4FED
:103CE000288139814A815B81CF5AD0400E94F735C3
:103CF0007B018C0169817A818B819C81A401930174
:103D00000E94F7359B01AC01C801B7010E945C33EA
:103D10007B018C01C601B501A20191010E94F7351A
:103D20009B01AC01C801B7010E945B339B01AC0150
:103D300021966CAD7DAD8EAD9FAD21970E945C3319
:103D4000CB54DF4FA881B981C55BD0406D937D9383
:103D50008D939C931397C954DF4FA881B981C75B9A
:103D6000D040ED90FD900D911C91E9AEFAAE0BAFF5
:103D70001CAFC754DF4FE881F981C95BD040A080F8
:103D8000B180C280D38069857A858B859C85A201AC
:103D900091010E94F7357B018C016D817E818F81BD
:103DA0009885A40193010E94F7359B01AC01C801DD
:103DB000B7010E945B337B018C01C601B501C1557F
:103DC000DF4F288139814A815B81CF5AD0400E94E0
:103DD000F7359B01AC01C801B7010E945C339B0120
:103DE000AC0169AD7AAD8BAD9CAD0E945C33C9541A
:103DF000DF4FA881B981C75BD0406D937D938D93D0
:103E00009C931397C754DF4FE881F981C95BD04079
:103E1000A080B180C280D38069857A858B859C859E
:103E2000A40193010E94F7357B018C016D817E8195
:103E30008F819885A20191010E94F7359B01AC0109
:103E4000C801B7010E945C337B018C0169817A81D2
:103E50008B819C81C155DF4F288139814A815B81EB
:103E6000CF5AD0400E94F7359B01AC01C801B70181
:103E70000E945B339B01AC01C601B5010E945C331B
:103E8000C754DF4FA881B981C95BD0406D937D9342
:103E90008D939C931397CD54DF4FE881F981C35BD9
:103EA000D040608171818281938120813181428102
:103EB0005381CB54DF4FA881B981C55BD040AD9011
:103EC000BD90CD90DC9013976D907D908D909C90DF
:103ED000C954DF4FE881F981C75BD0402080318031
:103EE00042805380E080F18002811381EDAAFEAA16
:103EF0000FAB18AFC754DF4FA881B981C95BD04061
:103F0000ED90FD900D911C911397E9AAFAAA0BABC5
:103F10001CABED90FD900D911C91EDA6FEA60FA798
:103F200018AB0E94F7357B018C01C601B501A401D5
:103F300093010E94F7359B01AC01C801B7010E94B3
:103F40005C337B018C01C201B1012DA93EA94FA9AF
:103F500058AD0E94F7359B01AC01C801B7010E9422
:103F60005C337B018C0169A97AA98BA99CA92DA539
:103F70003EA54FA558A90E94F7359B01AC01C80189
:103F8000B7010E945C330E948B157B018C01CD54DC
:103F9000DF4FE881F981C35BD0406081718182810C
:103FA0009381A80197010E94F735CD54DF4FA88176
:103FB000B981C35BD0406D937D938D939C93139790
:103FC000CB54DF4FE881F981C55BD04060817181BE
:103FD00082819381A80197010E94F735CB54DF4F6E
:103FE000A881B981C55BD0406D937D938D939C93DF
:103FF0001397C954DF4FE881F981C75BD0406081D6
:10400000718182819381A80197010E94F735C9547B
:10401000DF4FA881B981C75BD0406D937D938D93AD
:104020009C931397C754DF4FE881F981C95BD04057
:104030006081718182819381A80197010E94F73587
:10404000C754DF4FA881B981C95BD0406D937D9380
:104050008D939C931397C254DF4F0FB6F894DEBF35
:104060000FBECDBFCF91DF911F910F91FF90EF90C9
:10407000DF90CF90BF90AF909F908F907F906F9088
:104080005F904F903F902F9008956F927F928F9204
:104090009F92AF92BF92CF92DF92EF92FF920F93D7
:1040A0001F93DF93CF93CDB7DEB72C970FB6F8945D
:1040B000DEBF0FBECDBF4C013B0148965E010894A8
:1040C000A11CB11CB501AE014D5F5F4F9E012B5F7E
:1040D0003F4F8E01095F1F4FF9E0EF2EF12CEC0EE0
:1040E000FD1EEBE0CE2ED12CCC0EDD1E0E94661301
:1040F0008F819885F40126A537A5821B930B98879D
:104100008F8389859A8520A931A9821B930B9A8771
:1041100089878B859C8522A933A9821B930B9C8759
:104120008B876501730100E010E0F6012081318189
:104130000330110544F4B901882777FD8095982F45
:104140000E94C4340DC0B901882777FD8095982F4F
:104150000E94C43423E333E343E851E40E9429344A
:10416000F70160837183828393830F5F1F4F22E087
:1041700030E0C20ED31E84E090E0E80EF91E063057
:10418000110599F6F40164A975A9882777FD809532
:10419000982F0E94C4349B01AC01F30160817181AE
:1041A000828193810E945B33F401E05CFF4F2081A8
:1041B0003181428153810E942934F30160837183EC
:1041C00082839383F40166A977A9882777FD809578
:1041D000982F0E94C4349B01AC01F3016481758166
:1041E000868197810E945B33F401EC5BFF4F208155
:1041F0003181428153810E942934F30164837583A4
:1042000086839783F40160AD71AD882777FD809533
:10421000982F0E94C4349B01AC01F3016085718525
:10422000828593850E945B33F401E85BFF4F208118
:104230003181428153810E942934F3016087718763
:1042400082879387B301685E7F4FC4010E94C00FCD
:10425000F40162AD73AD882777FD8095982F0E9499
:10426000C4349B01AC01F301608D718D828D938DFF
:104270000E945B33F401E45BFF4F20813181428176
:1042800053810E942934F301608F718F828F938F45
:10429000F40164AD75AD882777FD8095982F0E9455
:1042A000C4349B01AC01F301648D758D868D978DAF
:1042B0000E945B33F401E05BFF4F2081318142813A
:1042C00053810E942934F301648F758F868F978FF5
:1042D000F40166AD77AD882777FD8095982F0E9411
:1042E000C4349B01AC01F30160A171A182A193A12F
:1042F0000E945B3324E530E0820E931EF40120819E
:104300003181428153810E942934F30160A371A35A
:1043100082A393A32C960FB6F894DEBF0FBECDBF39
:10432000CF91DF911F910F91FF90EF90DF90CF9091
:10433000BF90AF909F908F907F906F9008952F9235
:104340003F924F925F926F927F928F929F92AF9225
:10435000BF92CF92DF92EF92FF920F931F93DF9362
:10436000CF93CDB7DEB7AA970FB6F894DEBF0FBED6
:10437000CDBF3C017EA36DA3BE016F5F7F4F0E9446
:1043800045200E94A72C7B018C012CE930E0620EB5
:10439000731EF301608371838283938324E63FEF6E
:1043A000620E731EA8E9CA2ED12CC60CD71CF601CA
:1043B00080819181A281B381A8019701281B390BCB
:1043C0004A0B5B0BCA01B9010E94C23420E034E2FF
:1043D00044E759E40E9429349B01AC0160E070E09D
:1043E00080E89FE30E94293440EA50E0640E751E85
:1043F000F301608371838283938320E63FEF620E33
:10440000731EF601E082F182028313832DB73EB75B
:10441000245130400FB6F8943EBF0FBE2DBF0DB7EC
:104420001EB70F5F1F4F6D857E858F8598892BED99
:104430003FE049E450E40E94F73520E030E044E3F7
:1044400053E40E9429346FA378A789A79AA76989A2
:104450007A898B899C892BED3FE049E450E40E94E6
:10446000F73520E030E044E353E40E9429341B0197
:104470002C016D897E898F89988D2BED3FE049E471
:1044800050E40E94F73520E030E044E353E40E941A
:1044900029346B017C0189809A80AB80BC808D813E
:1044A0009E81AF81B885F80180839183A283B38315
:1044B00089859A85AB85BC8584839583A683B783DC
:1044C000898D9A8DAB8DBC8DB05880879187A287DE
:1044D000B3878D8D9E8DAF8DB8A1B0588487958799
:1044E000A687B78789A19AA1ABA1BCA1808B918B2C
:1044F000A28BB38BC3014FA158A569A57AA59201E0
:1045000081010E9424162CE730E0620E731EF30135
:1045100081919191A191B1913F01EDA1FEA1808383
:104520009183A283B383F30181919191A191B19180
:104530003F01EDA1FEA184839583A683B783F30198
:1045400081919191A191B1913F01EDA1FEA180874F
:104550009187A287B387F30180819181A281B38182
:10456000EDA1FEA184879587A687B7872DB73EB7B3
:104570002C5E3F4F0FB6F8943EBF0FBE2DBFAA96DC
:104580000FB6F894DEBF0FBECDBFCF91DF911F9164
:104590000F91FF90EF90DF90CF90BF90AF909F90E2
:1045A0008F907F906F905F904F903F902F900895E5
:1045B0002F923F924F925F926F927F928F929F9233
:1045C000AF92BF92CF92DF92EF92FF920F931F9321
:1045D000DF93CF93CDB7DEB7A6970FB6F894DEBFC3
:1045E0000FBECDBF7E8B6D8BBE016F5F7F4F0E9474
:1045F0009F216D807E808F8098848D859E85AF857C
:10460000B889898B9A8BAB8BBC8BA980BA80CB8005
:10461000DC8029843A844B845C84C401B3012989F9
:104620003A894B895C890E94F7357B018C01C60170
:10463000B501A20191010E94F7359B01AC01C801AF
:10464000B7010E945B339B01AC010E945C336F8B0E
:10465000788F898F9A8FC601B501A40193010E94BA
:10466000F7357B018C01C201B10129893A894B8957
:104670005C890E94F7359B01AC01C801B7010E941B
:104680005C339B01AC010E945C336B8F7C8F8D8F00
:104690009E8FC601B501A60195010E94F7357B01E9
:1046A0008C01C401B301A40193010E94F7359B0161
:1046B000AC01C801B7010E945B337B018C01C201D0
:1046C000B101A20191010E94F7359B01AC01C80123
:1046D000B7010E945B337B018C0169897A898B89E0
:1046E0009C899B01AC010E94F7359B01AC01C8017C
:1046F000B7010E945C336F8F78A389A39AA3C4018A
:10470000B301A40193010E945C336BA37CA38DA32E
:104710009EA3A20191010E94F7357B018C01C60185
:10472000B50120E030E040E050EC0E94F7352989E7
:104730003A894B895C890E94F7359B01AC01C8011D
:10474000B7010E945C331B012C01C601B501A60113
:1047500095010E945C33A60195010E94F7357B010B
:104760008C016BA17CA18DA19EA1A40193010E944B
:10477000F7359B01AC01C801B7010E945C3320E012
:1047800030E040E85FE30E945B339B01AC01C20173
:10479000B1010E94CF33AD89BE896D937D938D9316
:1047A0009C9313976F8D78A189A19AA19B01AC016D
:1047B0000E94F7357B018C016B8D7C8D8D8D9E8DDC
:1047C0009B01AC010E94F735A80197010E945C3360
:1047D0000E9464369B01AC016F89788D898D9A8D1A
:1047E0000E9429340E94FA33ED89FE89648375831F
:1047F000868397836F89788D898D9A8D9B01AC0113
:104800000E94F735A80197010E945C330E9464362C
:104810009B01AC016B8D7C8D8D8D9E8D0E9429340A
:104820000E94FA33AD89BE8918966D937D938D935E
:104830009C931B97A6960FB6F894DEBF0FBECDBF14
:10484000CF91DF911F910F91FF90EF90DF90CF906C
:10485000BF90AF909F908F907F906F905F904F90A0
:104860003F902F9008958F929F92AF92BF92CF92D8
:10487000DF92EF92FF920F931F934C015B01AB010C
:104880004E5F5F4F9B012C5F3F4F8B010A5F1F4FB5
:10489000FB013896DB011A9648967F016D010E9454
:1048A0006613A501425F5F4F9501205F3F4FC40132
:1048B0006CE070E0A60EB71EB5010E94C90F1F91F3
:1048C0000F91FF90EF90DF90CF90BF90AF909F90AF
:1048D0008F9008952F923F924F925F926F927F92A6
:1048E0008F929F92AF92BF92CF92DF92EF92FF9200
:1048F0000F931F93DF93CF93CDB7DEB766970FB6B5
:10490000F894DEBF0FBECDBF1C01442455240F2EEA
:10491000F0E06F2EF0E07F2EF0E08F2EF0E09F2E83
:10492000F02D6401530184017301C101BE016F5F69
:104930007F4F0E9433246F817885882777FD80958B
:10494000982F0E94C4349B01AC01C801B7010E949A
:104950005C337B018C0169857A85882777FD80959A
:10496000982F0E94C4349B01AC01C601B5010E947E
:104970005C335B016C016B857C85882777FD8095B6
:10498000982F0E94C4349B01AC01C401B3010E9462
:104990005C333B014C010894411C511C83E04816D8
:1049A000510419F6C801B70120E030E040E450E4BA
:1049B0000E9429340E949134F10177A766A7C601AD
:1049C000B50120E030E040E450E40E9429340E9428
:1049D0009134F10171AB60ABC401B30120E030E070
:1049E00040E450E40E9429340E949134F10173ABF9
:1049F00062AB66960FB6F894DEBF0FBECDBFCF9107
:104A0000DF911F910F91FF90EF90DF90CF90BF90BB
:104A1000AF909F908F907F906F905F904F903F905E
:104A20002F9008950F931F93CF93DF93082FEB01DF
:104A300010E009C070E0610F711D8BE993E00E94E6
:104A4000631489931F5F6091A903101798F3600F97
:104A50006093A903DF91CF911F910F910895CF9299
:104A6000DF92EF92FF920F931F93CF93DF93EC01AE
:104A70008BE993E06AE070E00E9463148E01005CB1
:104A80001F4F94E4E92EF12CEC0EFD1EB8E4CB2E62
:104A9000D12CCC0EDD1E8931E9F58BE08093A90382
:104AA000E49682E0BE010E941225229682E0BE01B9
:104AB0000E941225229682E0BE010E9412252296B3
:104AC00082E0BE010E941225229682E0BE010E9471
:104AD0001225229682E0BE010E94122584E0B801D0
:104AE0000E94122584E0B7010E94122584E0B601DD
:104AF0000E9412252E9684E0BE010E941225249663
:104B000084E0BE010E941225249684E0BE010E942A
:104B1000122519C01DAA1CAA1FAA1EAA19AE18AEDA
:104B200080E090E0A0E8BFE3F80180839183A28356
:104B3000B383F70180839183A283B383F6018083DB
:104B40009183A283B383DF91CF911F910F91FF9047
:104B5000EF90DF90CF900895DF92EF92FF920F9346
:104B60001F93DF93CF93CDB7DEB760970FB6F8945E
:104B7000DEBF0FBECDBF7C01D62E142F65E070E0E6
:104B800080E090E00E94082D44984598112319F088
:104B90008CE08093B8008E010F5F1F4FC80161E069
:104BA0004D2D0E946213D7015896F80180E10190C3
:104BB0000D928150E1F78701085E1F4FC8010E94E6
:104BC0002414C80163E00E94161465E070E080E0E0
:104BD00090E00E94082DC70160E00E948711C70184
:104BE00061E00E946210C70160E00E9455106AE017
:104BF00070E080E090E00E94082DC70166E00E940E
:104C00004C10C7010E946A24C7010E942F2560969C
:104C10000FB6F894DEBF0FBECDBFCF91DF911F91CD
:104C20000F91FF90EF90DF900895462F64E070E0C1
:104C30000E94AC250895CF92DF92EF92FF920F93DE
:104C40001F93DF93CF93CDB7DEB7A8970FB6F89435
:104C5000DEBF0FBECDBF6C010E94DB0EC6014896C1
:104C60000E9461138E010F5E1F4FC8010E94DB0E70
:104C7000D601F80188E101900D928150E1F78E0193
:104C80000F5F1F4FC8010E946113D6015896F801AB
:104C900080E101900D928150E1F72CE730E0C20EE7
:104CA000D31E0F2EF0E0EF2EF0E0FF2EF0E80F2FD6
:104CB000FFE31F2FF02DF601E192F1920193119382
:104CC00080E090E0A0E0B0E081939193A193B19354
:104CD00081939193A193B1936F0180839183A28378
:104CE000B38320EE3FEFC20ED31EF6018193919362
:104CF000A193B19381939193A193B1938193919354
:104D0000A193B193E192F192019311936F012DEC74
:104D10003CEC4CE45EE3208331834283538324E103
:104D200030E0C20ED31EF60181939193A193B1930B
:104D300081939193A193B19381939193A193B19313
:104D400011921192119211926F01108211821282AE
:104D5000138224EA3FEFC20ED31EF601E192F192D4
:104D600001931193E192F19201931193E192F192E7
:104D700001931193E192F19201931193E192F192D7
:104D800001931193E082F18202831383A8960FB6F8
:104D9000F894DEBF0FBECDBFCF91DF911F910F9171
:104DA000FF90EF90DF90CF90089581E08093EF0324
:104DB0006093CC031092ED031092EE03089581E00E
:104DC0008093EF036093CC031092ED031092EE03F7
:104DD00008952091CB0330E08091CA03281B31094C
:104DE000C90108954091CA038091CB03481718F078
:104DF0002FEF3FEF0AC0E42FF0E0E655FC4F808133
:104E0000282F30E04F5F4093CA03C9010895E09115
:104E1000CA038091CB03E81718F0EFEFFFEF06C04D
:104E2000F0E0E655FC4F8081E82FF0E0CF010895D7
:104E300008951092F3031092F20388EE93E0A0E03D
:104E4000B0E08093F4039093F503A093F603B0933E
:104E5000F7038DE392E09093F1038093F0030895BC
:104E6000CF92DF92EF92FF920F931F93CF93DF9336
:104E70007C016B018A018091EF038823A1F0C0E0DF
:104E8000D0E00DC0D701ED91FC91D601AC0FBD1F54
:104E90000190F081E02DC7016C9109952196C01712
:104EA000D10780F304C0CB01642F0E946628C8019B
:104EB000DF91CF911F910F91FF90EF90DF90CF90F6
:104EC0000895DF93CF930F92CDB7DEB7FC016983CE
:104ED0008091EF038823C9F08091EE03803238F08F
:104EE00081E090E09383828320E030E015C08091E0
:104EF000ED03E82FF0E0E353FC4F998190838F5F3F
:104F00008093ED038093EE0305C0CE01019661E02E
:104F10000E94662821E030E0C9010F90CF91DF9117
:104F200008950F93062F8091CC036DEC73E04091B0
:104F3000EE0321E00E9411281092ED031092EE037F
:104F40001092EF030F91089561E00E949127089558
:104F5000413208F040E2862F6AEA73E00E94C827D7
:104F60001092CA038093CB03089521E00E94A827E2
:104F7000089521E00E94A82708951092CA03109274
:104F8000CB031092ED031092EE030E94122A0895B3
:104F9000382F413210F040E042C08091FC0388235A
:104FA000E1F791E09093FC032093FE038FEF809351
:104FB0006904109224044150409325044F5F90935C
:104FC000FD038091FD03330F832B8093FD038091BC
:104FD000FF03813041F41092FF038091FD03809321
:104FE000BB0085EC01C085EE8093BC008091FC0382
:104FF0008130E1F380912404841710F4409124045B
:1050000020E030E00AC0FB01E20FF31FD901AC5FE2
:10501000BB4F8C9180832F5F3F4F2417A0F3842FC9
:1050200008950F931F93582F122F413210F081E0F3
:105030004AC08091FC038823E1F782E08093FC035F
:105040000093FE038FEF8093690410922404409331
:105050002504A4E0B4E0FB0102C081918D938E2F62
:10506000861B8417D0F31092FD038091FD03550F2A
:10507000852B8093FD038091FF03813041F41092D2
:10508000FF038091FD038093BB0085EC01C085EE9A
:105090008093BC00112321F08091FC038230E1F366
:1050A000809169048F3F11F480E00DC08091690404
:1050B000803211F482E007C080916904803311F0DE
:1050C00084E001C083E01F910F910895482F613261
:1050D00010F081E008958091FC03843011F082E0AB
:1050E000089560934704A6E2B4E0842F9C01F9017F
:1050F00002C081918D938E2F841B8617D0F380E0A0
:1051000008951F920F920FB60F9211242F933F9381
:105110004F935F936F937F938F939F93AF93BF93BF
:10512000EF93FF938091B90090E0887F9070803674
:10513000910509F4F2C081369105CCF588329105CC
:1051400009F47BC089329105B4F48031910509F4EA
:105150006FC0813191053CF4009709F447C108976D
:1051600009F04FC165C08831910509F466C0809788
:1051700009F047C182C08034910509F4A4C081348C
:10518000910544F48033910509F482C0C89709F071
:1051900038C189C08035910509F489C088359105E9
:1051A00009F496C08834910509F02BC1AEC0883946
:1051B000910509F413C189399105ECF488379105FB
:1051C00009F4ABC0893791054CF48836910509F490
:1051D000A4C08037910509F014C19FC0883891059B
:1051E00009F4FCC08039910509F49DC0803891050F
:1051F00009F007C198C0803B910509F4C6C0813B06
:1052000091054CF4803A910509F49FC0883A9105C4
:1052100009F0F7C0BAC0803C910509F4E3C0883CAE
:10522000910509F4DFC0883B910509F0EAC0C2C0CE
:105230008091FD038093BB00CFC0909124048091A6
:105240002504981768F490912404E92FF0E0EC5FAE
:10525000FB4F80818093BB009F5F90932404BCC070
:105260008091FE03882309F44BC085ED8093BC0038
:105270008091BC0084FDFCCFC2C080E280936904B1
:1052800085ED8093BC008091BC0084FDFCCFB7C04D
:1052900080E38093690485ED8093BC008091BC001D
:1052A00084FDFCCFACC088E3809369049BC08091EF
:1052B00024049091BB00E82FF0E0EC5FFB4F90835B
:1052C0008F5F80932404909124048091250482C0F0
:1052D000809124049091BB00E82FF0E0EC5FFB4F3D
:1052E00090838F5F809324048091FE03882341F094
:1052F00085ED8093BC008091BC0084FDFCCF7FC015
:1053000081E08093FF0384EA6EC085ED8093BC004A
:105310008091BC0084FDFCCF72C083E08093FC03CD
:105320001092680459C080916804803208F056C019
:10533000809168049091BB00E82FF0E0E85BFB4FA0
:1053400090838F5F8093680447C0809168048032A7
:1053500030F4E0916804F0E0E85BFB4F108285EDEB
:105360008093BC008091BC0084FDFCCF1092FC03B4
:1053700060916804E0910204F091030488E494E0F1
:1053800070E00995109268042DC084E08093FC03BE
:105390001092460410924704E0910004F091010439
:1053A000099580914704882329F481E0809347047C
:1053B0001092260490914604E92FF0E0EA5DFB4F3D
:1053C00080818093BB009F5F909346049091460438
:1053D00080914704981710F485EC01C085E880930C
:1053E000BC000FC085EC8093BC0009C0109269041A
:1053F00085ED8093BC008091BC0084FDFCCF1092B1
:10540000FC03FF91EF91BF91AF919F918F917F919D
:105410006F915F914F913F912F910F900FBE0F9021
:105420001F9018951092FC0381E08093FE03109268
:10543000FF0382E161E00E94AF2D83E161E00E9401
:10544000AF2DE9EBF0E080818E7F808380818D7FBE
:10545000808388E48093B80085E48093BC0008953D
:105460002CB5382F33702C7F322B3CBD2DB590E0FE
:10547000959587959595879581702E7F822B8DBD0B
:1054800008958AE061E00E94AF2D8AE061E00E9409
:10549000702D8CB580618CBD8CB580648CBD8DE029
:1054A00061E00E94702D8BE061E00E94702D0895F4
:1054B0000F931F93CF93DF93BC018230910510F4BB
:1054C00062E070E0E0911D05F0911E0540E050E0C3
:1054D000A0E0B0E024C08081918186179707D0F0CA
:1054E0008617970771F482819381109729F013969C
:1054F0009C938E9312972CC090931E0580931D054C
:1055000027C04115510519F08417950718F4AC010F
:10551000EF018D01DF01828193819C01F9013097B8
:10552000D1F641155105F9F0CA01861B970B84305D
:10553000910580F48A819B810115110521F0F80104
:105540009383828304C090931E0580931D05FE0102
:1055500032962FC0FE01E80FF91F619371930297F5
:105560009983888326C08DB79EB788579040209135
:105570002D0230912E0228173907C8F4AC01421BC6
:10558000530B4617570798F0CB0102964817590757
:1055900070F0820F931F90932E0280932D029093B0
:1055A000300280932F02F9016193719302C0E0E011
:1055B000F0E0CF01DF91CF911F910F910895CF932C
:1055C000DF939C01009709F48FC0EC0122971B82A6
:1055D0001A8260911D0570911E056115710581F497
:1055E00088819981820F931F20912D0230912E0284
:1055F0002817390739F5D0932E02C0932D0274C0B5
:10560000DB0140E050E0AC17BD0708F1BB83AA8383
:10561000FE0121913191E20FF31FAE17BF0779F41C
:105620008D919C911197280F391F2E5F3F4F398321
:10563000288312968D919C9113979B838A834115A1
:10564000510571F4D0931E05C0931D054DC01296EF
:105650008D919C911397AD01009711F0DC01D3CF90
:10566000DA011396DC93CE931297FA0121913191CE
:10567000E20FF31FCE17DF0769F488819981280FA5
:10568000391F2E5F3F4FFA01318320838A819B812E
:1056900093838283E0E0F0E0DB0112968D919C9190
:1056A0001397009719F0BC01FD01F6CFAB014E5FD7
:1056B0005F4FDB018D919C91840F951F20912D02EE
:1056C00030912E022817390779F4309729F4109277
:1056D0001E0510921D0502C01382128242505040D6
:1056E00050932E0240932D02DF91CF9108956F9237
:1056F0007F928F929F92AF92BF92CF92DF92EF9262
:10570000FF920F931F93CF93DF938C01009729F49F
:10571000CB010E94582A8C01B4C08EEFE82E8FEF87
:10572000F82EE00EF11E5801A60EB71EAE14BF04EF
:1057300008F4A5C0D7014D915C9111974617570702
:10574000B8F04530510508F49CC0CA01049786178B
:10575000970708F496C042505040461B570BF5017E
:10576000419351936D937C93CF010E94DF2A89C0AE
:105770004B01841A950A3801640E751EA0911D050F
:10578000B0911E05CC24DD24E0E0F0E047C0A61572
:10579000B705A9F5CD91DC911197CE010296881538
:1057A000990568F1CE0188199909029612962C91F3
:1057B000129713963C91059758F0F5012283338395
:1057C000C819D909D183C083D7016D937C9309C0CF
:1057D0004E5F5F4F4C0F5D1FF70151834083C9013E
:1057E000FC01C114D10431F0D6011396FC93EE9361
:1057F000129747C0F0931E05E0931D0542C08D919E
:105800009C911197E817F90708F4FC016D011296B5
:105810008C91129713969C919C01D901109709F0D5
:10582000B6CF80912D0290912E0286159705B1F486
:10583000E617F70798F48DB79EB788579040A816DB
:10584000B906E8F4B0922E02A0922D02B092300276
:10585000A0922F02F7017183608313C0CB010E94D5
:10586000582AEC01009759F0D7014D915C91B8018D
:105870000E947901C8010E94DF2A8E0102C000E067
:1058800010E0C801DF91CF911F910F91FF90EF9031
:10589000DF90CF90BF90AF909F908F907F906F9050
:1058A00008951F920F920FB60F9211242F933F93DA
:1058B0008F939F93AF93BF9380916E0490916F04E9
:1058C000A0917004B0917104309172040196A11DF1
:1058D000B11D232F2D5F2D3720F02D570196A11DCF
:1058E000B11D2093720480936E0490936F04A09373
:1058F0007004B093710480916A0490916B04A0913C
:105900006C04B0916D040196A11DB11D80936A04D1
:1059100090936B04A0936C04B0936D04BF91AF910E
:105920009F918F913F912F910F900FBE0F901F90DD
:1059300018958FB7F89420916E0430916F044091C0
:105940007004509171048FBFB901CA0108959FB7C7
:10595000F89420916A0430916B0440916C0450914A
:105960006D0486B5A89B06C08F3F21F02F5F3F4F87
:105970004F4F5F4F9FBF542F432F322F2227280FA7
:10598000311D411D511D82E0220F331F441F551F41
:105990008A95D1F7B901CA010895789484B58260D7
:1059A00084BD84B5816084BD85B5826085BD85B5C3
:1059B000816085BDEEE6F0E0808181608083E1E872
:1059C000F0E01082808182608083808181608083AA
:1059D000E0E8F0E0808181608083E1EBF0E08081AD
:1059E00084608083E0EBF0E0808181608083EAE77F
:1059F000F0E0808184608083808182608083808108
:105A0000816080838081806880831092C1000895C6
:105A1000EF92FF920F931F93CF93DF937B018C0143
:105A20003FB7F89480916A0490916B04A0916C0444
:105A3000B0916D0426B5A89B05C02F3F19F00196C3
:105A4000A11DB11D3FBFBA2FA92F982F8827820F04
:105A5000911DA11DB11D52E0880F991FAA1FBB1FE8
:105A60005A95D1F7EC0130C00E945A333FB7F894F1
:105A700080916A0490916B04A0916C04B0916D04C4
:105A800026B5A89B05C02F3F19F00196A11DB11D99
:105A90003FBFBA2FA92F982F8827820F911DA11DD4
:105AA000B11D32E0880F991FAA1FBB1F3A95D1F78D
:105AB0008C1B9D0B885E9340B8F20894E108F108B6
:105AC00001091109C851DC4FE114F1040105110568
:105AD00059F6DF91CF911F910F91FF90EF900895AC
